{
  "abi": [
    {
      "anonymous": false,
      "inputs": [
        {
          "indexed": false,
          "internalType": "uint256",
          "name": "paymentTimestamp",
          "type": "uint256"
        }
      ],
      "name": "ClaimPayment",
      "type": "event"
    },
    {
      "anonymous": false,
      "inputs": [
        {
          "indexed": true,
          "internalType": "address",
          "name": "account",
          "type": "address"
        }
      ],
      "name": "CourseCompleted",
      "type": "event"
    },
    {
      "anonymous": false,
      "inputs": [
        {
          "indexed": false,
          "internalType": "bool",
          "name": "courseStatus",
          "type": "bool"
        }
      ],
      "name": "CourseStatus",
      "type": "event"
    },
    {
      "anonymous": false,
      "inputs": [
        {
          "indexed": true,
          "internalType": "address",
          "name": "account",
          "type": "address"
        }
      ],
      "name": "DropOut",
      "type": "event"
    },
    {
      "anonymous": false,
      "inputs": [
        {
          "indexed": false,
          "internalType": "bytes32",
          "name": "role",
          "type": "bytes32"
        },
        {
          "indexed": false,
          "internalType": "address",
          "name": "account",
          "type": "address"
        }
      ],
      "name": "GrantRole",
      "type": "event"
    },
    {
      "anonymous": false,
      "inputs": [
        {
          "indexed": false,
          "internalType": "uint8",
          "name": "version",
          "type": "uint8"
        }
      ],
      "name": "Initialized",
      "type": "event"
    },
    {
      "anonymous": false,
      "inputs": [
        {
          "indexed": false,
          "internalType": "bool",
          "name": "paymentStatus",
          "type": "bool"
        }
      ],
      "name": "PaymentStatus",
      "type": "event"
    },
    {
      "anonymous": false,
      "inputs": [
        {
          "indexed": false,
          "internalType": "bytes32",
          "name": "role",
          "type": "bytes32"
        },
        {
          "indexed": false,
          "internalType": "address",
          "name": "account",
          "type": "address"
        }
      ],
      "name": "RevokeRole",
      "type": "event"
    },
    {
      "anonymous": false,
      "inputs": [
        {
          "indexed": true,
          "internalType": "bytes32",
          "name": "role",
          "type": "bytes32"
        },
        {
          "indexed": true,
          "internalType": "bytes32",
          "name": "previousAdminRole",
          "type": "bytes32"
        },
        {
          "indexed": true,
          "internalType": "bytes32",
          "name": "newAdminRole",
          "type": "bytes32"
        }
      ],
      "name": "RoleAdminChanged",
      "type": "event"
    },
    {
      "anonymous": false,
      "inputs": [
        {
          "indexed": true,
          "internalType": "bytes32",
          "name": "role",
          "type": "bytes32"
        },
        {
          "indexed": true,
          "internalType": "address",
          "name": "account",
          "type": "address"
        },
        {
          "indexed": true,
          "internalType": "address",
          "name": "sender",
          "type": "address"
        }
      ],
      "name": "RoleGranted",
      "type": "event"
    },
    {
      "anonymous": false,
      "inputs": [
        {
          "indexed": true,
          "internalType": "bytes32",
          "name": "role",
          "type": "bytes32"
        },
        {
          "indexed": true,
          "internalType": "address",
          "name": "account",
          "type": "address"
        },
        {
          "indexed": true,
          "internalType": "address",
          "name": "sender",
          "type": "address"
        }
      ],
      "name": "RoleRevoked",
      "type": "event"
    },
    {
      "anonymous": false,
      "inputs": [
        {
          "indexed": true,
          "internalType": "uint256",
          "name": "sponsorDeposit",
          "type": "uint256"
        },
        {
          "indexed": false,
          "internalType": "address",
          "name": "account",
          "type": "address"
        }
      ],
      "name": "Sponsored",
      "type": "event"
    },
    {
      "anonymous": false,
      "inputs": [
        {
          "indexed": false,
          "internalType": "address",
          "name": "account",
          "type": "address"
        }
      ],
      "name": "StudentEnrolled",
      "type": "event"
    },
    {
      "inputs": [],
      "name": "ADMIN",
      "outputs": [
        {
          "internalType": "bytes32",
          "name": "",
          "type": "bytes32"
        }
      ],
      "stateMutability": "view",
      "type": "function"
    },
    {
      "inputs": [],
      "name": "DEFAULT_ADMIN_ROLE",
      "outputs": [
        {
          "internalType": "bytes32",
          "name": "",
          "type": "bytes32"
        }
      ],
      "stateMutability": "view",
      "type": "function"
    },
    {
      "inputs": [],
      "name": "SPONSOR",
      "outputs": [
        {
          "internalType": "bytes32",
          "name": "",
          "type": "bytes32"
        }
      ],
      "stateMutability": "view",
      "type": "function"
    },
    {
      "inputs": [],
      "name": "STUDENT",
      "outputs": [
        {
          "internalType": "bytes32",
          "name": "",
          "type": "bytes32"
        }
      ],
      "stateMutability": "view",
      "type": "function"
    },
    {
      "inputs": [],
      "name": "TEACHER",
      "outputs": [
        {
          "internalType": "bytes32",
          "name": "",
          "type": "bytes32"
        }
      ],
      "stateMutability": "view",
      "type": "function"
    },
    {
      "inputs": [
        {
          "internalType": "address",
          "name": "_account",
          "type": "address"
        }
      ],
      "name": "bootStudent",
      "outputs": [],
      "stateMutability": "nonpayable",
      "type": "function"
    },
    {
      "inputs": [],
      "name": "claimPayment",
      "outputs": [],
      "stateMutability": "nonpayable",
      "type": "function"
    },
    {
      "inputs": [
        {
          "internalType": "address",
          "name": "",
          "type": "address"
        }
      ],
      "name": "courseCompleted",
      "outputs": [
        {
          "internalType": "bool",
          "name": "",
          "type": "bool"
        }
      ],
      "stateMutability": "view",
      "type": "function"
    },
    {
      "inputs": [],
      "name": "courseStatus",
      "outputs": [
        {
          "internalType": "bool",
          "name": "",
          "type": "bool"
        }
      ],
      "stateMutability": "view",
      "type": "function"
    },
    {
      "inputs": [],
      "name": "dropOut",
      "outputs": [],
      "stateMutability": "payable",
      "type": "function"
    },
    {
      "inputs": [],
      "name": "enroll",
      "outputs": [],
      "stateMutability": "payable",
      "type": "function"
    },
    {
      "inputs": [],
      "name": "factoryAddress",
      "outputs": [
        {
          "internalType": "address",
          "name": "",
          "type": "address"
        }
      ],
      "stateMutability": "view",
      "type": "function"
    },
    {
      "inputs": [
        {
          "internalType": "bytes32",
          "name": "role",
          "type": "bytes32"
        }
      ],
      "name": "getRoleAdmin",
      "outputs": [
        {
          "internalType": "bytes32",
          "name": "",
          "type": "bytes32"
        }
      ],
      "stateMutability": "view",
      "type": "function"
    },
    {
      "inputs": [
        {
          "internalType": "bytes32",
          "name": "role",
          "type": "bytes32"
        },
        {
          "internalType": "address",
          "name": "account",
          "type": "address"
        }
      ],
      "name": "grantRole",
      "outputs": [],
      "stateMutability": "nonpayable",
      "type": "function"
    },
    {
      "inputs": [
        {
          "internalType": "bytes32",
          "name": "role",
          "type": "bytes32"
        },
        {
          "internalType": "address",
          "name": "account",
          "type": "address"
        }
      ],
      "name": "hasRole",
      "outputs": [
        {
          "internalType": "bool",
          "name": "",
          "type": "bool"
        }
      ],
      "stateMutability": "view",
      "type": "function"
    },
    {
      "inputs": [
        {
          "internalType": "address",
          "name": "_teacher",
          "type": "address"
        },
        {
          "internalType": "address",
          "name": "_factoryAddress",
          "type": "address"
        }
      ],
      "name": "initialize",
      "outputs": [],
      "stateMutability": "nonpayable",
      "type": "function"
    },
    {
      "inputs": [
        {
          "internalType": "address",
          "name": "_account",
          "type": "address"
        }
      ],
      "name": "passStudent",
      "outputs": [],
      "stateMutability": "nonpayable",
      "type": "function"
    },
    {
      "inputs": [],
      "name": "payment",
      "outputs": [
        {
          "internalType": "uint256",
          "name": "",
          "type": "uint256"
        }
      ],
      "stateMutability": "view",
      "type": "function"
    },
    {
      "inputs": [],
      "name": "paymentStatus",
      "outputs": [
        {
          "internalType": "bool",
          "name": "",
          "type": "bool"
        }
      ],
      "stateMutability": "view",
      "type": "function"
    },
    {
      "inputs": [],
      "name": "paymentTimestamp",
      "outputs": [
        {
          "internalType": "uint256",
          "name": "",
          "type": "uint256"
        }
      ],
      "stateMutability": "view",
      "type": "function"
    },
    {
      "inputs": [],
      "name": "peaceAntzCouncil",
      "outputs": [
        {
          "internalType": "address",
          "name": "",
          "type": "address"
        }
      ],
      "stateMutability": "view",
      "type": "function"
    },
    {
      "inputs": [
        {
          "internalType": "bytes32",
          "name": "role",
          "type": "bytes32"
        },
        {
          "internalType": "address",
          "name": "account",
          "type": "address"
        }
      ],
      "name": "renounceRole",
      "outputs": [],
      "stateMutability": "nonpayable",
      "type": "function"
    },
    {
      "inputs": [
        {
          "internalType": "bytes32",
          "name": "role",
          "type": "bytes32"
        },
        {
          "internalType": "address",
          "name": "account",
          "type": "address"
        }
      ],
      "name": "revokeRole",
      "outputs": [],
      "stateMutability": "nonpayable",
      "type": "function"
    },
    {
      "inputs": [
        {
          "internalType": "uint256",
          "name": "_payment",
          "type": "uint256"
        },
        {
          "internalType": "string",
          "name": "_uri",
          "type": "string"
        }
      ],
      "name": "setAmount",
      "outputs": [],
      "stateMutability": "nonpayable",
      "type": "function"
    },
    {
      "inputs": [],
      "name": "sponsor",
      "outputs": [],
      "stateMutability": "payable",
      "type": "function"
    },
    {
      "inputs": [
        {
          "internalType": "address",
          "name": "",
          "type": "address"
        }
      ],
      "name": "sponsorDeposit",
      "outputs": [
        {
          "internalType": "uint256",
          "name": "",
          "type": "uint256"
        }
      ],
      "stateMutability": "view",
      "type": "function"
    },
    {
      "inputs": [
        {
          "internalType": "uint256",
          "name": "",
          "type": "uint256"
        }
      ],
      "name": "sponsors",
      "outputs": [
        {
          "internalType": "address",
          "name": "",
          "type": "address"
        }
      ],
      "stateMutability": "view",
      "type": "function"
    },
    {
      "inputs": [],
      "name": "sponsorshipTotal",
      "outputs": [
        {
          "internalType": "uint256",
          "name": "",
          "type": "uint256"
        }
      ],
      "stateMutability": "view",
      "type": "function"
    },
    {
      "inputs": [
        {
          "internalType": "address",
          "name": "",
          "type": "address"
        }
      ],
      "name": "studentDeposit",
      "outputs": [
        {
          "internalType": "uint256",
          "name": "",
          "type": "uint256"
        }
      ],
      "stateMutability": "view",
      "type": "function"
    },
    {
      "inputs": [],
      "name": "studentStake",
      "outputs": [
        {
          "internalType": "uint256",
          "name": "",
          "type": "uint256"
        }
      ],
      "stateMutability": "view",
      "type": "function"
    },
    {
      "inputs": [
        {
          "internalType": "uint256",
          "name": "",
          "type": "uint256"
        }
      ],
      "name": "students",
      "outputs": [
        {
          "internalType": "address",
          "name": "",
          "type": "address"
        }
      ],
      "stateMutability": "view",
      "type": "function"
    },
    {
      "inputs": [
        {
          "internalType": "bytes4",
          "name": "interfaceId",
          "type": "bytes4"
        }
      ],
      "name": "supportsInterface",
      "outputs": [
        {
          "internalType": "bool",
          "name": "",
          "type": "bool"
        }
      ],
      "stateMutability": "view",
      "type": "function"
    },
    {
      "inputs": [],
      "name": "teacher",
      "outputs": [
        {
          "internalType": "address",
          "name": "",
          "type": "address"
        }
      ],
      "stateMutability": "view",
      "type": "function"
    },
    {
      "inputs": [
        {
          "internalType": "address payable",
          "name": "_to",
          "type": "address"
        },
        {
          "internalType": "uint256",
          "name": "_amount",
          "type": "uint256"
        }
      ],
      "name": "unsponsor",
      "outputs": [],
      "stateMutability": "payable",
      "type": "function"
    },
    {
      "inputs": [],
      "name": "updateCourseStatus",
      "outputs": [],
      "stateMutability": "nonpayable",
      "type": "function"
    },
    {
      "inputs": [],
      "name": "uri",
      "outputs": [
        {
          "internalType": "string",
          "name": "",
          "type": "string"
        }
      ],
      "stateMutability": "view",
      "type": "function"
    },
    {
      "inputs": [],
      "name": "withdraw",
      "outputs": [],
      "stateMutability": "payable",
      "type": "function"
    }
  ],
  "devdoc": {
    "kind": "dev",
    "methods": {
      "getRoleAdmin(bytes32)": {
        "details": "Returns the admin role that controls `role`. See {grantRole} and {revokeRole}. To change a role's admin, use {_setRoleAdmin}."
      },
      "grantRole(bytes32,address)": {
        "details": "Grants `role` to `account`. If `account` had not been already granted `role`, emits a {RoleGranted} event. Requirements: - the caller must have ``role``'s admin role. May emit a {RoleGranted} event."
      },
      "hasRole(bytes32,address)": {
        "details": "Returns `true` if `account` has been granted `role`."
      },
      "renounceRole(bytes32,address)": {
        "details": "Revokes `role` from the calling account. Roles are often managed via {grantRole} and {revokeRole}: this function's purpose is to provide a mechanism for accounts to lose their privileges if they are compromised (such as when a trusted device is misplaced). If the calling account had been revoked `role`, emits a {RoleRevoked} event. Requirements: - the caller must be `account`. May emit a {RoleRevoked} event."
      },
      "revokeRole(bytes32,address)": {
        "details": "Revokes `role` from `account`. If `account` had been granted `role`, emits a {RoleRevoked} event. Requirements: - the caller must have ``role``'s admin role. May emit a {RoleRevoked} event."
      },
      "supportsInterface(bytes4)": {
        "details": "See {IERC165-supportsInterface}."
      }
    },
    "version": 1
  },
  "evm": {
    "assembly": "    /* \"CourseContract.sol\":227:11531  contract CourseContract is AccessControl, Initializable {... */\n  mstore(0x40, 0x80)\n    /* \"CourseContract.sol\":944:946  15 */\n  0x0f\n    /* \"CourseContract.sol\":924:946  uint internal div = 15 */\n  0x06\n  sstore\n    /* \"CourseContract.sol\":1072:1148  address public peaceAntzCouncil = 0x6bE3d955Cb6cF9A52Bc3c92F453309931012D386 */\n  0x0a\n  dup1\n  sload\n  not(sub(shl(0xa0, 0x01), 0x01))\n  and\n    /* \"CourseContract.sol\":1106:1148  0x6bE3d955Cb6cF9A52Bc3c92F453309931012D386 */\n  0x6be3d955cb6cf9a52bc3c92f453309931012d386\n    /* \"CourseContract.sol\":1072:1148  address public peaceAntzCouncil = 0x6bE3d955Cb6cF9A52Bc3c92F453309931012D386 */\n  or\n  swap1\n  sstore\n    /* \"CourseContract.sol\":227:11531  contract CourseContract is AccessControl, Initializable {... */\n  callvalue\n  dup1\n  iszero\n  tag_1\n  jumpi\n  0x00\n  dup1\n  revert\ntag_1:\n  pop\n  dataSize(sub_0)\n  dup1\n  dataOffset(sub_0)\n  0x00\n  codecopy\n  0x00\n  return\nstop\n\nsub_0: assembly {\n        /* \"CourseContract.sol\":227:11531  contract CourseContract is AccessControl, Initializable {... */\n      mstore(0x40, 0x80)\n      jumpi(tag_1, lt(calldatasize, 0x04))\n      shr(0xe0, calldataload(0x00))\n      dup1\n      0x63fc2f7c\n      gt\n      tag_39\n      jumpi\n      dup1\n      0xa217fddf\n      gt\n      tag_40\n      jumpi\n      dup1\n      0xc9e1e685\n      gt\n      tag_41\n      jumpi\n      dup1\n      0xd547741f\n      gt\n      tag_42\n      jumpi\n      dup1\n      0xd547741f\n      eq\n      tag_36\n      jumpi\n      dup1\n      0xe65f2a7e\n      eq\n      tag_37\n      jumpi\n      dup1\n      0xeac989f8\n      eq\n      tag_38\n      jumpi\n      0x00\n      dup1\n      revert\n    tag_42:\n      dup1\n      0xc9e1e685\n      eq\n      tag_34\n      jumpi\n      dup1\n      0xcef9d4cf\n      eq\n      tag_35\n      jumpi\n      0x00\n      dup1\n      revert\n    tag_41:\n      dup1\n      0xaabe0243\n      gt\n      tag_43\n      jumpi\n      dup1\n      0xaabe0243\n      eq\n      tag_31\n      jumpi\n      dup1\n      0xb46bff89\n      eq\n      tag_32\n      jumpi\n      dup1\n      0xc7dea2f2\n      eq\n      tag_33\n      jumpi\n      0x00\n      dup1\n      revert\n    tag_43:\n      dup1\n      0xa217fddf\n      eq\n      tag_29\n      jumpi\n      dup1\n      0xa710b6c8\n      eq\n      tag_30\n      jumpi\n      0x00\n      dup1\n      revert\n    tag_40:\n      dup1\n      0x81c47705\n      gt\n      tag_44\n      jumpi\n      dup1\n      0x91d14854\n      gt\n      tag_45\n      jumpi\n      dup1\n      0x91d14854\n      eq\n      tag_26\n      jumpi\n      dup1\n      0x93066b4c\n      eq\n      tag_27\n      jumpi\n      dup1\n      0x966dae0e\n      eq\n      tag_28\n      jumpi\n      0x00\n      dup1\n      revert\n    tag_45:\n      dup1\n      0x81c47705\n      eq\n      tag_24\n      jumpi\n      dup1\n      0x900feb3b\n      eq\n      tag_25\n      jumpi\n      0x00\n      dup1\n      revert\n    tag_44:\n      dup1\n      0x63fc2f7c\n      eq\n      tag_20\n      jumpi\n      dup1\n      0x72e43564\n      eq\n      tag_21\n      jumpi\n      dup1\n      0x77c93662\n      eq\n      tag_22\n      jumpi\n      dup1\n      0x7cbdce9b\n      eq\n      tag_23\n      jumpi\n      0x00\n      dup1\n      revert\n    tag_39:\n      dup1\n      0x2f2ff15d\n      gt\n      tag_46\n      jumpi\n      dup1\n      0x42f6487a\n      gt\n      tag_47\n      jumpi\n      dup1\n      0x485cc955\n      gt\n      tag_48\n      jumpi\n      dup1\n      0x485cc955\n      eq\n      tag_17\n      jumpi\n      dup1\n      0x489b0738\n      eq\n      tag_18\n      jumpi\n      dup1\n      0x50b9a0e5\n      eq\n      tag_19\n      jumpi\n      0x00\n      dup1\n      revert\n    tag_48:\n      dup1\n      0x42f6487a\n      eq\n      tag_15\n      jumpi\n      dup1\n      0x47568c58\n      eq\n      tag_16\n      jumpi\n      0x00\n      dup1\n      revert\n    tag_47:\n      dup1\n      0x2f2ff15d\n      eq\n      tag_11\n      jumpi\n      dup1\n      0x32865da6\n      eq\n      tag_12\n      jumpi\n      dup1\n      0x36568abe\n      eq\n      tag_13\n      jumpi\n      dup1\n      0x3ccfd60b\n      eq\n      tag_14\n      jumpi\n      0x00\n      dup1\n      revert\n    tag_46:\n      dup1\n      0x1e464119\n      gt\n      tag_49\n      jumpi\n      dup1\n      0x28bfb31d\n      gt\n      tag_50\n      jumpi\n      dup1\n      0x28bfb31d\n      eq\n      tag_8\n      jumpi\n      dup1\n      0x2a0acc6a\n      eq\n      tag_9\n      jumpi\n      dup1\n      0x2c713d97\n      eq\n      tag_10\n      jumpi\n      0x00\n      dup1\n      revert\n    tag_50:\n      dup1\n      0x1e464119\n      eq\n      tag_6\n      jumpi\n      dup1\n      0x248a9ca3\n      eq\n      tag_7\n      jumpi\n      0x00\n      dup1\n      revert\n    tag_49:\n      dup1\n      0x01ffc9a7\n      eq\n      tag_2\n      jumpi\n      dup1\n      0x06ead22e\n      eq\n      tag_3\n      jumpi\n      dup1\n      0x085aecef\n      eq\n      tag_4\n      jumpi\n      dup1\n      0x1d073a7a\n      eq\n      tag_5\n      jumpi\n    tag_1:\n      0x00\n      dup1\n      revert\n        /* \"@openzeppelin/contracts/access/AccessControl.sol\":2606:2808   */\n    tag_2:\n      callvalue\n      dup1\n      iszero\n      tag_51\n      jumpi\n      0x00\n      dup1\n      revert\n    tag_51:\n      pop\n      tag_52\n      tag_53\n      calldatasize\n      0x04\n      tag_54\n      jump\t// in\n    tag_53:\n      tag_55\n      jump\t// in\n    tag_52:\n      mload(0x40)\n        /* \"#utility.yul\":470:484   */\n      swap1\n      iszero\n        /* \"#utility.yul\":463:485   */\n      iszero\n        /* \"#utility.yul\":445:486   */\n      dup2\n      mstore\n        /* \"#utility.yul\":433:435   */\n      0x20\n        /* \"#utility.yul\":418:436   */\n      add\n        /* \"@openzeppelin/contracts/access/AccessControl.sol\":2606:2808   */\n    tag_56:\n      mload(0x40)\n      dup1\n      swap2\n      sub\n      swap1\n      return\n        /* \"CourseContract.sol\":1041:1066  address[] public students */\n    tag_3:\n      callvalue\n      dup1\n      iszero\n      tag_58\n      jumpi\n      0x00\n      dup1\n      revert\n    tag_58:\n      pop\n      tag_59\n      tag_60\n      calldatasize\n      0x04\n      tag_61\n      jump\t// in\n    tag_60:\n      tag_62\n      jump\t// in\n    tag_59:\n      mload(0x40)\n      sub(shl(0xa0, 0x01), 0x01)\n        /* \"#utility.yul\":846:901   */\n      swap1\n      swap2\n      and\n        /* \"#utility.yul\":828:902   */\n      dup2\n      mstore\n        /* \"#utility.yul\":816:818   */\n      0x20\n        /* \"#utility.yul\":801:819   */\n      add\n        /* \"CourseContract.sol\":1041:1066  address[] public students */\n      tag_56\n        /* \"#utility.yul\":682:908   */\n      jump\n        /* \"CourseContract.sol\":649:673  uint public studentStake */\n    tag_4:\n      callvalue\n      dup1\n      iszero\n      tag_65\n      jumpi\n      0x00\n      dup1\n      revert\n    tag_65:\n      pop\n      tag_66\n      sload(0x03)\n      dup2\n      jump\n    tag_66:\n      mload(0x40)\n        /* \"#utility.yul\":1059:1084   */\n      swap1\n      dup2\n      mstore\n        /* \"#utility.yul\":1047:1049   */\n      0x20\n        /* \"#utility.yul\":1032:1050   */\n      add\n        /* \"CourseContract.sol\":649:673  uint public studentStake */\n      tag_56\n        /* \"#utility.yul\":913:1090   */\n      jump\n        /* \"CourseContract.sol\":2729:2783  bytes32 public constant SPONSOR = keccak256(\"SPONSOR\") */\n    tag_5:\n      callvalue\n      dup1\n      iszero\n      tag_70\n      jumpi\n      0x00\n      dup1\n      revert\n    tag_70:\n      pop\n      tag_66\n        /* \"CourseContract.sol\":2763:2783  keccak256(\"SPONSOR\") */\n      0x5f0a5f78118b6e0b700e0357ae3909aaafe8fa706a075935688657cf4135f9a9\n        /* \"CourseContract.sol\":2729:2783  bytes32 public constant SPONSOR = keccak256(\"SPONSOR\") */\n      dup2\n      jump\n        /* \"CourseContract.sol\":4327:4794  function setAmount(uint _payment, string memory _uri) external onlyRole(TEACHER){... */\n    tag_6:\n      callvalue\n      dup1\n      iszero\n      tag_75\n      jumpi\n      0x00\n      dup1\n      revert\n    tag_75:\n      pop\n      tag_76\n      tag_77\n      calldatasize\n      0x04\n      tag_78\n      jump\t// in\n    tag_77:\n      tag_79\n      jump\t// in\n    tag_76:\n      stop\n        /* \"@openzeppelin/contracts/access/AccessControl.sol\":4391:4520   */\n    tag_7:\n      callvalue\n      dup1\n      iszero\n      tag_80\n      jumpi\n      0x00\n      dup1\n      revert\n    tag_80:\n      pop\n      tag_66\n      tag_82\n      calldatasize\n      0x04\n      tag_61\n      jump\t// in\n    tag_82:\n        /* \"@openzeppelin/contracts/access/AccessControl.sol\":4465:4472   */\n      0x00\n        /* \"@openzeppelin/contracts/access/AccessControl.sol\":4491:4503   */\n      swap1\n      dup2\n      mstore\n      0x20\n      dup2\n      swap1\n      mstore\n      0x40\n      swap1\n      keccak256\n        /* \"@openzeppelin/contracts/access/AccessControl.sol\":4491:4513   */\n      0x01\n      add\n      sload\n      swap1\n        /* \"@openzeppelin/contracts/access/AccessControl.sol\":4391:4520   */\n      jump\n        /* \"CourseContract.sol\":8435:8956  function dropOut() external payable onlyRole(STUDENT){... */\n    tag_8:\n      tag_76\n      tag_87\n      jump\t// in\n        /* \"CourseContract.sol\":2334:2384  bytes32 public constant ADMIN = keccak256(\"ADMIN\") */\n    tag_9:\n      callvalue\n      dup1\n      iszero\n      tag_88\n      jumpi\n      0x00\n      dup1\n      revert\n    tag_88:\n      pop\n      tag_66\n        /* \"CourseContract.sol\":2366:2384  keccak256(\"ADMIN\") */\n      0xdf8b4c520ffe197c5343c6f5aec59570151ef9a492f2c624fd45ddde6135ec42\n        /* \"CourseContract.sol\":2334:2384  bytes32 public constant ADMIN = keccak256(\"ADMIN\") */\n      dup2\n      jump\n        /* \"CourseContract.sol\":1072:1148  address public peaceAntzCouncil = 0x6bE3d955Cb6cF9A52Bc3c92F453309931012D386 */\n    tag_10:\n      callvalue\n      dup1\n      iszero\n      tag_92\n      jumpi\n      0x00\n      dup1\n      revert\n    tag_92:\n      pop\n      sload(0x0a)\n      tag_59\n      swap1\n      sub(shl(0xa0, 0x01), 0x01)\n      and\n      dup2\n      jump\n        /* \"@openzeppelin/contracts/access/AccessControl.sol\":4816:4961   */\n    tag_11:\n      callvalue\n      dup1\n      iszero\n      tag_96\n      jumpi\n      0x00\n      dup1\n      revert\n    tag_96:\n      pop\n      tag_76\n      tag_98\n      calldatasize\n      0x04\n      tag_99\n      jump\t// in\n    tag_98:\n      tag_100\n      jump\t// in\n        /* \"CourseContract.sol\":2596:2650  bytes32 public constant STUDENT = keccak256(\"STUDENT\") */\n    tag_12:\n      callvalue\n      dup1\n      iszero\n      tag_101\n      jumpi\n      0x00\n      dup1\n      revert\n    tag_101:\n      pop\n      tag_66\n        /* \"CourseContract.sol\":2630:2650  keccak256(\"STUDENT\") */\n      0xc951d7098b66ba0b8b77265b6e9cf0e187d73125a42bcd0061b09a68be421810\n        /* \"CourseContract.sol\":2596:2650  bytes32 public constant STUDENT = keccak256(\"STUDENT\") */\n      dup2\n      jump\n        /* \"@openzeppelin/contracts/access/AccessControl.sol\":5925:6139   */\n    tag_13:\n      callvalue\n      dup1\n      iszero\n      tag_105\n      jumpi\n      0x00\n      dup1\n      revert\n    tag_105:\n      pop\n      tag_76\n      tag_107\n      calldatasize\n      0x04\n      tag_99\n      jump\t// in\n    tag_107:\n      tag_108\n      jump\t// in\n        /* \"CourseContract.sol\":7650:8301  function withdraw () external payable {... */\n    tag_14:\n      tag_76\n      tag_110\n      jump\t// in\n        /* \"CourseContract.sol\":526:545  uint public payment */\n    tag_15:\n      callvalue\n      dup1\n      iszero\n      tag_111\n      jumpi\n      0x00\n      dup1\n      revert\n    tag_111:\n      pop\n      tag_66\n      sload(0x02)\n      dup2\n      jump\n        /* \"CourseContract.sol\":290:314  bool public courseStatus */\n    tag_16:\n      callvalue\n      dup1\n      iszero\n      tag_115\n      jumpi\n      0x00\n      dup1\n      revert\n    tag_115:\n      pop\n      sload(0x01)\n      tag_52\n      swap1\n      0x010000\n      swap1\n      div\n      0xff\n      and\n      dup2\n      jump\n        /* \"CourseContract.sol\":3116:3466  function initialize(address _teacher, address _factoryAddress) public initializer {... */\n    tag_17:\n      callvalue\n      dup1\n      iszero\n      tag_119\n      jumpi\n      0x00\n      dup1\n      revert\n    tag_119:\n      pop\n      tag_76\n      tag_121\n      calldatasize\n      0x04\n      tag_122\n      jump\t// in\n    tag_121:\n      tag_123\n      jump\t// in\n        /* \"CourseContract.sol\":4895:5449  function passStudent(address _account) external onlyRole(TEACHER){... */\n    tag_18:\n      callvalue\n      dup1\n      iszero\n      tag_124\n      jumpi\n      0x00\n      dup1\n      revert\n    tag_124:\n      pop\n      tag_76\n      tag_126\n      calldatasize\n      0x04\n      tag_127\n      jump\t// in\n    tag_126:\n      tag_128\n      jump\t// in\n        /* \"CourseContract.sol\":855:883  uint public paymentTimestamp */\n    tag_19:\n      callvalue\n      dup1\n      iszero\n      tag_129\n      jumpi\n      0x00\n      dup1\n      revert\n    tag_129:\n      pop\n      tag_66\n      sload(0x05)\n      dup2\n      jump\n        /* \"CourseContract.sol\":1922:1969  mapping (address => uint) public studentDeposit */\n    tag_20:\n      callvalue\n      dup1\n      iszero\n      tag_133\n      jumpi\n      0x00\n      dup1\n      revert\n    tag_133:\n      pop\n      tag_66\n      tag_135\n      calldatasize\n      0x04\n      tag_127\n      jump\t// in\n    tag_135:\n      mstore(0x20, 0x0c)\n      0x00\n      swap1\n      dup2\n      mstore\n      0x40\n      swap1\n      keccak256\n      sload\n      dup2\n      jump\n        /* \"CourseContract.sol\":5531:5924  function bootStudent(address _account) external onlyRole(TEACHER){... */\n    tag_21:\n      callvalue\n      dup1\n      iszero\n      tag_138\n      jumpi\n      0x00\n      dup1\n      revert\n    tag_138:\n      pop\n      tag_76\n      tag_140\n      calldatasize\n      0x04\n      tag_127\n      jump\t// in\n    tag_140:\n      tag_141\n      jump\t// in\n        /* \"CourseContract.sol\":9091:10440  function sponsor() external payable {... */\n    tag_22:\n      tag_76\n      tag_143\n      jump\t// in\n        /* \"CourseContract.sol\":10526:11529  function unsponsor(address payable _to, uint _amount) external payable onlyRole(SPONSOR){... */\n    tag_23:\n      tag_76\n      tag_145\n      calldatasize\n      0x04\n      tag_146\n      jump\t// in\n    tag_145:\n      tag_147\n      jump\t// in\n        /* \"CourseContract.sol\":2463:2517  bytes32 public constant TEACHER = keccak256(\"TEACHER\") */\n    tag_24:\n      callvalue\n      dup1\n      iszero\n      tag_148\n      jumpi\n      0x00\n      dup1\n      revert\n    tag_148:\n      pop\n      tag_66\n        /* \"CourseContract.sol\":2497:2517  keccak256(\"TEACHER\") */\n      0x534b5b9fe29299d99ea2855da6940643d68ed225db268dc8d86c1f38df5de794\n        /* \"CourseContract.sol\":2463:2517  bytes32 public constant TEACHER = keccak256(\"TEACHER\") */\n      dup2\n      jump\n        /* \"CourseContract.sol\":440:465  bool public paymentStatus */\n    tag_25:\n      callvalue\n      dup1\n      iszero\n      tag_152\n      jumpi\n      0x00\n      dup1\n      revert\n    tag_152:\n      pop\n      sload(0x01)\n      tag_52\n      swap1\n      0x01000000\n      swap1\n      div\n      0xff\n      and\n      dup2\n      jump\n        /* \"@openzeppelin/contracts/access/AccessControl.sol\":2895:3040   */\n    tag_26:\n      callvalue\n      dup1\n      iszero\n      tag_156\n      jumpi\n      0x00\n      dup1\n      revert\n    tag_156:\n      pop\n      tag_52\n      tag_158\n      calldatasize\n      0x04\n      tag_99\n      jump\t// in\n    tag_158:\n        /* \"@openzeppelin/contracts/access/AccessControl.sol\":2981:2985   */\n      0x00\n        /* \"@openzeppelin/contracts/access/AccessControl.sol\":3004:3016   */\n      swap2\n      dup3\n      mstore\n      0x20\n      dup3\n      dup2\n      mstore\n      0x40\n      dup1\n      dup5\n      keccak256\n      sub(shl(0xa0, 0x01), 0x01)\n        /* \"@openzeppelin/contracts/access/AccessControl.sol\":3004:3033   */\n      swap4\n      swap1\n      swap4\n      and\n      dup5\n      mstore\n      swap2\n      swap1\n      mstore\n      swap1\n      keccak256\n      sload\n      0xff\n      and\n      swap1\n        /* \"@openzeppelin/contracts/access/AccessControl.sol\":2895:3040   */\n      jump\n        /* \"CourseContract.sol\":1010:1035  address[] public sponsors */\n    tag_27:\n      callvalue\n      dup1\n      iszero\n      tag_161\n      jumpi\n      0x00\n      dup1\n      revert\n    tag_161:\n      pop\n      tag_59\n      tag_163\n      calldatasize\n      0x04\n      tag_61\n      jump\t// in\n    tag_163:\n      tag_164\n      jump\t// in\n        /* \"CourseContract.sol\":2877:2906  address public factoryAddress */\n    tag_28:\n      callvalue\n      dup1\n      iszero\n      tag_166\n      jumpi\n      0x00\n      dup1\n      revert\n    tag_166:\n      pop\n      sload(0x0f)\n      tag_59\n      swap1\n      sub(shl(0xa0, 0x01), 0x01)\n      and\n      dup2\n      jump\n        /* \"@openzeppelin/contracts/access/AccessControl.sol\":2027:2076   */\n    tag_29:\n      callvalue\n      dup1\n      iszero\n      tag_170\n      jumpi\n      0x00\n      dup1\n      revert\n    tag_170:\n      pop\n      tag_66\n        /* \"@openzeppelin/contracts/access/AccessControl.sol\":2072:2076   */\n      0x00\n        /* \"@openzeppelin/contracts/access/AccessControl.sol\":2027:2076   */\n      dup2\n      jump\n        /* \"CourseContract.sol\":3567:4225  function updateCourseStatus() external onlyRole(TEACHER){... */\n    tag_30:\n      callvalue\n      dup1\n      iszero\n      tag_174\n      jumpi\n      0x00\n      dup1\n      revert\n    tag_174:\n      pop\n      tag_76\n      tag_176\n      jump\t// in\n        /* \"CourseContract.sol\":794:822  uint public sponsorshipTotal */\n    tag_31:\n      callvalue\n      dup1\n      iszero\n      tag_177\n      jumpi\n      0x00\n      dup1\n      revert\n    tag_177:\n      pop\n      tag_66\n      sload(0x04)\n      dup2\n      jump\n        /* \"CourseContract.sol\":982:1004  address public teacher */\n    tag_32:\n      callvalue\n      dup1\n      iszero\n      tag_181\n      jumpi\n      0x00\n      dup1\n      revert\n    tag_181:\n      pop\n      sload(0x07)\n      tag_59\n      swap1\n      sub(shl(0xa0, 0x01), 0x01)\n      and\n      dup2\n      jump\n        /* \"CourseContract.sol\":6022:6664  function claimPayment() external onlyRole(TEACHER){... */\n    tag_33:\n      callvalue\n      dup1\n      iszero\n      tag_185\n      jumpi\n      0x00\n      dup1\n      revert\n    tag_185:\n      pop\n      tag_76\n      tag_187\n      jump\t// in\n        /* \"CourseContract.sol\":1975:2022  mapping (address => uint) public sponsorDeposit */\n    tag_34:\n      callvalue\n      dup1\n      iszero\n      tag_188\n      jumpi\n      0x00\n      dup1\n      revert\n    tag_188:\n      pop\n      tag_66\n      tag_190\n      calldatasize\n      0x04\n      tag_127\n      jump\t// in\n    tag_190:\n      mstore(0x20, 0x0d)\n      0x00\n      swap1\n      dup2\n      mstore\n      0x40\n      swap1\n      keccak256\n      sload\n      dup2\n      jump\n        /* \"CourseContract.sol\":2067:2115  mapping (address => bool) public courseCompleted */\n    tag_35:\n      callvalue\n      dup1\n      iszero\n      tag_193\n      jumpi\n      0x00\n      dup1\n      revert\n    tag_193:\n      pop\n      tag_52\n      tag_195\n      calldatasize\n      0x04\n      tag_127\n      jump\t// in\n    tag_195:\n      mstore(0x20, 0x0e)\n      0x00\n      swap1\n      dup2\n      mstore\n      0x40\n      swap1\n      keccak256\n      sload\n      0xff\n      and\n      dup2\n      jump\n        /* \"@openzeppelin/contracts/access/AccessControl.sol\":5241:5388   */\n    tag_36:\n      callvalue\n      dup1\n      iszero\n      tag_198\n      jumpi\n      0x00\n      dup1\n      revert\n    tag_198:\n      pop\n      tag_76\n      tag_200\n      calldatasize\n      0x04\n      tag_99\n      jump\t// in\n    tag_200:\n      tag_201\n      jump\t// in\n        /* \"CourseContract.sol\":6824:7513  function enroll()external payable{... */\n    tag_37:\n      tag_76\n      tag_203\n      jump\t// in\n        /* \"CourseContract.sol\":1313:1330  string public uri */\n    tag_38:\n      callvalue\n      dup1\n      iszero\n      tag_204\n      jumpi\n      0x00\n      dup1\n      revert\n    tag_204:\n      pop\n      tag_205\n      tag_206\n      jump\t// in\n    tag_205:\n      mload(0x40)\n      tag_56\n      swap2\n      swap1\n      tag_208\n      jump\t// in\n        /* \"@openzeppelin/contracts/access/AccessControl.sol\":2606:2808   */\n    tag_55:\n        /* \"@openzeppelin/contracts/access/AccessControl.sol\":2691:2695   */\n      0x00\n      not(sub(shl(0xe0, 0x01), 0x01))\n        /* \"@openzeppelin/contracts/access/AccessControl.sol\":2714:2761   */\n      dup3\n      and\n      shl(0xe0, 0x7965db0b)\n      eq\n      dup1\n        /* \"@openzeppelin/contracts/access/AccessControl.sol\":2714:2801   */\n      tag_211\n      jumpi\n      pop\n      shl(0xe0, 0x01ffc9a7)\n      not(sub(shl(0xe0, 0x01), 0x01))\n        /* \"@openzeppelin/contracts/utils/introspection/ERC165.sol\":937:977   */\n      dup4\n      and\n      eq\n        /* \"@openzeppelin/contracts/access/AccessControl.sol\":2765:2801   */\n    tag_211:\n        /* \"@openzeppelin/contracts/access/AccessControl.sol\":2707:2801   */\n      swap3\n        /* \"@openzeppelin/contracts/access/AccessControl.sol\":2606:2808   */\n      swap2\n      pop\n      pop\n      jump\t// out\n        /* \"CourseContract.sol\":1041:1066  address[] public students */\n    tag_62:\n      0x09\n      dup2\n      dup2\n      sload\n      dup2\n      lt\n      tag_213\n      jumpi\n      0x00\n      dup1\n      revert\n    tag_213:\n      0x00\n      swap2\n      dup3\n      mstore\n      0x20\n      swap1\n      swap2\n      keccak256\n      add\n      sload\n      sub(shl(0xa0, 0x01), 0x01)\n      and\n      swap1\n      pop\n      dup2\n      jump\t// out\n        /* \"CourseContract.sol\":4327:4794  function setAmount(uint _payment, string memory _uri) external onlyRole(TEACHER){... */\n    tag_79:\n        /* \"CourseContract.sol\":2497:2517  keccak256(\"TEACHER\") */\n      0x534b5b9fe29299d99ea2855da6940643d68ed225db268dc8d86c1f38df5de794\n        /* \"@openzeppelin/contracts/access/AccessControl.sol\":2505:2521   */\n      tag_216\n        /* \"@openzeppelin/contracts/access/AccessControl.sol\":2516:2520   */\n      dup2\n        /* \"@openzeppelin/contracts/access/AccessControl.sol\":2505:2515   */\n      tag_217\n        /* \"@openzeppelin/contracts/access/AccessControl.sol\":2505:2521   */\n      jump\t// in\n    tag_216:\n        /* \"CourseContract.sol\":4425:4438  paymentStatus */\n      sload(0x01)\n      0x01000000\n      swap1\n      div\n      0xff\n      and\n        /* \"CourseContract.sol\":4425:4445  paymentStatus==false */\n      iszero\n        /* \"CourseContract.sol\":4417:4535  require(paymentStatus==false, \"You cannot change change payment after it has been set, please create another course.\") */\n      tag_219\n      jumpi\n      mload(0x40)\n      shl(0xe5, 0x461bcd)\n      dup2\n      mstore\n        /* \"#utility.yul\":4899:4901   */\n      0x20\n        /* \"CourseContract.sol\":4417:4535  require(paymentStatus==false, \"You cannot change change payment after it has been set, please create another course.\") */\n      0x04\n      dup3\n      add\n        /* \"#utility.yul\":4881:4902   */\n      mstore\n        /* \"#utility.yul\":4938:4940   */\n      0x55\n        /* \"#utility.yul\":4918:4936   */\n      0x24\n      dup3\n      add\n        /* \"#utility.yul\":4911:4941   */\n      mstore\n        /* \"#utility.yul\":4977:5011   */\n      0x596f752063616e6e6f74206368616e6765206368616e6765207061796d656e74\n        /* \"#utility.yul\":4957:4975   */\n      0x44\n      dup3\n      add\n        /* \"#utility.yul\":4950:5012   */\n      mstore\n        /* \"#utility.yul\":5048:5082   */\n      0x20616674657220697420686173206265656e207365742c20706c656173652063\n        /* \"#utility.yul\":5028:5046   */\n      0x64\n      dup3\n      add\n        /* \"#utility.yul\":5021:5083   */\n      mstore\n        /* \"#utility.yul\":5120:5143   */\n      0x726561746520616e6f7468657220636f757273652e0000000000000000000000\n        /* \"#utility.yul\":5099:5118   */\n      0x84\n      dup3\n      add\n        /* \"#utility.yul\":5092:5144   */\n      mstore\n        /* \"#utility.yul\":5161:5180   */\n      0xa4\n      add\n        /* \"CourseContract.sol\":4417:4535  require(paymentStatus==false, \"You cannot change change payment after it has been set, please create another course.\") */\n    tag_220:\n      mload(0x40)\n      dup1\n      swap2\n      sub\n      swap1\n      revert\n    tag_219:\n        /* \"CourseContract.sol\":4553:4565  courseStatus */\n      sload(0x01)\n      0x010000\n      swap1\n      div\n      0xff\n      and\n        /* \"CourseContract.sol\":4553:4572  courseStatus==false */\n      iszero\n        /* \"CourseContract.sol\":4545:4607  require(courseStatus==false, \"You cannot change the payment.\") */\n      tag_222\n      jumpi\n      mload(0x40)\n      shl(0xe5, 0x461bcd)\n      dup2\n      mstore\n        /* \"#utility.yul\":5393:5395   */\n      0x20\n        /* \"CourseContract.sol\":4545:4607  require(courseStatus==false, \"You cannot change the payment.\") */\n      0x04\n      dup3\n      add\n        /* \"#utility.yul\":5375:5396   */\n      mstore\n        /* \"#utility.yul\":5432:5434   */\n      0x1e\n        /* \"#utility.yul\":5412:5430   */\n      0x24\n      dup3\n      add\n        /* \"#utility.yul\":5405:5435   */\n      mstore\n        /* \"#utility.yul\":5471:5503   */\n      0x596f752063616e6e6f74206368616e676520746865207061796d656e742e0000\n        /* \"#utility.yul\":5451:5469   */\n      0x44\n      dup3\n      add\n        /* \"#utility.yul\":5444:5504   */\n      mstore\n        /* \"#utility.yul\":5521:5539   */\n      0x64\n      add\n        /* \"CourseContract.sol\":4545:4607  require(courseStatus==false, \"You cannot change the payment.\") */\n      tag_220\n        /* \"#utility.yul\":5191:5545   */\n      jump\n        /* \"CourseContract.sol\":4545:4607  require(courseStatus==false, \"You cannot change the payment.\") */\n    tag_222:\n        /* \"CourseContract.sol\":4617:4624  payment */\n      0x02\n        /* \"CourseContract.sol\":4617:4635  payment = _payment */\n      dup4\n      swap1\n      sstore\n        /* \"CourseContract.sol\":4645:4648  uri */\n      0x0b\n        /* \"CourseContract.sol\":4645:4655  uri = _uri */\n      tag_225\n        /* \"CourseContract.sol\":4651:4655  _uri */\n      dup4\n        /* \"CourseContract.sol\":4645:4648  uri */\n      dup3\n        /* \"CourseContract.sol\":4645:4655  uri = _uri */\n      tag_226\n      jump\t// in\n    tag_225:\n      pop\n        /* \"CourseContract.sol\":4712:4715  div */\n      sload(0x06)\n        /* \"CourseContract.sol\":4703:4711  _payment */\n      dup4\n        /* \"CourseContract.sol\":4703:4715  _payment/div */\n      dup2\n      tag_228\n      jumpi\n      tag_228\n      tag_229\n      jump\t// in\n    tag_228:\n      div\n        /* \"CourseContract.sol\":4689:4701  studentStake */\n      0x03\n        /* \"CourseContract.sol\":4689:4715  studentStake= _payment/div */\n      sstore\n        /* \"CourseContract.sol\":4749:4753  true */\n      0x01\n        /* \"CourseContract.sol\":4735:4753  paymentStatus=true */\n      dup1\n      sload\n      not(0xff000000)\n      and\n      0x01000000\n      or\n      dup2\n      sstore\n        /* \"CourseContract.sol\":4768:4787  PaymentStatus(true) */\n      mload(0x40)\n        /* \"#utility.yul\":445:486   */\n      swap1\n      dup2\n      mstore\n        /* \"CourseContract.sol\":4768:4787  PaymentStatus(true) */\n      0x0e5fda8e788ab9be7c3068babfffe1846f9ad5fcfe7a684af4a7ae7842a47a4a\n      swap1\n        /* \"#utility.yul\":433:435   */\n      0x20\n        /* \"#utility.yul\":418:436   */\n      add\n        /* \"CourseContract.sol\":4768:4787  PaymentStatus(true) */\n    tag_230:\n      mload(0x40)\n      dup1\n      swap2\n      sub\n      swap1\n      log1\n        /* \"CourseContract.sol\":4327:4794  function setAmount(uint _payment, string memory _uri) external onlyRole(TEACHER){... */\n      pop\n      pop\n      pop\n      jump\t// out\n        /* \"CourseContract.sol\":8435:8956  function dropOut() external payable onlyRole(STUDENT){... */\n    tag_87:\n        /* \"CourseContract.sol\":2630:2650  keccak256(\"STUDENT\") */\n      0xc951d7098b66ba0b8b77265b6e9cf0e187d73125a42bcd0061b09a68be421810\n        /* \"@openzeppelin/contracts/access/AccessControl.sol\":2505:2521   */\n      tag_233\n        /* \"@openzeppelin/contracts/access/AccessControl.sol\":2516:2520   */\n      dup2\n        /* \"@openzeppelin/contracts/access/AccessControl.sol\":2505:2515   */\n      tag_217\n        /* \"@openzeppelin/contracts/access/AccessControl.sol\":2505:2521   */\n      jump\t// in\n    tag_233:\n        /* \"CourseContract.sol\":8506:8518  courseStatus */\n      0x01\n      dup1\n      sload\n      0x010000\n      swap1\n      div\n      0xff\n      and\n        /* \"CourseContract.sol\":8506:8526  courseStatus == true */\n      iszero\n      iszero\n      eq\n        /* \"CourseContract.sol\":8498:8590  require(courseStatus == true, \"Course has not started yet, feel free to simply withdraw :)\") */\n      tag_235\n      jumpi\n      mload(0x40)\n      shl(0xe5, 0x461bcd)\n      dup2\n      mstore\n        /* \"#utility.yul\":8473:8475   */\n      0x20\n        /* \"CourseContract.sol\":8498:8590  require(courseStatus == true, \"Course has not started yet, feel free to simply withdraw :)\") */\n      0x04\n      dup3\n      add\n        /* \"#utility.yul\":8455:8476   */\n      mstore\n        /* \"#utility.yul\":8512:8514   */\n      0x3b\n        /* \"#utility.yul\":8492:8510   */\n      0x24\n      dup3\n      add\n        /* \"#utility.yul\":8485:8515   */\n      mstore\n        /* \"#utility.yul\":8551:8585   */\n      0x436f7572736520686173206e6f742073746172746564207965742c206665656c\n        /* \"#utility.yul\":8531:8549   */\n      0x44\n      dup3\n      add\n        /* \"#utility.yul\":8524:8586   */\n      mstore\n        /* \"#utility.yul\":8622:8651   */\n      0x206672656520746f2073696d706c79207769746864726177203a290000000000\n        /* \"#utility.yul\":8602:8620   */\n      0x64\n      dup3\n      add\n        /* \"#utility.yul\":8595:8652   */\n      mstore\n        /* \"#utility.yul\":8669:8688   */\n      0x84\n      add\n        /* \"CourseContract.sol\":8498:8590  require(courseStatus == true, \"Course has not started yet, feel free to simply withdraw :)\") */\n      tag_220\n        /* \"#utility.yul\":8271:8694   */\n      jump\n        /* \"CourseContract.sol\":8498:8590  require(courseStatus == true, \"Course has not started yet, feel free to simply withdraw :)\") */\n    tag_235:\n        /* \"CourseContract.sol\":8624:8634  msg.sender */\n      caller\n        /* \"CourseContract.sol\":8608:8635  courseCompleted[msg.sender] */\n      0x00\n      swap1\n      dup2\n      mstore\n        /* \"CourseContract.sol\":8608:8623  courseCompleted */\n      0x0e\n        /* \"CourseContract.sol\":8608:8635  courseCompleted[msg.sender] */\n      0x20\n      mstore\n      0x40\n      swap1\n      keccak256\n      sload\n      0xff\n      and\n        /* \"CourseContract.sol\":8608:8644  courseCompleted[msg.sender] == false */\n      iszero\n        /* \"CourseContract.sol\":8600:8687  require(courseCompleted[msg.sender] == false, \"You have completed the course already!\") */\n      tag_238\n      jumpi\n      mload(0x40)\n      shl(0xe5, 0x461bcd)\n      dup2\n      mstore\n        /* \"#utility.yul\":8901:8903   */\n      0x20\n        /* \"CourseContract.sol\":8600:8687  require(courseCompleted[msg.sender] == false, \"You have completed the course already!\") */\n      0x04\n      dup3\n      add\n        /* \"#utility.yul\":8883:8904   */\n      mstore\n        /* \"#utility.yul\":8940:8942   */\n      0x26\n        /* \"#utility.yul\":8920:8938   */\n      0x24\n      dup3\n      add\n        /* \"#utility.yul\":8913:8943   */\n      mstore\n        /* \"#utility.yul\":8979:9013   */\n      0x596f75206861766520636f6d706c657465642074686520636f7572736520616c\n        /* \"#utility.yul\":8959:8977   */\n      0x44\n      dup3\n      add\n        /* \"#utility.yul\":8952:9014   */\n      mstore\n        /* \"#utility.yul\":9050:9058   */\n      0x7265616479210000000000000000000000000000000000000000000000000000\n        /* \"#utility.yul\":9030:9048   */\n      0x64\n      dup3\n      add\n        /* \"#utility.yul\":9023:9059   */\n      mstore\n        /* \"#utility.yul\":9076:9095   */\n      0x84\n      add\n        /* \"CourseContract.sol\":8600:8687  require(courseCompleted[msg.sender] == false, \"You have completed the course already!\") */\n      tag_220\n        /* \"#utility.yul\":8699:9101   */\n      jump\n        /* \"CourseContract.sol\":8600:8687  require(courseCompleted[msg.sender] == false, \"You have completed the course already!\") */\n    tag_238:\n        /* \"CourseContract.sol\":8716:8732  peaceAntzCouncil */\n      sload(0x0a)\n        /* \"CourseContract.sol\":8745:8757  studentStake */\n      sload(0x03)\n        /* \"CourseContract.sol\":8716:8762  peaceAntzCouncil.call{value: studentStake}(\"\") */\n      mload(0x40)\n        /* \"CourseContract.sol\":8698:8710  bool success */\n      0x00\n      swap3\n      sub(shl(0xa0, 0x01), 0x01)\n        /* \"CourseContract.sol\":8716:8732  peaceAntzCouncil */\n      and\n      swap2\n        /* \"CourseContract.sol\":8745:8757  studentStake */\n      swap1\n        /* \"CourseContract.sol\":8698:8710  bool success */\n      dup4\n        /* \"CourseContract.sol\":8716:8762  peaceAntzCouncil.call{value: studentStake}(\"\") */\n      dup2\n        /* \"CourseContract.sol\":8698:8710  bool success */\n      dup2\n        /* \"CourseContract.sol\":8716:8762  peaceAntzCouncil.call{value: studentStake}(\"\") */\n      dup2\n        /* \"CourseContract.sol\":8745:8757  studentStake */\n      dup6\n        /* \"CourseContract.sol\":8716:8732  peaceAntzCouncil */\n      dup8\n        /* \"CourseContract.sol\":8716:8762  peaceAntzCouncil.call{value: studentStake}(\"\") */\n      gas\n      call\n      swap3\n      pop\n      pop\n      pop\n      returndatasize\n      dup1\n      0x00\n      dup2\n      eq\n      tag_245\n      jumpi\n      mload(0x40)\n      swap2\n      pop\n      and(add(returndatasize, 0x3f), not(0x1f))\n      dup3\n      add\n      0x40\n      mstore\n      returndatasize\n      dup3\n      mstore\n      returndatasize\n      0x00\n      0x20\n      dup5\n      add\n      returndatacopy\n      jump(tag_244)\n    tag_245:\n      0x60\n      swap2\n      pop\n    tag_244:\n      pop\n        /* \"CourseContract.sol\":8697:8762  (bool success, ) = peaceAntzCouncil.call{value: studentStake}(\"\") */\n      pop\n      swap1\n      pop\n        /* \"CourseContract.sol\":8780:8787  success */\n      dup1\n        /* \"CourseContract.sol\":8772:8816  require(success, \"Failed to drop course :(\") */\n      tag_246\n      jumpi\n      mload(0x40)\n      shl(0xe5, 0x461bcd)\n      dup2\n      mstore\n        /* \"#utility.yul\":9518:9520   */\n      0x20\n        /* \"CourseContract.sol\":8772:8816  require(success, \"Failed to drop course :(\") */\n      0x04\n      dup3\n      add\n        /* \"#utility.yul\":9500:9521   */\n      mstore\n        /* \"#utility.yul\":9557:9559   */\n      0x18\n        /* \"#utility.yul\":9537:9555   */\n      0x24\n      dup3\n      add\n        /* \"#utility.yul\":9530:9560   */\n      mstore\n        /* \"#utility.yul\":9596:9622   */\n      0x4661696c656420746f2064726f7020636f75727365203a280000000000000000\n        /* \"#utility.yul\":9576:9594   */\n      0x44\n      dup3\n      add\n        /* \"#utility.yul\":9569:9623   */\n      mstore\n        /* \"#utility.yul\":9640:9658   */\n      0x64\n      add\n        /* \"CourseContract.sol\":8772:8816  require(success, \"Failed to drop course :(\") */\n      tag_220\n        /* \"#utility.yul\":9316:9664   */\n      jump\n        /* \"CourseContract.sol\":8772:8816  require(success, \"Failed to drop course :(\") */\n    tag_246:\n        /* \"CourseContract.sol\":8826:8858  _revokeRole(STUDENT, msg.sender) */\n      tag_249\n        /* \"CourseContract.sol\":2630:2650  keccak256(\"STUDENT\") */\n      0xc951d7098b66ba0b8b77265b6e9cf0e187d73125a42bcd0061b09a68be421810\n        /* \"CourseContract.sol\":8847:8857  msg.sender */\n      caller\n        /* \"CourseContract.sol\":8826:8837  _revokeRole */\n      tag_250\n        /* \"CourseContract.sol\":8826:8858  _revokeRole(STUDENT, msg.sender) */\n      jump\t// in\n    tag_249:\n        /* \"CourseContract.sol\":8868:8875  factory */\n      sload(0x10)\n        /* \"CourseContract.sol\":8902:8914  studentStake */\n      sload(0x03)\n        /* \"CourseContract.sol\":8868:8915  factory.updateDropout(msg.sender, studentStake) */\n      mload(0x40)\n      shl(0xe0, 0xbba870c3)\n      dup2\n      mstore\n        /* \"CourseContract.sol\":8890:8900  msg.sender */\n      caller\n        /* \"CourseContract.sol\":8868:8915  factory.updateDropout(msg.sender, studentStake) */\n      0x04\n      dup3\n      add\n        /* \"#utility.yul\":9843:9917   */\n      mstore\n        /* \"#utility.yul\":9933:9951   */\n      0x24\n      dup2\n      add\n        /* \"#utility.yul\":9926:9960   */\n      swap2\n      swap1\n      swap2\n      mstore\n      sub(shl(0xa0, 0x01), 0x01)\n        /* \"CourseContract.sol\":8868:8875  factory */\n      swap1\n      swap2\n      and\n      swap1\n        /* \"CourseContract.sol\":8868:8889  factory.updateDropout */\n      0xbba870c3\n      swap1\n        /* \"#utility.yul\":9816:9834   */\n      0x44\n      add\n        /* \"CourseContract.sol\":8868:8915  factory.updateDropout(msg.sender, studentStake) */\n      0x00\n      mload(0x40)\n      dup1\n      dup4\n      sub\n      dup2\n      0x00\n      dup8\n      dup1\n      extcodesize\n      iszero\n      dup1\n      iszero\n      tag_253\n      jumpi\n      0x00\n      dup1\n      revert\n    tag_253:\n      pop\n      gas\n      call\n      iszero\n      dup1\n      iszero\n      tag_255\n      jumpi\n      returndatasize\n      0x00\n      dup1\n      returndatacopy\n      revert(0x00, returndatasize)\n    tag_255:\n      pop\n      pop\n        /* \"CourseContract.sol\":8930:8949  DropOut(msg.sender) */\n      mload(0x40)\n        /* \"CourseContract.sol\":8938:8948  msg.sender */\n      caller\n      swap3\n      pop\n        /* \"CourseContract.sol\":8930:8949  DropOut(msg.sender) */\n      0xe1722977903518c8963f6ab648a2693b25e00e4e3e8ee0a47a8f4319965e7a06\n      swap2\n      pop\n      0x00\n      swap1\n      log2\n        /* \"CourseContract.sol\":8488:8956  {... */\n      pop\n        /* \"CourseContract.sol\":8435:8956  function dropOut() external payable onlyRole(STUDENT){... */\n      pop\n      jump\t// out\n        /* \"@openzeppelin/contracts/access/AccessControl.sol\":4816:4961   */\n    tag_100:\n        /* \"@openzeppelin/contracts/access/AccessControl.sol\":4465:4472   */\n      0x00\n        /* \"@openzeppelin/contracts/access/AccessControl.sol\":4491:4503   */\n      dup3\n      dup2\n      mstore\n      0x20\n      dup2\n      swap1\n      mstore\n      0x40\n      swap1\n      keccak256\n        /* \"@openzeppelin/contracts/access/AccessControl.sol\":4491:4513   */\n      0x01\n      add\n      sload\n        /* \"@openzeppelin/contracts/access/AccessControl.sol\":2505:2521   */\n      tag_258\n        /* \"@openzeppelin/contracts/access/AccessControl.sol\":2516:2520   */\n      dup2\n        /* \"@openzeppelin/contracts/access/AccessControl.sol\":2505:2515   */\n      tag_217\n        /* \"@openzeppelin/contracts/access/AccessControl.sol\":2505:2521   */\n      jump\t// in\n    tag_258:\n        /* \"@openzeppelin/contracts/access/AccessControl.sol\":4929:4954   */\n      tag_260\n        /* \"@openzeppelin/contracts/access/AccessControl.sol\":4940:4944   */\n      dup4\n        /* \"@openzeppelin/contracts/access/AccessControl.sol\":4946:4953   */\n      dup4\n        /* \"@openzeppelin/contracts/access/AccessControl.sol\":4929:4939   */\n      tag_261\n        /* \"@openzeppelin/contracts/access/AccessControl.sol\":4929:4954   */\n      jump\t// in\n    tag_260:\n        /* \"@openzeppelin/contracts/access/AccessControl.sol\":4816:4961   */\n      pop\n      pop\n      pop\n      jump\t// out\n        /* \"@openzeppelin/contracts/access/AccessControl.sol\":5925:6139   */\n    tag_108:\n      sub(shl(0xa0, 0x01), 0x01)\n        /* \"@openzeppelin/contracts/access/AccessControl.sol\":6020:6043   */\n      dup2\n      and\n        /* \"@openzeppelin/contracts/utils/Context.sol\":719:729   */\n      caller\n        /* \"@openzeppelin/contracts/access/AccessControl.sol\":6020:6043   */\n      eq\n        /* \"@openzeppelin/contracts/access/AccessControl.sol\":6012:6095   */\n      tag_265\n      jumpi\n      mload(0x40)\n      shl(0xe5, 0x461bcd)\n      dup2\n      mstore\n        /* \"#utility.yul\":10173:10175   */\n      0x20\n        /* \"@openzeppelin/contracts/access/AccessControl.sol\":6012:6095   */\n      0x04\n      dup3\n      add\n        /* \"#utility.yul\":10155:10176   */\n      mstore\n        /* \"#utility.yul\":10212:10214   */\n      0x2f\n        /* \"#utility.yul\":10192:10210   */\n      0x24\n      dup3\n      add\n        /* \"#utility.yul\":10185:10215   */\n      mstore\n        /* \"#utility.yul\":10251:10285   */\n      0x416363657373436f6e74726f6c3a2063616e206f6e6c792072656e6f756e6365\n        /* \"#utility.yul\":10231:10249   */\n      0x44\n      dup3\n      add\n        /* \"#utility.yul\":10224:10286   */\n      mstore\n        /* \"#utility.yul\":10322:10339   */\n      0x20726f6c657320666f722073656c660000000000000000000000000000000000\n        /* \"#utility.yul\":10302:10320   */\n      0x64\n      dup3\n      add\n        /* \"#utility.yul\":10295:10340   */\n      mstore\n        /* \"#utility.yul\":10357:10376   */\n      0x84\n      add\n        /* \"@openzeppelin/contracts/access/AccessControl.sol\":6012:6095   */\n      tag_220\n        /* \"#utility.yul\":9971:10382   */\n      jump\n        /* \"@openzeppelin/contracts/access/AccessControl.sol\":6012:6095   */\n    tag_265:\n        /* \"@openzeppelin/contracts/access/AccessControl.sol\":6106:6132   */\n      tag_268\n        /* \"@openzeppelin/contracts/access/AccessControl.sol\":6118:6122   */\n      dup3\n        /* \"@openzeppelin/contracts/access/AccessControl.sol\":6124:6131   */\n      dup3\n        /* \"@openzeppelin/contracts/access/AccessControl.sol\":6106:6117   */\n      tag_250\n        /* \"@openzeppelin/contracts/access/AccessControl.sol\":6106:6132   */\n      jump\t// in\n    tag_268:\n        /* \"@openzeppelin/contracts/access/AccessControl.sol\":5925:6139   */\n      pop\n      pop\n      jump\t// out\n        /* \"CourseContract.sol\":7650:8301  function withdraw () external payable {... */\n    tag_110:\n        /* \"CourseContract.sol\":7723:7733  msg.sender */\n      caller\n        /* \"@openzeppelin/contracts/access/AccessControl.sol\":2981:2985   */\n      0x00\n        /* \"@openzeppelin/contracts/access/AccessControl.sol\":3004:3033   */\n      swap1\n      dup2\n      mstore\n        /* \"@openzeppelin/contracts/access/AccessControl.sol\":3004:3016   */\n      0xf53340aa310a9e3c37f9f5b4aadf1810fa110ccc43b59edd5f638eb6c7aabd36\n      0x20\n        /* \"@openzeppelin/contracts/access/AccessControl.sol\":3004:3033   */\n      mstore\n        /* \"@openzeppelin/contracts/access/AccessControl.sol\":3004:3016   */\n      0x40\n        /* \"@openzeppelin/contracts/access/AccessControl.sol\":3004:3033   */\n      swap1\n      keccak256\n      sload\n      0xff\n      and\n        /* \"CourseContract.sol\":7698:7759  require(hasRole(STUDENT, msg.sender),\"You are not enrolled!\") */\n      tag_271\n      jumpi\n      mload(0x40)\n      shl(0xe5, 0x461bcd)\n      dup2\n      mstore\n        /* \"#utility.yul\":10589:10591   */\n      0x20\n        /* \"CourseContract.sol\":7698:7759  require(hasRole(STUDENT, msg.sender),\"You are not enrolled!\") */\n      0x04\n      dup3\n      add\n        /* \"#utility.yul\":10571:10592   */\n      mstore\n        /* \"#utility.yul\":10628:10630   */\n      0x15\n        /* \"#utility.yul\":10608:10626   */\n      0x24\n      dup3\n      add\n        /* \"#utility.yul\":10601:10631   */\n      mstore\n        /* \"#utility.yul\":10667:10690   */\n      0x596f7520617265206e6f7420656e726f6c6c6564210000000000000000000000\n        /* \"#utility.yul\":10647:10665   */\n      0x44\n      dup3\n      add\n        /* \"#utility.yul\":10640:10691   */\n      mstore\n        /* \"#utility.yul\":10708:10726   */\n      0x64\n      add\n        /* \"CourseContract.sol\":7698:7759  require(hasRole(STUDENT, msg.sender),\"You are not enrolled!\") */\n      tag_220\n        /* \"#utility.yul\":10387:10732   */\n      jump\n        /* \"CourseContract.sol\":7698:7759  require(hasRole(STUDENT, msg.sender),\"You are not enrolled!\") */\n    tag_271:\n        /* \"CourseContract.sol\":7802:7814  studentStake */\n      sload(0x03)\n        /* \"CourseContract.sol\":7777:7798  address(this).balance */\n      selfbalance\n        /* \"CourseContract.sol\":7777:7814  address(this).balance >= studentStake */\n      lt\n      iszero\n        /* \"CourseContract.sol\":7769:7839  require(address(this).balance >= studentStake, \"No balance available\") */\n      tag_274\n      jumpi\n      mload(0x40)\n      shl(0xe5, 0x461bcd)\n      dup2\n      mstore\n        /* \"#utility.yul\":10939:10941   */\n      0x20\n        /* \"CourseContract.sol\":7769:7839  require(address(this).balance >= studentStake, \"No balance available\") */\n      0x04\n      dup3\n      add\n        /* \"#utility.yul\":10921:10942   */\n      mstore\n        /* \"#utility.yul\":10978:10980   */\n      0x14\n        /* \"#utility.yul\":10958:10976   */\n      0x24\n      dup3\n      add\n        /* \"#utility.yul\":10951:10981   */\n      mstore\n        /* \"#utility.yul\":11017:11039   */\n      0x4e6f2062616c616e636520617661696c61626c65000000000000000000000000\n        /* \"#utility.yul\":10997:11015   */\n      0x44\n      dup3\n      add\n        /* \"#utility.yul\":10990:11040   */\n      mstore\n        /* \"#utility.yul\":11057:11075   */\n      0x64\n      add\n        /* \"CourseContract.sol\":7769:7839  require(address(this).balance >= studentStake, \"No balance available\") */\n      tag_220\n        /* \"#utility.yul\":10737:11081   */\n      jump\n        /* \"CourseContract.sol\":7769:7839  require(address(this).balance >= studentStake, \"No balance available\") */\n    tag_274:\n        /* \"CourseContract.sol\":7857:7869  courseStatus */\n      sload(0x01)\n      0x010000\n      swap1\n      div\n      0xff\n      and\n        /* \"CourseContract.sol\":7857:7878  courseStatus == false */\n      iszero\n        /* \"CourseContract.sol\":7849:7934  require(courseStatus == false, \"You have to dropout because the course has started.\") */\n      tag_277\n      jumpi\n      mload(0x40)\n      shl(0xe5, 0x461bcd)\n      dup2\n      mstore\n        /* \"#utility.yul\":11288:11290   */\n      0x20\n        /* \"CourseContract.sol\":7849:7934  require(courseStatus == false, \"You have to dropout because the course has started.\") */\n      0x04\n      dup3\n      add\n        /* \"#utility.yul\":11270:11291   */\n      mstore\n        /* \"#utility.yul\":11327:11329   */\n      0x33\n        /* \"#utility.yul\":11307:11325   */\n      0x24\n      dup3\n      add\n        /* \"#utility.yul\":11300:11330   */\n      mstore\n        /* \"#utility.yul\":11366:11400   */\n      0x596f75206861766520746f2064726f706f757420626563617573652074686520\n        /* \"#utility.yul\":11346:11364   */\n      0x44\n      dup3\n      add\n        /* \"#utility.yul\":11339:11401   */\n      mstore\n        /* \"#utility.yul\":11437:11458   */\n      0x636f757273652068617320737461727465642e00000000000000000000000000\n        /* \"#utility.yul\":11417:11435   */\n      0x64\n      dup3\n      add\n        /* \"#utility.yul\":11410:11459   */\n      mstore\n        /* \"#utility.yul\":11476:11495   */\n      0x84\n      add\n        /* \"CourseContract.sol\":7849:7934  require(courseStatus == false, \"You have to dropout because the course has started.\") */\n      tag_220\n        /* \"#utility.yul\":11086:11501   */\n      jump\n        /* \"CourseContract.sol\":7849:7934  require(courseStatus == false, \"You have to dropout because the course has started.\") */\n    tag_277:\n        /* \"CourseContract.sol\":7952:7961  msg.value */\n      callvalue\n        /* \"CourseContract.sol\":7952:7966  msg.value == 0 */\n      iszero\n        /* \"CourseContract.sol\":7944:7988  require(msg.value == 0,\"Leave value empty.\") */\n      tag_280\n      jumpi\n      mload(0x40)\n      shl(0xe5, 0x461bcd)\n      dup2\n      mstore\n        /* \"#utility.yul\":11708:11710   */\n      0x20\n        /* \"CourseContract.sol\":7944:7988  require(msg.value == 0,\"Leave value empty.\") */\n      0x04\n      dup3\n      add\n        /* \"#utility.yul\":11690:11711   */\n      mstore\n        /* \"#utility.yul\":11747:11749   */\n      0x12\n        /* \"#utility.yul\":11727:11745   */\n      0x24\n      dup3\n      add\n        /* \"#utility.yul\":11720:11750   */\n      mstore\n        /* \"#utility.yul\":11786:11806   */\n      0x4c656176652076616c756520656d7074792e0000000000000000000000000000\n        /* \"#utility.yul\":11766:11784   */\n      0x44\n      dup3\n      add\n        /* \"#utility.yul\":11759:11807   */\n      mstore\n        /* \"#utility.yul\":11824:11842   */\n      0x64\n      add\n        /* \"CourseContract.sol\":7944:7988  require(msg.value == 0,\"Leave value empty.\") */\n      tag_220\n        /* \"#utility.yul\":11506:11848   */\n      jump\n        /* \"CourseContract.sol\":7944:7988  require(msg.value == 0,\"Leave value empty.\") */\n    tag_280:\n        /* \"CourseContract.sol\":8013:8023  msg.sender */\n      caller\n        /* \"CourseContract.sol\":8027:8028  0 */\n      0x00\n        /* \"CourseContract.sol\":7998:8024  studentDeposit[msg.sender] */\n      dup2\n      dup2\n      mstore\n        /* \"CourseContract.sol\":7998:8012  studentDeposit */\n      0x0c\n        /* \"CourseContract.sol\":7998:8024  studentDeposit[msg.sender] */\n      0x20\n      mstore\n      0x40\n      dup2\n      keccak256\n        /* \"CourseContract.sol\":7998:8028  studentDeposit[msg.sender] = 0 */\n      sstore\n        /* \"CourseContract.sol\":8038:8070  _revokeRole(STUDENT, msg.sender) */\n      tag_283\n      swap1\n        /* \"CourseContract.sol\":2630:2650  keccak256(\"STUDENT\") */\n      0xc951d7098b66ba0b8b77265b6e9cf0e187d73125a42bcd0061b09a68be421810\n      swap1\n        /* \"CourseContract.sol\":8038:8049  _revokeRole */\n      tag_250\n        /* \"CourseContract.sol\":8038:8070  _revokeRole(STUDENT, msg.sender) */\n      jump\t// in\n    tag_283:\n        /* \"CourseContract.sol\":8122:8134  studentStake */\n      sload(0x03)\n        /* \"CourseContract.sol\":8099:8139  msg.sender.call{value: studentStake}(\"\") */\n      mload(0x40)\n        /* \"CourseContract.sol\":8081:8093  bool success */\n      0x00\n      swap2\n        /* \"CourseContract.sol\":8099:8109  msg.sender */\n      caller\n      swap2\n        /* \"CourseContract.sol\":8081:8093  bool success */\n      dup4\n        /* \"CourseContract.sol\":8099:8139  msg.sender.call{value: studentStake}(\"\") */\n      dup2\n        /* \"CourseContract.sol\":8081:8093  bool success */\n      dup2\n        /* \"CourseContract.sol\":8099:8139  msg.sender.call{value: studentStake}(\"\") */\n      dup2\n        /* \"CourseContract.sol\":8122:8134  studentStake */\n      dup6\n        /* \"CourseContract.sol\":8099:8109  msg.sender */\n      dup8\n        /* \"CourseContract.sol\":8099:8139  msg.sender.call{value: studentStake}(\"\") */\n      gas\n      call\n      swap3\n      pop\n      pop\n      pop\n      returndatasize\n      dup1\n      0x00\n      dup2\n      eq\n      tag_287\n      jumpi\n      mload(0x40)\n      swap2\n      pop\n      and(add(returndatasize, 0x3f), not(0x1f))\n      dup3\n      add\n      0x40\n      mstore\n      returndatasize\n      dup3\n      mstore\n      returndatasize\n      0x00\n      0x20\n      dup5\n      add\n      returndatacopy\n      jump(tag_286)\n    tag_287:\n      0x60\n      swap2\n      pop\n    tag_286:\n      pop\n        /* \"CourseContract.sol\":8080:8139  (bool success, ) = msg.sender.call{value: studentStake}(\"\") */\n      pop\n      swap1\n      pop\n        /* \"CourseContract.sol\":8157:8164  success */\n      dup1\n        /* \"CourseContract.sol\":8149:8190  require(success, \"Failed to withdraw :(\") */\n      tag_288\n      jumpi\n      mload(0x40)\n      shl(0xe5, 0x461bcd)\n      dup2\n      mstore\n        /* \"#utility.yul\":12055:12057   */\n      0x20\n        /* \"CourseContract.sol\":8149:8190  require(success, \"Failed to withdraw :(\") */\n      0x04\n      dup3\n      add\n        /* \"#utility.yul\":12037:12058   */\n      mstore\n        /* \"#utility.yul\":12094:12096   */\n      0x15\n        /* \"#utility.yul\":12074:12092   */\n      0x24\n      dup3\n      add\n        /* \"#utility.yul\":12067:12097   */\n      mstore\n        /* \"#utility.yul\":12133:12156   */\n      0x4661696c656420746f207769746864726177203a280000000000000000000000\n        /* \"#utility.yul\":12113:12131   */\n      0x44\n      dup3\n      add\n        /* \"#utility.yul\":12106:12157   */\n      mstore\n        /* \"#utility.yul\":12174:12192   */\n      0x64\n      add\n        /* \"CourseContract.sol\":8149:8190  require(success, \"Failed to withdraw :(\") */\n      tag_220\n        /* \"#utility.yul\":11853:12198   */\n      jump\n        /* \"CourseContract.sol\":8149:8190  require(success, \"Failed to withdraw :(\") */\n    tag_288:\n        /* \"CourseContract.sol\":8200:8207  factory */\n      sload(0x10)\n        /* \"CourseContract.sol\":8235:8247  studentStake */\n      sload(0x03)\n        /* \"CourseContract.sol\":8200:8248  factory.updateWithdraw(msg.sender, studentStake) */\n      mload(0x40)\n      shl(0xe0, 0x5dd07011)\n      dup2\n      mstore\n        /* \"CourseContract.sol\":8223:8233  msg.sender */\n      caller\n        /* \"CourseContract.sol\":8200:8248  factory.updateWithdraw(msg.sender, studentStake) */\n      0x04\n      dup3\n      add\n        /* \"#utility.yul\":9843:9917   */\n      mstore\n        /* \"#utility.yul\":9933:9951   */\n      0x24\n      dup2\n      add\n        /* \"#utility.yul\":9926:9960   */\n      swap2\n      swap1\n      swap2\n      mstore\n      sub(shl(0xa0, 0x01), 0x01)\n        /* \"CourseContract.sol\":8200:8207  factory */\n      swap1\n      swap2\n      and\n      swap1\n        /* \"CourseContract.sol\":8200:8222  factory.updateWithdraw */\n      0x5dd07011\n      swap1\n        /* \"#utility.yul\":9816:9834   */\n      0x44\n      add\n        /* \"CourseContract.sol\":8200:8248  factory.updateWithdraw(msg.sender, studentStake) */\n      0x00\n      mload(0x40)\n      dup1\n      dup4\n      sub\n      dup2\n      0x00\n      dup8\n      dup1\n      extcodesize\n      iszero\n      dup1\n      iszero\n      tag_292\n      jumpi\n      0x00\n      dup1\n      revert\n    tag_292:\n      pop\n      gas\n      call\n      iszero\n      dup1\n      iszero\n      tag_294\n      jumpi\n      returndatasize\n      0x00\n      dup1\n      returndatacopy\n      revert(0x00, returndatasize)\n    tag_294:\n      pop\n      pop\n        /* \"CourseContract.sol\":8263:8294  RevokeRole(STUDENT, msg.sender) */\n      0x40\n      dup1\n      mload\n        /* \"CourseContract.sol\":2630:2650  keccak256(\"STUDENT\") */\n      0xc951d7098b66ba0b8b77265b6e9cf0e187d73125a42bcd0061b09a68be421810\n        /* \"#utility.yul\":12377:12402   */\n      dup2\n      mstore\n        /* \"CourseContract.sol\":8283:8293  msg.sender */\n      caller\n        /* \"#utility.yul\":12433:12435   */\n      0x20\n        /* \"#utility.yul\":12418:12436   */\n      dup3\n      add\n        /* \"#utility.yul\":12411:12494   */\n      mstore\n        /* \"CourseContract.sol\":8263:8294  RevokeRole(STUDENT, msg.sender) */\n      0x76e6093c136cd7faa5a6d92b2b633f3b4595abd4a529b7a13917398355fea694\n      swap4\n      pop\n        /* \"#utility.yul\":12350:12368   */\n      add\n      swap1\n      pop\n        /* \"CourseContract.sol\":8263:8294  RevokeRole(STUDENT, msg.sender) */\n      mload(0x40)\n      dup1\n      swap2\n      sub\n      swap1\n      log1\n        /* \"CourseContract.sol\":7688:8301  {... */\n      pop\n        /* \"CourseContract.sol\":7650:8301  function withdraw () external payable {... */\n      jump\t// out\n        /* \"CourseContract.sol\":3116:3466  function initialize(address _teacher, address _factoryAddress) public initializer {... */\n    tag_123:\n        /* \"@openzeppelin/contracts-upgradeable/proxy/utils/Initializable.sol\":3302:3315   */\n      sload(0x01)\n      0x0100\n      swap1\n      div\n      0xff\n      and\n        /* \"@openzeppelin/contracts-upgradeable/proxy/utils/Initializable.sol\":3301:3315   */\n      iszero\n      dup1\n        /* \"@openzeppelin/contracts-upgradeable/proxy/utils/Initializable.sol\":3347:3381   */\n      dup1\n      iszero\n      tag_298\n      jumpi\n      pop\n        /* \"@openzeppelin/contracts-upgradeable/proxy/utils/Initializable.sol\":3380:3381   */\n      0x01\n        /* \"@openzeppelin/contracts-upgradeable/proxy/utils/Initializable.sol\":3365:3377   */\n      dup1\n      sload\n      0xff\n      and\n        /* \"@openzeppelin/contracts-upgradeable/proxy/utils/Initializable.sol\":3365:3381   */\n      lt\n        /* \"@openzeppelin/contracts-upgradeable/proxy/utils/Initializable.sol\":3347:3381   */\n    tag_298:\n        /* \"@openzeppelin/contracts-upgradeable/proxy/utils/Initializable.sol\":3346:3454   */\n      dup1\n      tag_302\n      jumpi\n      pop\n        /* \"@openzeppelin/contracts-upgradeable/proxy/utils/Initializable.sol\":3426:3430   */\n      address\n        /* \"@openzeppelin/contracts-upgradeable/utils/AddressUpgradeable.sol\":1713:1732   */\n      extcodesize\n        /* \"@openzeppelin/contracts-upgradeable/utils/AddressUpgradeable.sol\":1713:1736   */\n      iszero\n      dup1\n      iszero\n        /* \"@openzeppelin/contracts-upgradeable/proxy/utils/Initializable.sol\":3387:3453   */\n      tag_302\n      jumpi\n      pop\n        /* \"@openzeppelin/contracts-upgradeable/proxy/utils/Initializable.sol\":3436:3448   */\n      0x01\n      dup1\n      sload\n      0xff\n      and\n        /* \"@openzeppelin/contracts-upgradeable/proxy/utils/Initializable.sol\":3436:3453   */\n      eq\n        /* \"@openzeppelin/contracts-upgradeable/proxy/utils/Initializable.sol\":3387:3453   */\n    tag_302:\n        /* \"@openzeppelin/contracts-upgradeable/proxy/utils/Initializable.sol\":3325:3526   */\n      tag_303\n      jumpi\n      mload(0x40)\n      shl(0xe5, 0x461bcd)\n      dup2\n      mstore\n        /* \"#utility.yul\":12707:12709   */\n      0x20\n        /* \"@openzeppelin/contracts-upgradeable/proxy/utils/Initializable.sol\":3325:3526   */\n      0x04\n      dup3\n      add\n        /* \"#utility.yul\":12689:12710   */\n      mstore\n        /* \"#utility.yul\":12746:12748   */\n      0x2e\n        /* \"#utility.yul\":12726:12744   */\n      0x24\n      dup3\n      add\n        /* \"#utility.yul\":12719:12749   */\n      mstore\n        /* \"#utility.yul\":12785:12819   */\n      0x496e697469616c697a61626c653a20636f6e747261637420697320616c726561\n        /* \"#utility.yul\":12765:12783   */\n      0x44\n      dup3\n      add\n        /* \"#utility.yul\":12758:12820   */\n      mstore\n        /* \"#utility.yul\":12856:12872   */\n      0x647920696e697469616c697a6564000000000000000000000000000000000000\n        /* \"#utility.yul\":12836:12854   */\n      0x64\n      dup3\n      add\n        /* \"#utility.yul\":12829:12873   */\n      mstore\n        /* \"#utility.yul\":12890:12909   */\n      0x84\n      add\n        /* \"@openzeppelin/contracts-upgradeable/proxy/utils/Initializable.sol\":3325:3526   */\n      tag_220\n        /* \"#utility.yul\":12505:12915   */\n      jump\n        /* \"@openzeppelin/contracts-upgradeable/proxy/utils/Initializable.sol\":3325:3526   */\n    tag_303:\n        /* \"@openzeppelin/contracts-upgradeable/proxy/utils/Initializable.sol\":3551:3552   */\n      0x01\n        /* \"@openzeppelin/contracts-upgradeable/proxy/utils/Initializable.sol\":3536:3552   */\n      dup1\n      sload\n      not(0xff)\n      and\n      dup2\n      or\n      swap1\n      sstore\n        /* \"@openzeppelin/contracts-upgradeable/proxy/utils/Initializable.sol\":3562:3627   */\n      dup1\n      iszero\n      tag_306\n      jumpi\n        /* \"@openzeppelin/contracts-upgradeable/proxy/utils/Initializable.sol\":3612:3616   */\n      0x01\n        /* \"@openzeppelin/contracts-upgradeable/proxy/utils/Initializable.sol\":3596:3616   */\n      dup1\n      sload\n      not(0xff00)\n      and\n      0x0100\n      or\n      swap1\n      sstore\n        /* \"@openzeppelin/contracts-upgradeable/proxy/utils/Initializable.sol\":3562:3627   */\n    tag_306:\n        /* \"CourseContract.sol\":3239:3255  peaceAntzCouncil */\n      sload(0x0a)\n        /* \"CourseContract.sol\":3208:3256  _grantRole(DEFAULT_ADMIN_ROLE, peaceAntzCouncil) */\n      tag_308\n      swap1\n        /* \"@openzeppelin/contracts/access/AccessControl.sol\":2072:2076   */\n      0x00\n      swap1\n      sub(shl(0xa0, 0x01), 0x01)\n        /* \"CourseContract.sol\":3239:3255  peaceAntzCouncil */\n      and\n        /* \"CourseContract.sol\":3208:3218  _grantRole */\n      tag_261\n        /* \"CourseContract.sol\":3208:3256  _grantRole(DEFAULT_ADMIN_ROLE, peaceAntzCouncil) */\n      jump\t// in\n    tag_308:\n        /* \"CourseContract.sol\":3284:3300  peaceAntzCouncil */\n      sload(0x0a)\n        /* \"CourseContract.sol\":3266:3301  _grantRole(ADMIN, peaceAntzCouncil) */\n      tag_309\n      swap1\n        /* \"CourseContract.sol\":2366:2384  keccak256(\"ADMIN\") */\n      0xdf8b4c520ffe197c5343c6f5aec59570151ef9a492f2c624fd45ddde6135ec42\n      swap1\n      sub(shl(0xa0, 0x01), 0x01)\n        /* \"CourseContract.sol\":3284:3300  peaceAntzCouncil */\n      and\n        /* \"CourseContract.sol\":3266:3276  _grantRole */\n      tag_261\n        /* \"CourseContract.sol\":3266:3301  _grantRole(ADMIN, peaceAntzCouncil) */\n      jump\t// in\n    tag_309:\n        /* \"CourseContract.sol\":3311:3340  _grantRole(TEACHER, _teacher) */\n      tag_310\n        /* \"CourseContract.sol\":2497:2517  keccak256(\"TEACHER\") */\n      0x534b5b9fe29299d99ea2855da6940643d68ed225db268dc8d86c1f38df5de794\n        /* \"CourseContract.sol\":3331:3339  _teacher */\n      dup5\n        /* \"CourseContract.sol\":3311:3321  _grantRole */\n      tag_261\n        /* \"CourseContract.sol\":3311:3340  _grantRole(TEACHER, _teacher) */\n      jump\t// in\n    tag_310:\n        /* \"CourseContract.sol\":3350:3364  factoryAddress */\n      0x0f\n        /* \"CourseContract.sol\":3350:3382  factoryAddress = _factoryAddress */\n      dup1\n      sload\n      not(0xffffffffffffffffffffffffffffffffffffffff)\n      swap1\n      dup2\n      and\n      sub(shl(0xa0, 0x01), 0x01)\n      dup6\n      dup2\n      and\n      swap2\n      dup3\n      or\n      swap1\n      swap4\n      sstore\n        /* \"CourseContract.sol\":3392:3399  factory */\n      0x10\n        /* \"CourseContract.sol\":3392:3431  factory = CourseFactory(factoryAddress) */\n      dup1\n      sload\n      dup4\n      and\n      swap1\n      swap2\n      or\n      swap1\n      sstore\n        /* \"CourseContract.sol\":3441:3448  teacher */\n      0x07\n        /* \"CourseContract.sol\":3441:3459  teacher = _teacher */\n      dup1\n      sload\n      swap1\n      swap2\n      and\n      swap2\n      dup6\n      and\n      swap2\n      swap1\n      swap2\n      or\n      swap1\n      sstore\n        /* \"@openzeppelin/contracts-upgradeable/proxy/utils/Initializable.sol\":3647:3746   */\n      dup1\n      iszero\n      tag_260\n      jumpi\n        /* \"@openzeppelin/contracts-upgradeable/proxy/utils/Initializable.sol\":3681:3694   */\n      0x01\n        /* \"@openzeppelin/contracts-upgradeable/proxy/utils/Initializable.sol\":3681:3702   */\n      dup1\n      sload\n      not(0xff00)\n      and\n      dup2\n      sstore\n        /* \"@openzeppelin/contracts-upgradeable/proxy/utils/Initializable.sol\":3721:3735   */\n      mload(0x40)\n        /* \"#utility.yul\":13072:13108   */\n      swap1\n      dup2\n      mstore\n        /* \"@openzeppelin/contracts-upgradeable/proxy/utils/Initializable.sol\":3721:3735   */\n      0x7f26b83ff96e1f2b6a682f133852f6798a09c465da95921460cefb3847402498\n      swap1\n        /* \"#utility.yul\":13060:13062   */\n      0x20\n        /* \"#utility.yul\":13045:13063   */\n      add\n        /* \"@openzeppelin/contracts-upgradeable/proxy/utils/Initializable.sol\":3721:3735   */\n      tag_230\n        /* \"#utility.yul\":12920:13114   */\n      jump\n        /* \"CourseContract.sol\":4895:5449  function passStudent(address _account) external onlyRole(TEACHER){... */\n    tag_128:\n        /* \"CourseContract.sol\":2497:2517  keccak256(\"TEACHER\") */\n      0x534b5b9fe29299d99ea2855da6940643d68ed225db268dc8d86c1f38df5de794\n        /* \"@openzeppelin/contracts/access/AccessControl.sol\":2505:2521   */\n      tag_315\n        /* \"@openzeppelin/contracts/access/AccessControl.sol\":2516:2520   */\n      dup2\n        /* \"@openzeppelin/contracts/access/AccessControl.sol\":2505:2515   */\n      tag_217\n        /* \"@openzeppelin/contracts/access/AccessControl.sol\":2505:2521   */\n      jump\t// in\n    tag_315:\n      sub(shl(0xa0, 0x01), 0x01)\n        /* \"@openzeppelin/contracts/access/AccessControl.sol\":3004:3033   */\n      dup3\n      and\n        /* \"@openzeppelin/contracts/access/AccessControl.sol\":2981:2985   */\n      0x00\n        /* \"@openzeppelin/contracts/access/AccessControl.sol\":3004:3033   */\n      swap1\n      dup2\n      mstore\n        /* \"@openzeppelin/contracts/access/AccessControl.sol\":3004:3016   */\n      0xf53340aa310a9e3c37f9f5b4aadf1810fa110ccc43b59edd5f638eb6c7aabd36\n      0x20\n        /* \"@openzeppelin/contracts/access/AccessControl.sol\":3004:3033   */\n      mstore\n        /* \"@openzeppelin/contracts/access/AccessControl.sol\":3004:3016   */\n      0x40\n        /* \"@openzeppelin/contracts/access/AccessControl.sol\":3004:3033   */\n      swap1\n      keccak256\n      sload\n      0xff\n      and\n        /* \"CourseContract.sol\":4970:5022  require(hasRole(STUDENT, _account),\"Not a student!\") */\n      tag_318\n      jumpi\n      mload(0x40)\n      shl(0xe5, 0x461bcd)\n      dup2\n      mstore\n        /* \"#utility.yul\":13321:13323   */\n      0x20\n        /* \"CourseContract.sol\":4970:5022  require(hasRole(STUDENT, _account),\"Not a student!\") */\n      0x04\n      dup3\n      add\n        /* \"#utility.yul\":13303:13324   */\n      mstore\n        /* \"#utility.yul\":13360:13362   */\n      0x0e\n        /* \"#utility.yul\":13340:13358   */\n      0x24\n      dup3\n      add\n        /* \"#utility.yul\":13333:13363   */\n      mstore\n        /* \"#utility.yul\":13399:13415   */\n      0x4e6f7420612073747564656e7421000000000000000000000000000000000000\n        /* \"#utility.yul\":13379:13397   */\n      0x44\n      dup3\n      add\n        /* \"#utility.yul\":13372:13416   */\n      mstore\n        /* \"#utility.yul\":13433:13451   */\n      0x64\n      add\n        /* \"CourseContract.sol\":4970:5022  require(hasRole(STUDENT, _account),\"Not a student!\") */\n      tag_220\n        /* \"#utility.yul\":13119:13457   */\n      jump\n        /* \"CourseContract.sol\":4970:5022  require(hasRole(STUDENT, _account),\"Not a student!\") */\n    tag_318:\n        /* \"CourseContract.sol\":5040:5052  courseStatus */\n      0x01\n      dup1\n      sload\n      0x010000\n      swap1\n      div\n      0xff\n      and\n        /* \"CourseContract.sol\":5040:5058  courseStatus==true */\n      iszero\n      iszero\n      eq\n        /* \"CourseContract.sol\":5032:5059  require(courseStatus==true) */\n      tag_321\n      jumpi\n      0x00\n      dup1\n      revert\n    tag_321:\n      sub(shl(0xa0, 0x01), 0x01)\n        /* \"CourseContract.sol\":5069:5094  courseCompleted[_account] */\n      dup3\n      and\n      0x00\n      dup2\n      dup2\n      mstore\n        /* \"CourseContract.sol\":5069:5084  courseCompleted */\n      0x0e\n        /* \"CourseContract.sol\":5069:5094  courseCompleted[_account] */\n      0x20\n      mstore\n      0x40\n      dup1\n      dup3\n      keccak256\n        /* \"CourseContract.sol\":5069:5099  courseCompleted[_account]=true */\n      dup1\n      sload\n      not(0xff)\n      and\n        /* \"CourseContract.sol\":5095:5099  true */\n      0x01\n        /* \"CourseContract.sol\":5069:5099  courseCompleted[_account]=true */\n      swap1\n      dup2\n      or\n      swap1\n      swap2\n      sstore\n        /* \"CourseContract.sol\":5109:5129  paymentStatus = true */\n      dup1\n      sload\n      not(0xff000000)\n      and\n      0x01000000\n      or\n      swap1\n      sstore\n        /* \"CourseContract.sol\":5109:5122  paymentStatus */\n      0x03\n        /* \"CourseContract.sol\":5211:5223  studentStake */\n      sload\n        /* \"CourseContract.sol\":5190:5228  _account.call{value: studentStake}(\"\") */\n      swap1\n      mload\n        /* \"CourseContract.sol\":5069:5094  courseCompleted[_account] */\n      swap2\n      swap3\n      swap2\n        /* \"CourseContract.sol\":5190:5228  _account.call{value: studentStake}(\"\") */\n      0x00\n      mload(0x40)\n      dup1\n      dup4\n      sub\n      dup2\n      dup6\n      dup8\n      gas\n      call\n      swap3\n      pop\n      pop\n      pop\n      returndatasize\n      dup1\n      0x00\n      dup2\n      eq\n      tag_325\n      jumpi\n      mload(0x40)\n      swap2\n      pop\n      and(add(returndatasize, 0x3f), not(0x1f))\n      dup3\n      add\n      0x40\n      mstore\n      returndatasize\n      dup3\n      mstore\n      returndatasize\n      0x00\n      0x20\n      dup5\n      add\n      returndatacopy\n      jump(tag_324)\n    tag_325:\n      0x60\n      swap2\n      pop\n    tag_324:\n      pop\n        /* \"CourseContract.sol\":5171:5228  (bool success, ) = _account.call{value: studentStake}(\"\") */\n      pop\n      swap1\n      pop\n        /* \"CourseContract.sol\":5246:5253  success */\n      dup1\n        /* \"CourseContract.sol\":5238:5294  require(success, \"Failed to send stake back to student\") */\n      tag_326\n      jumpi\n      mload(0x40)\n      shl(0xe5, 0x461bcd)\n      dup2\n      mstore\n        /* \"#utility.yul\":13664:13666   */\n      0x20\n        /* \"CourseContract.sol\":5238:5294  require(success, \"Failed to send stake back to student\") */\n      0x04\n      dup3\n      add\n        /* \"#utility.yul\":13646:13667   */\n      mstore\n        /* \"#utility.yul\":13703:13705   */\n      0x24\n        /* \"#utility.yul\":13683:13701   */\n      dup1\n      dup3\n      add\n        /* \"#utility.yul\":13676:13706   */\n      mstore\n        /* \"#utility.yul\":13742:13776   */\n      0x4661696c656420746f2073656e64207374616b65206261636b20746f20737475\n        /* \"#utility.yul\":13722:13740   */\n      0x44\n      dup3\n      add\n        /* \"#utility.yul\":13715:13777   */\n      mstore\n      shl(0xe2, 0x19195b9d)\n        /* \"#utility.yul\":13793:13811   */\n      0x64\n      dup3\n      add\n        /* \"#utility.yul\":13786:13820   */\n      mstore\n        /* \"#utility.yul\":13837:13856   */\n      0x84\n      add\n        /* \"CourseContract.sol\":5238:5294  require(success, \"Failed to send stake back to student\") */\n      tag_220\n        /* \"#utility.yul\":13462:13862   */\n      jump\n        /* \"CourseContract.sol\":5238:5294  require(success, \"Failed to send stake back to student\") */\n    tag_326:\n        /* \"CourseContract.sol\":5304:5311  factory */\n      sload(0x10)\n        /* \"CourseContract.sol\":5355:5367  studentStake */\n      sload(0x03)\n        /* \"CourseContract.sol\":5304:5368  factory.updateStudentCourses(msg.sender, _account, studentStake) */\n      mload(0x40)\n      shl(0xe1, 0x5c924ba1)\n      dup2\n      mstore\n        /* \"CourseContract.sol\":5333:5343  msg.sender */\n      caller\n        /* \"CourseContract.sol\":5304:5368  factory.updateStudentCourses(msg.sender, _account, studentStake) */\n      0x04\n      dup3\n      add\n        /* \"#utility.yul\":14130:14164   */\n      mstore\n      sub(shl(0xa0, 0x01), 0x01)\n        /* \"#utility.yul\":14200:14215   */\n      dup7\n      dup2\n      and\n        /* \"#utility.yul\":14180:14198   */\n      0x24\n      dup4\n      add\n        /* \"#utility.yul\":14173:14216   */\n      mstore\n        /* \"#utility.yul\":14232:14250   */\n      0x44\n      dup3\n      add\n        /* \"#utility.yul\":14225:14259   */\n      swap3\n      swap1\n      swap3\n      mstore\n        /* \"CourseContract.sol\":5304:5311  factory */\n      swap2\n      and\n      swap1\n        /* \"CourseContract.sol\":5304:5332  factory.updateStudentCourses */\n      0xb9249742\n      swap1\n        /* \"#utility.yul\":14042:14060   */\n      0x64\n      add\n        /* \"CourseContract.sol\":5304:5368  factory.updateStudentCourses(msg.sender, _account, studentStake) */\n      0x00\n      mload(0x40)\n      dup1\n      dup4\n      sub\n      dup2\n      0x00\n      dup8\n      dup1\n      extcodesize\n      iszero\n      dup1\n      iszero\n      tag_331\n      jumpi\n      0x00\n      dup1\n      revert\n    tag_331:\n      pop\n      gas\n      call\n      iszero\n      dup1\n      iszero\n      tag_333\n      jumpi\n      returndatasize\n      0x00\n      dup1\n      returndatacopy\n      revert(0x00, returndatasize)\n    tag_333:\n      pop\n      pop\n        /* \"CourseContract.sol\":5383:5402  PaymentStatus(true) */\n      mload(0x40)\n        /* \"CourseContract.sol\":5397:5401  true */\n      0x01\n        /* \"#utility.yul\":445:486   */\n      dup2\n      mstore\n        /* \"CourseContract.sol\":5383:5402  PaymentStatus(true) */\n      0x0e5fda8e788ab9be7c3068babfffe1846f9ad5fcfe7a684af4a7ae7842a47a4a\n      swap3\n      pop\n        /* \"#utility.yul\":433:435   */\n      0x20\n        /* \"#utility.yul\":418:436   */\n      add\n      swap1\n      pop\n        /* \"CourseContract.sol\":5383:5402  PaymentStatus(true) */\n      mload(0x40)\n      dup1\n      swap2\n      sub\n      swap1\n      log1\n        /* \"CourseContract.sol\":5417:5442  CourseCompleted(_account) */\n      mload(0x40)\n      sub(shl(0xa0, 0x01), 0x01)\n      dup5\n      and\n      swap1\n      0xe43ca6e7f4a14343afa9e106f02218cd6cbcbfa00762bcec9000291df6a7387c\n      swap1\n      0x00\n      swap1\n      log2\n        /* \"CourseContract.sol\":4960:5449  {... */\n      pop\n        /* \"CourseContract.sol\":4895:5449  function passStudent(address _account) external onlyRole(TEACHER){... */\n      pop\n      pop\n      jump\t// out\n        /* \"CourseContract.sol\":5531:5924  function bootStudent(address _account) external onlyRole(TEACHER){... */\n    tag_141:\n        /* \"CourseContract.sol\":2497:2517  keccak256(\"TEACHER\") */\n      0x534b5b9fe29299d99ea2855da6940643d68ed225db268dc8d86c1f38df5de794\n        /* \"@openzeppelin/contracts/access/AccessControl.sol\":2505:2521   */\n      tag_336\n        /* \"@openzeppelin/contracts/access/AccessControl.sol\":2516:2520   */\n      dup2\n        /* \"@openzeppelin/contracts/access/AccessControl.sol\":2505:2515   */\n      tag_217\n        /* \"@openzeppelin/contracts/access/AccessControl.sol\":2505:2521   */\n      jump\t// in\n    tag_336:\n      sub(shl(0xa0, 0x01), 0x01)\n        /* \"@openzeppelin/contracts/access/AccessControl.sol\":3004:3033   */\n      dup3\n      and\n        /* \"@openzeppelin/contracts/access/AccessControl.sol\":2981:2985   */\n      0x00\n        /* \"@openzeppelin/contracts/access/AccessControl.sol\":3004:3033   */\n      swap1\n      dup2\n      mstore\n        /* \"@openzeppelin/contracts/access/AccessControl.sol\":3004:3016   */\n      0xf53340aa310a9e3c37f9f5b4aadf1810fa110ccc43b59edd5f638eb6c7aabd36\n      0x20\n        /* \"@openzeppelin/contracts/access/AccessControl.sol\":3004:3033   */\n      mstore\n        /* \"@openzeppelin/contracts/access/AccessControl.sol\":3004:3016   */\n      0x40\n        /* \"@openzeppelin/contracts/access/AccessControl.sol\":3004:3033   */\n      swap1\n      keccak256\n      sload\n      0xff\n      and\n        /* \"CourseContract.sol\":5606:5670  require(hasRole(STUDENT, _account),\"Address is not enrolled :/\") */\n      tag_339\n      jumpi\n      mload(0x40)\n      shl(0xe5, 0x461bcd)\n      dup2\n      mstore\n        /* \"#utility.yul\":14472:14474   */\n      0x20\n        /* \"CourseContract.sol\":5606:5670  require(hasRole(STUDENT, _account),\"Address is not enrolled :/\") */\n      0x04\n      dup3\n      add\n        /* \"#utility.yul\":14454:14475   */\n      mstore\n        /* \"#utility.yul\":14511:14513   */\n      0x1a\n        /* \"#utility.yul\":14491:14509   */\n      0x24\n      dup3\n      add\n        /* \"#utility.yul\":14484:14514   */\n      mstore\n        /* \"#utility.yul\":14550:14578   */\n      0x41646472657373206973206e6f7420656e726f6c6c6564203a2f000000000000\n        /* \"#utility.yul\":14530:14548   */\n      0x44\n      dup3\n      add\n        /* \"#utility.yul\":14523:14579   */\n      mstore\n        /* \"#utility.yul\":14596:14614   */\n      0x64\n      add\n        /* \"CourseContract.sol\":5606:5670  require(hasRole(STUDENT, _account),\"Address is not enrolled :/\") */\n      tag_220\n        /* \"#utility.yul\":14270:14620   */\n      jump\n        /* \"CourseContract.sol\":5606:5670  require(hasRole(STUDENT, _account),\"Address is not enrolled :/\") */\n    tag_339:\n        /* \"CourseContract.sol\":5680:5710  _revokeRole(STUDENT, _account) */\n      tag_342\n        /* \"CourseContract.sol\":2630:2650  keccak256(\"STUDENT\") */\n      0xc951d7098b66ba0b8b77265b6e9cf0e187d73125a42bcd0061b09a68be421810\n        /* \"CourseContract.sol\":5701:5709  _account */\n      dup4\n        /* \"CourseContract.sol\":5680:5691  _revokeRole */\n      tag_250\n        /* \"CourseContract.sol\":5680:5710  _revokeRole(STUDENT, _account) */\n      jump\t// in\n    tag_342:\n        /* \"CourseContract.sol\":5739:5755  peaceAntzCouncil */\n      sload(0x0a)\n        /* \"CourseContract.sol\":5768:5780  studentStake */\n      sload(0x03)\n        /* \"CourseContract.sol\":5739:5785  peaceAntzCouncil.call{value: studentStake}(\"\") */\n      mload(0x40)\n        /* \"CourseContract.sol\":5721:5733  bool success */\n      0x00\n      swap3\n      sub(shl(0xa0, 0x01), 0x01)\n        /* \"CourseContract.sol\":5739:5755  peaceAntzCouncil */\n      and\n      swap2\n        /* \"CourseContract.sol\":5768:5780  studentStake */\n      swap1\n        /* \"CourseContract.sol\":5721:5733  bool success */\n      dup4\n        /* \"CourseContract.sol\":5739:5785  peaceAntzCouncil.call{value: studentStake}(\"\") */\n      dup2\n        /* \"CourseContract.sol\":5721:5733  bool success */\n      dup2\n        /* \"CourseContract.sol\":5739:5785  peaceAntzCouncil.call{value: studentStake}(\"\") */\n      dup2\n        /* \"CourseContract.sol\":5768:5780  studentStake */\n      dup6\n        /* \"CourseContract.sol\":5739:5755  peaceAntzCouncil */\n      dup8\n        /* \"CourseContract.sol\":5739:5785  peaceAntzCouncil.call{value: studentStake}(\"\") */\n      gas\n      call\n      swap3\n      pop\n      pop\n      pop\n      returndatasize\n      dup1\n      0x00\n      dup2\n      eq\n      tag_346\n      jumpi\n      mload(0x40)\n      swap2\n      pop\n      and(add(returndatasize, 0x3f), not(0x1f))\n      dup3\n      add\n      0x40\n      mstore\n      returndatasize\n      dup3\n      mstore\n      returndatasize\n      0x00\n      0x20\n      dup5\n      add\n      returndatacopy\n      jump(tag_345)\n    tag_346:\n      0x60\n      swap2\n      pop\n    tag_345:\n      pop\n        /* \"CourseContract.sol\":5720:5785  (bool success, ) = peaceAntzCouncil.call{value: studentStake}(\"\") */\n      pop\n      swap1\n      pop\n        /* \"CourseContract.sol\":5803:5810  success */\n      dup1\n        /* \"CourseContract.sol\":5795:5833  require(success, \"Failed to boot >:(\") */\n      tag_347\n      jumpi\n      mload(0x40)\n      shl(0xe5, 0x461bcd)\n      dup2\n      mstore\n        /* \"#utility.yul\":14827:14829   */\n      0x20\n        /* \"CourseContract.sol\":5795:5833  require(success, \"Failed to boot >:(\") */\n      0x04\n      dup3\n      add\n        /* \"#utility.yul\":14809:14830   */\n      mstore\n        /* \"#utility.yul\":14866:14868   */\n      0x12\n        /* \"#utility.yul\":14846:14864   */\n      0x24\n      dup3\n      add\n        /* \"#utility.yul\":14839:14869   */\n      mstore\n        /* \"#utility.yul\":14905:14925   */\n      0x4661696c656420746f20626f6f74203e3a280000000000000000000000000000\n        /* \"#utility.yul\":14885:14903   */\n      0x44\n      dup3\n      add\n        /* \"#utility.yul\":14878:14926   */\n      mstore\n        /* \"#utility.yul\":14943:14961   */\n      0x64\n      add\n        /* \"CourseContract.sol\":5795:5833  require(success, \"Failed to boot >:(\") */\n      tag_220\n        /* \"#utility.yul\":14625:14967   */\n      jump\n        /* \"CourseContract.sol\":5795:5833  require(success, \"Failed to boot >:(\") */\n    tag_347:\n        /* \"CourseContract.sol\":5843:5850  factory */\n      sload(0x10)\n        /* \"CourseContract.sol\":5872:5884  studentStake */\n      sload(0x03)\n        /* \"CourseContract.sol\":5843:5885  factory.updateBoot(_account, studentStake) */\n      mload(0x40)\n      shl(0xe0, 0xd5e136f1)\n      dup2\n      mstore\n      sub(shl(0xa0, 0x01), 0x01)\n        /* \"#utility.yul\":9861:9916   */\n      dup7\n      dup2\n      and\n        /* \"CourseContract.sol\":5843:5885  factory.updateBoot(_account, studentStake) */\n      0x04\n      dup4\n      add\n        /* \"#utility.yul\":9843:9917   */\n      mstore\n        /* \"#utility.yul\":9933:9951   */\n      0x24\n      dup3\n      add\n        /* \"#utility.yul\":9926:9960   */\n      swap3\n      swap1\n      swap3\n      mstore\n        /* \"CourseContract.sol\":5843:5850  factory */\n      swap2\n      and\n      swap1\n        /* \"CourseContract.sol\":5843:5861  factory.updateBoot */\n      0xd5e136f1\n      swap1\n        /* \"#utility.yul\":9816:9834   */\n      0x44\n      add\n        /* \"CourseContract.sol\":5843:5885  factory.updateBoot(_account, studentStake) */\n      0x00\n      mload(0x40)\n      dup1\n      dup4\n      sub\n      dup2\n      0x00\n      dup8\n      dup1\n      extcodesize\n      iszero\n      dup1\n      iszero\n      tag_351\n      jumpi\n      0x00\n      dup1\n      revert\n    tag_351:\n      pop\n      gas\n      call\n      iszero\n      dup1\n      iszero\n      tag_353\n      jumpi\n      returndatasize\n      0x00\n      dup1\n      returndatacopy\n      revert(0x00, returndatasize)\n    tag_353:\n      pop\n      pop\n        /* \"CourseContract.sol\":5900:5917  DropOut(_account) */\n      mload(0x40)\n      sub(shl(0xa0, 0x01), 0x01)\n      dup7\n      and\n      swap3\n      pop\n      0xe1722977903518c8963f6ab648a2693b25e00e4e3e8ee0a47a8f4319965e7a06\n      swap2\n      pop\n      0x00\n      swap1\n      log2\n        /* \"CourseContract.sol\":5596:5924  {... */\n      pop\n        /* \"CourseContract.sol\":5531:5924  function bootStudent(address _account) external onlyRole(TEACHER){... */\n      pop\n      pop\n      jump\t// out\n        /* \"CourseContract.sol\":9091:10440  function sponsor() external payable {... */\n    tag_143:\n        /* \"CourseContract.sol\":9145:9157  courseStatus */\n      sload(0x01)\n      0x010000\n      swap1\n      div\n      0xff\n      and\n        /* \"CourseContract.sol\":9145:9166  courseStatus == false */\n      iszero\n        /* \"CourseContract.sol\":9137:9196  require(courseStatus == false, \"Course has already begun.\") */\n      tag_355\n      jumpi\n      mload(0x40)\n      shl(0xe5, 0x461bcd)\n      dup2\n      mstore\n        /* \"#utility.yul\":15174:15176   */\n      0x20\n        /* \"CourseContract.sol\":9137:9196  require(courseStatus == false, \"Course has already begun.\") */\n      0x04\n      dup3\n      add\n        /* \"#utility.yul\":15156:15177   */\n      mstore\n        /* \"#utility.yul\":15213:15215   */\n      0x19\n        /* \"#utility.yul\":15193:15211   */\n      0x24\n      dup3\n      add\n        /* \"#utility.yul\":15186:15216   */\n      mstore\n        /* \"#utility.yul\":15252:15279   */\n      0x436f757273652068617320616c726561647920626567756e2e00000000000000\n        /* \"#utility.yul\":15232:15250   */\n      0x44\n      dup3\n      add\n        /* \"#utility.yul\":15225:15280   */\n      mstore\n        /* \"#utility.yul\":15297:15315   */\n      0x64\n      add\n        /* \"CourseContract.sol\":9137:9196  require(courseStatus == false, \"Course has already begun.\") */\n      tag_220\n        /* \"#utility.yul\":14972:15321   */\n      jump\n        /* \"CourseContract.sol\":9137:9196  require(courseStatus == false, \"Course has already begun.\") */\n    tag_355:\n        /* \"CourseContract.sol\":9224:9240  sponsorshipTotal */\n      sload(0x04)\n        /* \"CourseContract.sol\":9214:9221  payment */\n      sload(0x02)\n        /* \"CourseContract.sol\":9214:9240  payment > sponsorshipTotal */\n      gt\n        /* \"CourseContract.sol\":9206:9278  require(payment > sponsorshipTotal, \"This course is fully sponsored :)\") */\n      tag_358\n      jumpi\n      mload(0x40)\n      shl(0xe5, 0x461bcd)\n      dup2\n      mstore\n        /* \"#utility.yul\":15528:15530   */\n      0x20\n        /* \"CourseContract.sol\":9206:9278  require(payment > sponsorshipTotal, \"This course is fully sponsored :)\") */\n      0x04\n      dup3\n      add\n        /* \"#utility.yul\":15510:15531   */\n      mstore\n        /* \"#utility.yul\":15567:15569   */\n      0x21\n        /* \"#utility.yul\":15547:15565   */\n      0x24\n      dup3\n      add\n        /* \"#utility.yul\":15540:15570   */\n      mstore\n        /* \"#utility.yul\":15606:15640   */\n      0x5468697320636f757273652069732066756c6c792073706f6e736f726564203a\n        /* \"#utility.yul\":15586:15604   */\n      0x44\n      dup3\n      add\n        /* \"#utility.yul\":15579:15641   */\n      mstore\n      shl(0xf8, 0x29)\n        /* \"#utility.yul\":15657:15675   */\n      0x64\n      dup3\n      add\n        /* \"#utility.yul\":15650:15681   */\n      mstore\n        /* \"#utility.yul\":15698:15717   */\n      0x84\n      add\n        /* \"CourseContract.sol\":9206:9278  require(payment > sponsorshipTotal, \"This course is fully sponsored :)\") */\n      tag_220\n        /* \"#utility.yul\":15326:15723   */\n      jump\n        /* \"CourseContract.sol\":9206:9278  require(payment > sponsorshipTotal, \"This course is fully sponsored :)\") */\n    tag_358:\n        /* \"CourseContract.sol\":9308:9309  0 */\n      0x00\n        /* \"CourseContract.sol\":9296:9305  msg.value */\n      callvalue\n        /* \"CourseContract.sol\":9296:9309  msg.value > 0 */\n      gt\n        /* \"CourseContract.sol\":9288:9353  require(msg.value > 0, \"Please input amount you wish to sponsor\") */\n      tag_361\n      jumpi\n      mload(0x40)\n      shl(0xe5, 0x461bcd)\n      dup2\n      mstore\n        /* \"#utility.yul\":15930:15932   */\n      0x20\n        /* \"CourseContract.sol\":9288:9353  require(msg.value > 0, \"Please input amount you wish to sponsor\") */\n      0x04\n      dup3\n      add\n        /* \"#utility.yul\":15912:15933   */\n      mstore\n        /* \"#utility.yul\":15969:15971   */\n      0x27\n        /* \"#utility.yul\":15949:15967   */\n      0x24\n      dup3\n      add\n        /* \"#utility.yul\":15942:15972   */\n      mstore\n        /* \"#utility.yul\":16008:16042   */\n      0x506c6561736520696e70757420616d6f756e7420796f75207769736820746f20\n        /* \"#utility.yul\":15988:16006   */\n      0x44\n      dup3\n      add\n        /* \"#utility.yul\":15981:16043   */\n      mstore\n        /* \"#utility.yul\":16079:16088   */\n      0x73706f6e736f7200000000000000000000000000000000000000000000000000\n        /* \"#utility.yul\":16059:16077   */\n      0x64\n      dup3\n      add\n        /* \"#utility.yul\":16052:16089   */\n      mstore\n        /* \"#utility.yul\":16106:16125   */\n      0x84\n      add\n        /* \"CourseContract.sol\":9288:9353  require(msg.value > 0, \"Please input amount you wish to sponsor\") */\n      tag_220\n        /* \"#utility.yul\":15728:16131   */\n      jump\n        /* \"CourseContract.sol\":9288:9353  require(msg.value > 0, \"Please input amount you wish to sponsor\") */\n    tag_361:\n        /* \"CourseContract.sol\":9395:9411  sponsorshipTotal */\n      sload(0x04)\n        /* \"CourseContract.sol\":9385:9392  payment */\n      sload(0x02)\n        /* \"CourseContract.sol\":9385:9411  payment - sponsorshipTotal */\n      tag_364\n      swap2\n      swap1\n      tag_365\n      jump\t// in\n    tag_364:\n        /* \"CourseContract.sol\":9371:9380  msg.value */\n      callvalue\n        /* \"CourseContract.sol\":9371:9412  msg.value <= (payment - sponsorshipTotal) */\n      gt\n      iszero\n        /* \"CourseContract.sol\":9363:9467  require(msg.value <= (payment - sponsorshipTotal), \"Please input the Sponsorship amount needed or less\") */\n      tag_366\n      jumpi\n      mload(0x40)\n      shl(0xe5, 0x461bcd)\n      dup2\n      mstore\n        /* \"#utility.yul\":16603:16605   */\n      0x20\n        /* \"CourseContract.sol\":9363:9467  require(msg.value <= (payment - sponsorshipTotal), \"Please input the Sponsorship amount needed or less\") */\n      0x04\n      dup3\n      add\n        /* \"#utility.yul\":16585:16606   */\n      mstore\n        /* \"#utility.yul\":16642:16644   */\n      0x32\n        /* \"#utility.yul\":16622:16640   */\n      0x24\n      dup3\n      add\n        /* \"#utility.yul\":16615:16645   */\n      mstore\n        /* \"#utility.yul\":16681:16715   */\n      0x506c6561736520696e707574207468652053706f6e736f727368697020616d6f\n        /* \"#utility.yul\":16661:16679   */\n      0x44\n      dup3\n      add\n        /* \"#utility.yul\":16654:16716   */\n      mstore\n        /* \"#utility.yul\":16752:16772   */\n      0x756e74206e6565646564206f72206c6573730000000000000000000000000000\n        /* \"#utility.yul\":16732:16750   */\n      0x64\n      dup3\n      add\n        /* \"#utility.yul\":16725:16773   */\n      mstore\n        /* \"#utility.yul\":16790:16809   */\n      0x84\n      add\n        /* \"CourseContract.sol\":9363:9467  require(msg.value <= (payment - sponsorshipTotal), \"Please input the Sponsorship amount needed or less\") */\n      tag_220\n        /* \"#utility.yul\":16401:16815   */\n      jump\n        /* \"CourseContract.sol\":9363:9467  require(msg.value <= (payment - sponsorshipTotal), \"Please input the Sponsorship amount needed or less\") */\n    tag_366:\n        /* \"CourseContract.sol\":9530:9551  bool isAlreadySponsor */\n      0x00\n        /* \"CourseContract.sol\":9574:9580  uint i */\n      dup1\n        /* \"CourseContract.sol\":9569:9746  for (uint i = 0; i < sponsors.length; i++) {... */\n    tag_369:\n        /* \"CourseContract.sol\":9590:9598  sponsors */\n      0x08\n        /* \"CourseContract.sol\":9590:9605  sponsors.length */\n      sload\n        /* \"CourseContract.sol\":9586:9605  i < sponsors.length */\n      dup2\n      lt\n        /* \"CourseContract.sol\":9569:9746  for (uint i = 0; i < sponsors.length; i++) {... */\n      iszero\n      tag_370\n      jumpi\n        /* \"CourseContract.sol\":9645:9655  msg.sender */\n      caller\n      sub(shl(0xa0, 0x01), 0x01)\n        /* \"CourseContract.sol\":9630:9655  sponsors[i] == msg.sender */\n      and\n        /* \"CourseContract.sol\":9630:9638  sponsors */\n      0x08\n        /* \"CourseContract.sol\":9639:9640  i */\n      dup3\n        /* \"CourseContract.sol\":9630:9641  sponsors[i] */\n      dup2\n      sload\n      dup2\n      lt\n      tag_373\n      jumpi\n      tag_373\n      tag_374\n      jump\t// in\n    tag_373:\n      0x00\n      swap2\n      dup3\n      mstore\n      0x20\n      swap1\n      swap2\n      keccak256\n      add\n      sload\n      sub(shl(0xa0, 0x01), 0x01)\n      and\n        /* \"CourseContract.sol\":9630:9655  sponsors[i] == msg.sender */\n      sub\n        /* \"CourseContract.sol\":9626:9736  if (sponsors[i] == msg.sender) {... */\n      tag_376\n      jumpi\n        /* \"CourseContract.sol\":9694:9698  true */\n      0x01\n        /* \"CourseContract.sol\":9675:9698  isAlreadySponsor = true */\n      swap2\n      pop\n        /* \"CourseContract.sol\":9716:9721  break */\n      jump(tag_370)\n        /* \"CourseContract.sol\":9626:9736  if (sponsors[i] == msg.sender) {... */\n    tag_376:\n        /* \"CourseContract.sol\":9607:9610  i++ */\n      dup1\n      tag_377\n      dup2\n      tag_378\n      jump\t// in\n    tag_377:\n      swap2\n      pop\n      pop\n        /* \"CourseContract.sol\":9569:9746  for (uint i = 0; i < sponsors.length; i++) {... */\n      jump(tag_369)\n    tag_370:\n      pop\n        /* \"CourseContract.sol\":9838:9854  isAlreadySponsor */\n      dup1\n        /* \"CourseContract.sol\":9833:9951  if (!isAlreadySponsor) {... */\n      tag_379\n      jumpi\n        /* \"CourseContract.sol\":9870:9901  _grantRole(SPONSOR, msg.sender) */\n      tag_380\n        /* \"CourseContract.sol\":2763:2783  keccak256(\"SPONSOR\") */\n      0x5f0a5f78118b6e0b700e0357ae3909aaafe8fa706a075935688657cf4135f9a9\n        /* \"CourseContract.sol\":9890:9900  msg.sender */\n      caller\n        /* \"CourseContract.sol\":9870:9880  _grantRole */\n      tag_261\n        /* \"CourseContract.sol\":9870:9901  _grantRole(SPONSOR, msg.sender) */\n      jump\t// in\n    tag_380:\n        /* \"CourseContract.sol\":9915:9923  sponsors */\n      0x08\n        /* \"CourseContract.sol\":9915:9940  sponsors.push(msg.sender) */\n      dup1\n      sload\n      0x01\n      dup2\n      add\n      dup3\n      sstore\n      0x00\n      swap2\n      swap1\n      swap2\n      mstore\n      0xf3f7a9fe364faab93b216da50a3214154f22a0a2b415b23a84c8169e8b636ee3\n      add\n      dup1\n      sload\n      not(0xffffffffffffffffffffffffffffffffffffffff)\n      and\n        /* \"CourseContract.sol\":9929:9939  msg.sender */\n      caller\n        /* \"CourseContract.sol\":9915:9940  sponsors.push(msg.sender) */\n      or\n      swap1\n      sstore\n        /* \"CourseContract.sol\":9833:9951  if (!isAlreadySponsor) {... */\n    tag_379:\n        /* \"CourseContract.sol\":9998:10008  msg.sender */\n      caller\n        /* \"CourseContract.sol\":9961:9980  uint currentDeposit */\n      0x00\n        /* \"CourseContract.sol\":9983:10009  sponsorDeposit[msg.sender] */\n      swap1\n      dup2\n      mstore\n        /* \"CourseContract.sol\":9983:9997  sponsorDeposit */\n      0x0d\n        /* \"CourseContract.sol\":9983:10009  sponsorDeposit[msg.sender] */\n      0x20\n      mstore\n      0x40\n      dup2\n      keccak256\n      sload\n        /* \"CourseContract.sol\":9983:10021  sponsorDeposit[msg.sender] + msg.value */\n      tag_382\n      swap1\n        /* \"CourseContract.sol\":10012:10021  msg.value */\n      callvalue\n      swap1\n        /* \"CourseContract.sol\":9983:10021  sponsorDeposit[msg.sender] + msg.value */\n      tag_383\n      jump\t// in\n    tag_382:\n        /* \"CourseContract.sol\":9961:10021  uint currentDeposit = sponsorDeposit[msg.sender] + msg.value */\n      swap1\n      pop\n        /* \"CourseContract.sol\":10031:10053  uint _sponsorshipTotal */\n      0x00\n        /* \"CourseContract.sol\":10075:10084  msg.value */\n      callvalue\n        /* \"CourseContract.sol\":10056:10072  sponsorshipTotal */\n      sload(0x04)\n        /* \"CourseContract.sol\":10056:10084  sponsorshipTotal + msg.value */\n      tag_384\n      swap2\n      swap1\n      tag_383\n      jump\t// in\n    tag_384:\n        /* \"CourseContract.sol\":10031:10084  uint _sponsorshipTotal = sponsorshipTotal + msg.value */\n      swap1\n      pop\n        /* \"CourseContract.sol\":10122:10138  sponsorshipTotal */\n      sload(0x04)\n        /* \"CourseContract.sol\":10101:10118  _sponsorshipTotal */\n      dup2\n        /* \"CourseContract.sol\":10101:10138  _sponsorshipTotal >= sponsorshipTotal */\n      lt\n      iszero\n        /* \"CourseContract.sol\":10094:10139  assert(_sponsorshipTotal >= sponsorshipTotal) */\n      tag_386\n      jumpi\n      tag_386\n      tag_387\n      jump\t// in\n    tag_386:\n        /* \"CourseContract.sol\":10149:10165  sponsorshipTotal */\n      0x04\n        /* \"CourseContract.sol\":10149:10185  sponsorshipTotal = _sponsorshipTotal */\n      dup2\n      dup2\n      sstore\n        /* \"CourseContract.sol\":10210:10220  msg.sender */\n      caller\n        /* \"CourseContract.sol\":10195:10221  sponsorDeposit[msg.sender] */\n      0x00\n      dup2\n      dup2\n      mstore\n        /* \"CourseContract.sol\":10195:10209  sponsorDeposit */\n      0x0d\n        /* \"CourseContract.sol\":10195:10221  sponsorDeposit[msg.sender] */\n      0x20\n      mstore\n      0x40\n      swap1\n      dup2\n      swap1\n      keccak256\n        /* \"CourseContract.sol\":10195:10238  sponsorDeposit[msg.sender] = currentDeposit */\n      dup6\n      swap1\n      sstore\n        /* \"CourseContract.sol\":10317:10324  factory */\n      sload(0x10)\n        /* \"CourseContract.sol\":10317:10380  factory.updateSponsorship(msg.sender, address(this), msg.value) */\n      swap1\n      mload\n      shl(0xe1, 0x12bf5ec9)\n      dup2\n      mstore\n      swap3\n      dup4\n      add\n        /* \"#utility.yul\":14130:14164   */\n      swap2\n      swap1\n      swap2\n      mstore\n        /* \"CourseContract.sol\":10363:10367  this */\n      address\n        /* \"#utility.yul\":14180:14198   */\n      0x24\n      dup4\n      add\n        /* \"#utility.yul\":14173:14216   */\n      mstore\n        /* \"CourseContract.sol\":10370:10379  msg.value */\n      callvalue\n        /* \"#utility.yul\":14232:14250   */\n      0x44\n      dup4\n      add\n        /* \"#utility.yul\":14225:14259   */\n      mstore\n      sub(shl(0xa0, 0x01), 0x01)\n        /* \"CourseContract.sol\":10317:10324  factory */\n      and\n      swap1\n        /* \"CourseContract.sol\":10317:10342  factory.updateSponsorship */\n      0x257ebd92\n      swap1\n        /* \"#utility.yul\":14042:14060   */\n      0x64\n      add\n        /* \"CourseContract.sol\":10317:10380  factory.updateSponsorship(msg.sender, address(this), msg.value) */\n      0x00\n      mload(0x40)\n      dup1\n      dup4\n      sub\n      dup2\n      0x00\n      dup8\n      dup1\n      extcodesize\n      iszero\n      dup1\n      iszero\n      tag_389\n      jumpi\n      0x00\n      dup1\n      revert\n    tag_389:\n      pop\n      gas\n      call\n      iszero\n      dup1\n      iszero\n      tag_391\n      jumpi\n      returndatasize\n      0x00\n      dup1\n      returndatacopy\n      revert(0x00, returndatasize)\n    tag_391:\n      pop\n      pop\n        /* \"CourseContract.sol\":10396:10433  Sponsored(currentDeposit, msg.sender) */\n      mload(0x40)\n        /* \"CourseContract.sol\":10422:10432  msg.sender */\n      caller\n        /* \"#utility.yul\":828:902   */\n      dup2\n      mstore\n        /* \"CourseContract.sol\":10406:10420  currentDeposit */\n      dup5\n      swap3\n      pop\n        /* \"CourseContract.sol\":10396:10433  Sponsored(currentDeposit, msg.sender) */\n      0x55370c12b8f214ca7b1b758b035231bbf6e98114fb08765921705df59b42ae22\n      swap2\n      pop\n        /* \"#utility.yul\":816:818   */\n      0x20\n        /* \"#utility.yul\":801:819   */\n      add\n        /* \"CourseContract.sol\":10396:10433  Sponsored(currentDeposit, msg.sender) */\n      mload(0x40)\n      dup1\n      swap2\n      sub\n      swap1\n      log2\n        /* \"CourseContract.sol\":9127:10440  {... */\n      pop\n      pop\n      pop\n        /* \"CourseContract.sol\":9091:10440  function sponsor() external payable {... */\n      jump\t// out\n        /* \"CourseContract.sol\":10526:11529  function unsponsor(address payable _to, uint _amount) external payable onlyRole(SPONSOR){... */\n    tag_147:\n        /* \"CourseContract.sol\":2763:2783  keccak256(\"SPONSOR\") */\n      0x5f0a5f78118b6e0b700e0357ae3909aaafe8fa706a075935688657cf4135f9a9\n        /* \"@openzeppelin/contracts/access/AccessControl.sol\":2505:2521   */\n      tag_394\n        /* \"@openzeppelin/contracts/access/AccessControl.sol\":2516:2520   */\n      dup2\n        /* \"@openzeppelin/contracts/access/AccessControl.sol\":2505:2515   */\n      tag_217\n        /* \"@openzeppelin/contracts/access/AccessControl.sol\":2505:2521   */\n      jump\t// in\n    tag_394:\n        /* \"CourseContract.sol\":10632:10644  courseStatus */\n      sload(0x01)\n      0x010000\n      swap1\n      div\n      0xff\n      and\n        /* \"CourseContract.sol\":10632:10653  courseStatus == false */\n      iszero\n        /* \"CourseContract.sol\":10624:10683  require(courseStatus == false, \"Course has already begun.\") */\n      tag_396\n      jumpi\n      mload(0x40)\n      shl(0xe5, 0x461bcd)\n      dup2\n      mstore\n        /* \"#utility.yul\":15174:15176   */\n      0x20\n        /* \"CourseContract.sol\":10624:10683  require(courseStatus == false, \"Course has already begun.\") */\n      0x04\n      dup3\n      add\n        /* \"#utility.yul\":15156:15177   */\n      mstore\n        /* \"#utility.yul\":15213:15215   */\n      0x19\n        /* \"#utility.yul\":15193:15211   */\n      0x24\n      dup3\n      add\n        /* \"#utility.yul\":15186:15216   */\n      mstore\n        /* \"#utility.yul\":15252:15279   */\n      0x436f757273652068617320616c726561647920626567756e2e00000000000000\n        /* \"#utility.yul\":15232:15250   */\n      0x44\n      dup3\n      add\n        /* \"#utility.yul\":15225:15280   */\n      mstore\n        /* \"#utility.yul\":15297:15315   */\n      0x64\n      add\n        /* \"CourseContract.sol\":10624:10683  require(courseStatus == false, \"Course has already begun.\") */\n      tag_220\n        /* \"#utility.yul\":14972:15321   */\n      jump\n        /* \"CourseContract.sol\":10624:10683  require(courseStatus == false, \"Course has already begun.\") */\n    tag_396:\n        /* \"CourseContract.sol\":10709:10710  0 */\n      0x00\n        /* \"CourseContract.sol\":10701:10708  _amount */\n      dup3\n        /* \"CourseContract.sol\":10701:10710  _amount>0 */\n      gt\n        /* \"CourseContract.sol\":10693:10749  require(_amount>0,\"Please input an amount to unsponsor\") */\n      tag_398\n      jumpi\n      mload(0x40)\n      shl(0xe5, 0x461bcd)\n      dup2\n      mstore\n        /* \"#utility.yul\":17556:17558   */\n      0x20\n        /* \"CourseContract.sol\":10693:10749  require(_amount>0,\"Please input an amount to unsponsor\") */\n      0x04\n      dup3\n      add\n        /* \"#utility.yul\":17538:17559   */\n      mstore\n        /* \"#utility.yul\":17595:17597   */\n      0x23\n        /* \"#utility.yul\":17575:17593   */\n      0x24\n      dup3\n      add\n        /* \"#utility.yul\":17568:17598   */\n      mstore\n        /* \"#utility.yul\":17634:17668   */\n      0x506c6561736520696e70757420616e20616d6f756e7420746f20756e73706f6e\n        /* \"#utility.yul\":17614:17632   */\n      0x44\n      dup3\n      add\n        /* \"#utility.yul\":17607:17669   */\n      mstore\n      shl(0xe9, 0x39b7b9)\n        /* \"#utility.yul\":17685:17703   */\n      0x64\n      dup3\n      add\n        /* \"#utility.yul\":17678:17711   */\n      mstore\n        /* \"#utility.yul\":17728:17747   */\n      0x84\n      add\n        /* \"CourseContract.sol\":10693:10749  require(_amount>0,\"Please input an amount to unsponsor\") */\n      tag_220\n        /* \"#utility.yul\":17354:17753   */\n      jump\n        /* \"CourseContract.sol\":10693:10749  require(_amount>0,\"Please input an amount to unsponsor\") */\n    tag_398:\n      sub(shl(0xa0, 0x01), 0x01)\n        /* \"CourseContract.sol\":10776:10795  sponsorDeposit[_to] */\n      dup4\n      and\n      0x00\n      swap1\n      dup2\n      mstore\n        /* \"CourseContract.sol\":10776:10790  sponsorDeposit */\n      0x0d\n        /* \"CourseContract.sol\":10776:10795  sponsorDeposit[_to] */\n      0x20\n      mstore\n      0x40\n      swap1\n      keccak256\n      sload\n        /* \"CourseContract.sol\":10767:10795  _amount<=sponsorDeposit[_to] */\n      dup3\n      gt\n      iszero\n        /* \"CourseContract.sol\":10759:10836  require(_amount<=sponsorDeposit[_to], \"That is more than you have sponsored\") */\n      tag_401\n      jumpi\n      mload(0x40)\n      shl(0xe5, 0x461bcd)\n      dup2\n      mstore\n        /* \"#utility.yul\":17960:17962   */\n      0x20\n        /* \"CourseContract.sol\":10759:10836  require(_amount<=sponsorDeposit[_to], \"That is more than you have sponsored\") */\n      0x04\n      dup3\n      add\n        /* \"#utility.yul\":17942:17963   */\n      mstore\n        /* \"#utility.yul\":17999:18001   */\n      0x24\n        /* \"#utility.yul\":17979:17997   */\n      dup1\n      dup3\n      add\n        /* \"#utility.yul\":17972:18002   */\n      mstore\n        /* \"#utility.yul\":18038:18072   */\n      0x54686174206973206d6f7265207468616e20796f7520686176652073706f6e73\n        /* \"#utility.yul\":18018:18036   */\n      0x44\n      dup3\n      add\n        /* \"#utility.yul\":18011:18073   */\n      mstore\n      shl(0xe2, 0x1bdc9959)\n        /* \"#utility.yul\":18089:18107   */\n      0x64\n      dup3\n      add\n        /* \"#utility.yul\":18082:18116   */\n      mstore\n        /* \"#utility.yul\":18133:18152   */\n      0x84\n      add\n        /* \"CourseContract.sol\":10759:10836  require(_amount<=sponsorDeposit[_to], \"That is more than you have sponsored\") */\n      tag_220\n        /* \"#utility.yul\":17758:18158   */\n      jump\n        /* \"CourseContract.sol\":10759:10836  require(_amount<=sponsorDeposit[_to], \"That is more than you have sponsored\") */\n    tag_401:\n      sub(shl(0xa0, 0x01), 0x01)\n        /* \"CourseContract.sol\":10854:10871  _to == msg.sender */\n      dup4\n      and\n        /* \"CourseContract.sol\":10861:10871  msg.sender */\n      caller\n        /* \"CourseContract.sol\":10854:10871  _to == msg.sender */\n      eq\n        /* \"CourseContract.sol\":10846:10913  require(_to == msg.sender,\"You are not the owner of this address.\") */\n      tag_404\n      jumpi\n      mload(0x40)\n      shl(0xe5, 0x461bcd)\n      dup2\n      mstore\n        /* \"#utility.yul\":18365:18367   */\n      0x20\n        /* \"CourseContract.sol\":10846:10913  require(_to == msg.sender,\"You are not the owner of this address.\") */\n      0x04\n      dup3\n      add\n        /* \"#utility.yul\":18347:18368   */\n      mstore\n        /* \"#utility.yul\":18404:18406   */\n      0x26\n        /* \"#utility.yul\":18384:18402   */\n      0x24\n      dup3\n      add\n        /* \"#utility.yul\":18377:18407   */\n      mstore\n        /* \"#utility.yul\":18443:18477   */\n      0x596f7520617265206e6f7420746865206f776e6572206f662074686973206164\n        /* \"#utility.yul\":18423:18441   */\n      0x44\n      dup3\n      add\n        /* \"#utility.yul\":18416:18478   */\n      mstore\n        /* \"#utility.yul\":18514:18522   */\n      0x64726573732e0000000000000000000000000000000000000000000000000000\n        /* \"#utility.yul\":18494:18512   */\n      0x64\n      dup3\n      add\n        /* \"#utility.yul\":18487:18523   */\n      mstore\n        /* \"#utility.yul\":18540:18559   */\n      0x84\n      add\n        /* \"CourseContract.sol\":10846:10913  require(_to == msg.sender,\"You are not the owner of this address.\") */\n      tag_220\n        /* \"#utility.yul\":18163:18565   */\n      jump\n        /* \"CourseContract.sol\":10846:10913  require(_to == msg.sender,\"You are not the owner of this address.\") */\n    tag_404:\n        /* \"CourseContract.sol\":10925:10937  bool success */\n      0x00\n        /* \"CourseContract.sol\":10943:10946  _to */\n      dup4\n      sub(shl(0xa0, 0x01), 0x01)\n        /* \"CourseContract.sol\":10943:10951  _to.call */\n      and\n        /* \"CourseContract.sol\":10959:10966  _amount */\n      dup4\n        /* \"CourseContract.sol\":10943:10971  _to.call{value: _amount}(\"\") */\n      mload(0x40)\n      0x00\n      mload(0x40)\n      dup1\n      dup4\n      sub\n      dup2\n      dup6\n      dup8\n      gas\n      call\n      swap3\n      pop\n      pop\n      pop\n      returndatasize\n      dup1\n      0x00\n      dup2\n      eq\n      tag_410\n      jumpi\n      mload(0x40)\n      swap2\n      pop\n      and(add(returndatasize, 0x3f), not(0x1f))\n      dup3\n      add\n      0x40\n      mstore\n      returndatasize\n      dup3\n      mstore\n      returndatasize\n      0x00\n      0x20\n      dup5\n      add\n      returndatacopy\n      jump(tag_409)\n    tag_410:\n      0x60\n      swap2\n      pop\n    tag_409:\n      pop\n        /* \"CourseContract.sol\":10924:10971  (bool success, ) = _to.call{value: _amount}(\"\") */\n      pop\n      swap1\n      pop\n        /* \"CourseContract.sol\":10989:10996  success */\n      dup1\n        /* \"CourseContract.sol\":10981:11022  require(success, \"Failed to withdraw :(\") */\n      tag_411\n      jumpi\n      mload(0x40)\n      shl(0xe5, 0x461bcd)\n      dup2\n      mstore\n        /* \"#utility.yul\":12055:12057   */\n      0x20\n        /* \"CourseContract.sol\":10981:11022  require(success, \"Failed to withdraw :(\") */\n      0x04\n      dup3\n      add\n        /* \"#utility.yul\":12037:12058   */\n      mstore\n        /* \"#utility.yul\":12094:12096   */\n      0x15\n        /* \"#utility.yul\":12074:12092   */\n      0x24\n      dup3\n      add\n        /* \"#utility.yul\":12067:12097   */\n      mstore\n        /* \"#utility.yul\":12133:12156   */\n      0x4661696c656420746f207769746864726177203a280000000000000000000000\n        /* \"#utility.yul\":12113:12131   */\n      0x44\n      dup3\n      add\n        /* \"#utility.yul\":12106:12157   */\n      mstore\n        /* \"#utility.yul\":12174:12192   */\n      0x64\n      add\n        /* \"CourseContract.sol\":10981:11022  require(success, \"Failed to withdraw :(\") */\n      tag_220\n        /* \"#utility.yul\":11853:12198   */\n      jump\n        /* \"CourseContract.sol\":10981:11022  require(success, \"Failed to withdraw :(\") */\n    tag_411:\n      sub(shl(0xa0, 0x01), 0x01)\n        /* \"CourseContract.sol\":11055:11074  sponsorDeposit[_to] */\n      dup5\n      and\n        /* \"CourseContract.sol\":11033:11052  uint currentDeposit */\n      0x00\n        /* \"CourseContract.sol\":11055:11074  sponsorDeposit[_to] */\n      swap1\n      dup2\n      mstore\n        /* \"CourseContract.sol\":11055:11069  sponsorDeposit */\n      0x0d\n        /* \"CourseContract.sol\":11055:11074  sponsorDeposit[_to] */\n      0x20\n      mstore\n      0x40\n      dup2\n      keccak256\n      sload\n        /* \"CourseContract.sol\":11055:11084  sponsorDeposit[_to] - _amount */\n      tag_413\n      swap1\n        /* \"CourseContract.sol\":11077:11084  _amount */\n      dup6\n      swap1\n        /* \"CourseContract.sol\":11055:11084  sponsorDeposit[_to] - _amount */\n      tag_365\n      jump\t// in\n    tag_413:\n      sub(shl(0xa0, 0x01), 0x01)\n        /* \"CourseContract.sol\":11119:11138  sponsorDeposit[_to] */\n      dup7\n      and\n      0x00\n      swap1\n      dup2\n      mstore\n        /* \"CourseContract.sol\":11119:11133  sponsorDeposit */\n      0x0d\n        /* \"CourseContract.sol\":11119:11138  sponsorDeposit[_to] */\n      0x20\n      mstore\n      0x40\n      swap1\n      keccak256\n      sload\n        /* \"CourseContract.sol\":11033:11084  uint currentDeposit = sponsorDeposit[_to] - _amount */\n      swap1\n      swap2\n      pop\n        /* \"CourseContract.sol\":11101:11138  currentDeposit <= sponsorDeposit[_to] */\n      dup2\n      gt\n      iszero\n        /* \"CourseContract.sol\":11094:11139  assert(currentDeposit <= sponsorDeposit[_to]) */\n      tag_415\n      jumpi\n      tag_415\n      tag_387\n      jump\t// in\n    tag_415:\n        /* \"CourseContract.sol\":11149:11171  uint _sponsorshipTotal */\n      0x00\n        /* \"CourseContract.sol\":11193:11200  _amount */\n      dup5\n        /* \"CourseContract.sol\":11174:11190  sponsorshipTotal */\n      sload(0x04)\n        /* \"CourseContract.sol\":11174:11200  sponsorshipTotal - _amount */\n      tag_416\n      swap2\n      swap1\n      tag_365\n      jump\t// in\n    tag_416:\n        /* \"CourseContract.sol\":11149:11200  uint _sponsorshipTotal = sponsorshipTotal - _amount */\n      swap1\n      pop\n        /* \"CourseContract.sol\":11238:11254  sponsorshipTotal */\n      sload(0x04)\n        /* \"CourseContract.sol\":11217:11234  _sponsorshipTotal */\n      dup2\n        /* \"CourseContract.sol\":11217:11254  _sponsorshipTotal <= sponsorshipTotal */\n      gt\n      iszero\n        /* \"CourseContract.sol\":11210:11255  assert(_sponsorshipTotal <= sponsorshipTotal) */\n      tag_418\n      jumpi\n      tag_418\n      tag_387\n      jump\t// in\n    tag_418:\n        /* \"CourseContract.sol\":11265:11281  sponsorshipTotal */\n      0x04\n        /* \"CourseContract.sol\":11265:11301  sponsorshipTotal = _sponsorshipTotal */\n      dup2\n      dup2\n      sstore\n      sub(shl(0xa0, 0x01), 0x01)\n        /* \"CourseContract.sol\":11311:11330  sponsorDeposit[_to] */\n      dup8\n      dup2\n      and\n      0x00\n      swap1\n      dup2\n      mstore\n        /* \"CourseContract.sol\":11311:11325  sponsorDeposit */\n      0x0d\n        /* \"CourseContract.sol\":11311:11330  sponsorDeposit[_to] */\n      0x20\n      mstore\n      0x40\n      swap1\n      dup2\n      swap1\n      keccak256\n        /* \"CourseContract.sol\":11311:11345  sponsorDeposit[_to]=currentDeposit */\n      dup6\n      swap1\n      sstore\n        /* \"CourseContract.sol\":11355:11362  factory */\n      sload(0x10)\n        /* \"CourseContract.sol\":11355:11399  factory.updateUnsponsor(msg.sender, _amount) */\n      swap1\n      mload\n      shl(0xe1, 0x52dbfbab)\n      dup2\n      mstore\n        /* \"CourseContract.sol\":11379:11389  msg.sender */\n      caller\n        /* \"CourseContract.sol\":11355:11399  factory.updateUnsponsor(msg.sender, _amount) */\n      swap4\n      dup2\n      add\n        /* \"#utility.yul\":9843:9917   */\n      swap4\n      swap1\n      swap4\n      mstore\n        /* \"#utility.yul\":9933:9951   */\n      0x24\n      dup4\n      add\n        /* \"#utility.yul\":9926:9960   */\n      dup9\n      swap1\n      mstore\n        /* \"CourseContract.sol\":11355:11362  factory */\n      and\n      swap1\n        /* \"CourseContract.sol\":11355:11378  factory.updateUnsponsor */\n      0xa5b7f756\n      swap1\n        /* \"#utility.yul\":9816:9834   */\n      0x44\n      add\n        /* \"CourseContract.sol\":11355:11399  factory.updateUnsponsor(msg.sender, _amount) */\n      0x00\n      mload(0x40)\n      dup1\n      dup4\n      sub\n      dup2\n      0x00\n      dup8\n      dup1\n      extcodesize\n      iszero\n      dup1\n      iszero\n      tag_420\n      jumpi\n      0x00\n      dup1\n      revert\n    tag_420:\n      pop\n      gas\n      call\n      iszero\n      dup1\n      iszero\n      tag_422\n      jumpi\n      returndatasize\n      0x00\n      dup1\n      returndatacopy\n      revert(0x00, returndatasize)\n    tag_422:\n      pop\n      pop\n      pop\n      pop\n      sub(shl(0xa0, 0x01), 0x01)\n        /* \"CourseContract.sol\":11413:11432  sponsorDeposit[_to] */\n      dup7\n      and\n      0x00\n      swap1\n      dup2\n      mstore\n        /* \"CourseContract.sol\":11413:11427  sponsorDeposit */\n      0x0d\n        /* \"CourseContract.sol\":11413:11432  sponsorDeposit[_to] */\n      0x20\n      mstore\n      0x40\n      dup2\n      keccak256\n      sload\n        /* \"CourseContract.sol\":11413:11437  sponsorDeposit[_to] == 0 */\n      swap1\n      sub\n        /* \"CourseContract.sol\":11409:11523  if (sponsorDeposit[_to] == 0){... */\n      tag_423\n      jumpi\n        /* \"CourseContract.sol\":11448:11473  _revokeRole(SPONSOR, _to) */\n      tag_424\n        /* \"CourseContract.sol\":2763:2783  keccak256(\"SPONSOR\") */\n      0x5f0a5f78118b6e0b700e0357ae3909aaafe8fa706a075935688657cf4135f9a9\n        /* \"CourseContract.sol\":11469:11472  _to */\n      dup8\n        /* \"CourseContract.sol\":11448:11459  _revokeRole */\n      tag_250\n        /* \"CourseContract.sol\":11448:11473  _revokeRole(SPONSOR, _to) */\n      jump\t// in\n    tag_424:\n        /* \"CourseContract.sol\":11488:11512  RevokeRole(SPONSOR, _to) */\n      0x40\n      dup1\n      mload\n        /* \"CourseContract.sol\":2763:2783  keccak256(\"SPONSOR\") */\n      0x5f0a5f78118b6e0b700e0357ae3909aaafe8fa706a075935688657cf4135f9a9\n        /* \"#utility.yul\":12377:12402   */\n      dup2\n      mstore\n      sub(shl(0xa0, 0x01), 0x01)\n        /* \"#utility.yul\":12438:12493   */\n      dup9\n      and\n        /* \"#utility.yul\":12433:12435   */\n      0x20\n        /* \"#utility.yul\":12418:12436   */\n      dup3\n      add\n        /* \"#utility.yul\":12411:12494   */\n      mstore\n        /* \"CourseContract.sol\":11488:11512  RevokeRole(SPONSOR, _to) */\n      0x76e6093c136cd7faa5a6d92b2b633f3b4595abd4a529b7a13917398355fea694\n      swap2\n        /* \"#utility.yul\":12350:12368   */\n      add\n        /* \"CourseContract.sol\":11488:11512  RevokeRole(SPONSOR, _to) */\n      mload(0x40)\n      dup1\n      swap2\n      sub\n      swap1\n      log1\n        /* \"CourseContract.sol\":11409:11523  if (sponsorDeposit[_to] == 0){... */\n    tag_423:\n        /* \"CourseContract.sol\":10614:11529  {... */\n      pop\n      pop\n      pop\n        /* \"CourseContract.sol\":10526:11529  function unsponsor(address payable _to, uint _amount) external payable onlyRole(SPONSOR){... */\n      pop\n      pop\n      pop\n      jump\t// out\n        /* \"CourseContract.sol\":1010:1035  address[] public sponsors */\n    tag_164:\n      0x08\n      dup2\n      dup2\n      sload\n      dup2\n      lt\n      tag_213\n      jumpi\n      0x00\n      dup1\n      revert\n        /* \"CourseContract.sol\":3567:4225  function updateCourseStatus() external onlyRole(TEACHER){... */\n    tag_176:\n        /* \"CourseContract.sol\":2497:2517  keccak256(\"TEACHER\") */\n      0x534b5b9fe29299d99ea2855da6940643d68ed225db268dc8d86c1f38df5de794\n        /* \"@openzeppelin/contracts/access/AccessControl.sol\":2505:2521   */\n      tag_431\n        /* \"@openzeppelin/contracts/access/AccessControl.sol\":2516:2520   */\n      dup2\n        /* \"@openzeppelin/contracts/access/AccessControl.sol\":2505:2515   */\n      tag_217\n        /* \"@openzeppelin/contracts/access/AccessControl.sol\":2505:2521   */\n      jump\t// in\n    tag_431:\n        /* \"CourseContract.sol\":3641:3653  courseStatus */\n      sload(0x01)\n      0x010000\n      swap1\n      div\n      0xff\n      and\n        /* \"CourseContract.sol\":3641:3660  courseStatus==false */\n      iszero\n        /* \"CourseContract.sol\":3633:3661  require(courseStatus==false) */\n      tag_433\n      jumpi\n      0x00\n      dup1\n      revert\n    tag_433:\n        /* \"CourseContract.sol\":3679:3692  paymentStatus */\n      0x01\n      dup1\n      sload\n      0x01000000\n      swap1\n      div\n      0xff\n      and\n        /* \"CourseContract.sol\":3679:3698  paymentStatus==true */\n      iszero\n      iszero\n      eq\n        /* \"CourseContract.sol\":3671:3699  require(paymentStatus==true) */\n      tag_434\n      jumpi\n      0x00\n      dup1\n      revert\n    tag_434:\n        /* \"CourseContract.sol\":3728:3744  sponsorshipTotal */\n      sload(0x04)\n        /* \"CourseContract.sol\":3717:3724  payment */\n      sload(0x02)\n        /* \"CourseContract.sol\":3717:3744  payment == sponsorshipTotal */\n      eq\n        /* \"CourseContract.sol\":3709:3794  require(payment == sponsorshipTotal, \"Course is has not been fully sponsored yet :(\") */\n      tag_435\n      jumpi\n      mload(0x40)\n      shl(0xe5, 0x461bcd)\n      dup2\n      mstore\n        /* \"#utility.yul\":19082:19084   */\n      0x20\n        /* \"CourseContract.sol\":3709:3794  require(payment == sponsorshipTotal, \"Course is has not been fully sponsored yet :(\") */\n      0x04\n      dup3\n      add\n        /* \"#utility.yul\":19064:19085   */\n      mstore\n        /* \"#utility.yul\":19121:19123   */\n      0x2d\n        /* \"#utility.yul\":19101:19119   */\n      0x24\n      dup3\n      add\n        /* \"#utility.yul\":19094:19124   */\n      mstore\n        /* \"#utility.yul\":19160:19194   */\n      0x436f7572736520697320686173206e6f74206265656e2066756c6c792073706f\n        /* \"#utility.yul\":19140:19158   */\n      0x44\n      dup3\n      add\n        /* \"#utility.yul\":19133:19195   */\n      mstore\n        /* \"#utility.yul\":19231:19246   */\n      0x6e736f72656420796574203a2800000000000000000000000000000000000000\n        /* \"#utility.yul\":19211:19229   */\n      0x64\n      dup3\n      add\n        /* \"#utility.yul\":19204:19247   */\n      mstore\n        /* \"#utility.yul\":19264:19283   */\n      0x84\n      add\n        /* \"CourseContract.sol\":3709:3794  require(payment == sponsorshipTotal, \"Course is has not been fully sponsored yet :(\") */\n      tag_220\n        /* \"#utility.yul\":18880:19289   */\n      jump\n        /* \"CourseContract.sol\":3709:3794  require(payment == sponsorshipTotal, \"Course is has not been fully sponsored yet :(\") */\n    tag_435:\n        /* \"CourseContract.sol\":3804:3824  uint256 studentFunds */\n      0x00\n        /* \"CourseContract.sol\":3851:3867  sponsorshipTotal */\n      sload(0x04)\n        /* \"CourseContract.sol\":3827:3848  address(this).balance */\n      selfbalance\n        /* \"CourseContract.sol\":3827:3867  address(this).balance - sponsorshipTotal */\n      tag_438\n      swap2\n      swap1\n      tag_365\n      jump\t// in\n    tag_438:\n        /* \"CourseContract.sol\":3804:3867  uint256 studentFunds = address(this).balance - sponsorshipTotal */\n      swap1\n      pop\n        /* \"CourseContract.sol\":3901:3913  studentStake */\n      sload(0x03)\n        /* \"CourseContract.sol\":3885:3897  studentFunds */\n      dup2\n        /* \"CourseContract.sol\":3885:3913  studentFunds >= studentStake */\n      lt\n      iszero\n        /* \"CourseContract.sol\":3877:3985  require(studentFunds >= studentStake, \"You need to have at least one Student enrolled to start the Course!\") */\n      tag_439\n      jumpi\n      mload(0x40)\n      shl(0xe5, 0x461bcd)\n      dup2\n      mstore\n        /* \"#utility.yul\":19496:19498   */\n      0x20\n        /* \"CourseContract.sol\":3877:3985  require(studentFunds >= studentStake, \"You need to have at least one Student enrolled to start the Course!\") */\n      0x04\n      dup3\n      add\n        /* \"#utility.yul\":19478:19499   */\n      mstore\n        /* \"#utility.yul\":19535:19537   */\n      0x43\n        /* \"#utility.yul\":19515:19533   */\n      0x24\n      dup3\n      add\n        /* \"#utility.yul\":19508:19538   */\n      mstore\n        /* \"#utility.yul\":19574:19608   */\n      0x596f75206e65656420746f2068617665206174206c65617374206f6e65205374\n        /* \"#utility.yul\":19554:19572   */\n      0x44\n      dup3\n      add\n        /* \"#utility.yul\":19547:19609   */\n      mstore\n        /* \"#utility.yul\":19645:19679   */\n      0x7564656e7420656e726f6c6c656420746f2073746172742074686520436f7572\n        /* \"#utility.yul\":19625:19643   */\n      0x64\n      dup3\n      add\n        /* \"#utility.yul\":19618:19680   */\n      mstore\n      shl(0xe8, 0x736521)\n        /* \"#utility.yul\":19696:19715   */\n      0x84\n      dup3\n      add\n        /* \"#utility.yul\":19689:19723   */\n      mstore\n        /* \"#utility.yul\":19740:19759   */\n      0xa4\n      add\n        /* \"CourseContract.sol\":3877:3985  require(studentFunds >= studentStake, \"You need to have at least one Student enrolled to start the Course!\") */\n      tag_220\n        /* \"#utility.yul\":19294:19765   */\n      jump\n        /* \"CourseContract.sol\":3877:3985  require(studentFunds >= studentStake, \"You need to have at least one Student enrolled to start the Course!\") */\n    tag_439:\n        /* \"CourseContract.sol\":4008:4012  true */\n      0x01\n        /* \"CourseContract.sol\":3995:4012  courseStatus=true */\n      dup1\n      sload\n      not(0xffff0000)\n        /* \"CourseContract.sol\":4022:4041  paymentStatus=false */\n      and\n        /* \"CourseContract.sol\":3995:4012  courseStatus=true */\n      0x010000\n        /* \"CourseContract.sol\":4022:4041  paymentStatus=false */\n      or\n      swap1\n      sstore\n        /* \"CourseContract.sol\":4051:4058  factory */\n      sload(0x10)\n        /* \"CourseContract.sol\":3995:4007  courseStatus */\n      0x02\n        /* \"CourseContract.sol\":4092:4099  payment */\n      sload\n        /* \"CourseContract.sol\":4051:4100  factory.updateTeacherProgress(msg.sender,payment) */\n      mload(0x40)\n      shl(0xe0, 0x2cd35c99)\n      dup2\n      mstore\n        /* \"CourseContract.sol\":4081:4091  msg.sender */\n      caller\n        /* \"CourseContract.sol\":4051:4100  factory.updateTeacherProgress(msg.sender,payment) */\n      0x04\n      dup3\n      add\n        /* \"#utility.yul\":9843:9917   */\n      mstore\n        /* \"#utility.yul\":9933:9951   */\n      0x24\n      dup2\n      add\n        /* \"#utility.yul\":9926:9960   */\n      swap2\n      swap1\n      swap2\n      mstore\n      sub(shl(0xa0, 0x01), 0x01)\n        /* \"CourseContract.sol\":4051:4058  factory */\n      swap1\n      swap2\n      and\n      swap1\n        /* \"CourseContract.sol\":4051:4080  factory.updateTeacherProgress */\n      0x2cd35c99\n      swap1\n        /* \"#utility.yul\":9816:9834   */\n      0x44\n      add\n        /* \"CourseContract.sol\":4051:4100  factory.updateTeacherProgress(msg.sender,payment) */\n      0x00\n      mload(0x40)\n      dup1\n      dup4\n      sub\n      dup2\n      0x00\n      dup8\n      dup1\n      extcodesize\n      iszero\n      dup1\n      iszero\n      tag_443\n      jumpi\n      0x00\n      dup1\n      revert\n    tag_443:\n      pop\n      gas\n      call\n      iszero\n      dup1\n      iszero\n      tag_445\n      jumpi\n      returndatasize\n      0x00\n      dup1\n      returndatacopy\n      revert(0x00, returndatasize)\n    tag_445:\n      pop\n      pop\n        /* \"CourseContract.sol\":4110:4117  factory */\n      sload(0x10)\n        /* \"CourseContract.sol\":4110:4150  factory.updateSponsorsProgress(sponsors) */\n      mload(0x40)\n      shl(0xe0, 0xf34355a9)\n      dup2\n      mstore\n      sub(shl(0xa0, 0x01), 0x01)\n        /* \"CourseContract.sol\":4110:4117  factory */\n      swap1\n      swap2\n      and\n      swap3\n      pop\n        /* \"CourseContract.sol\":4110:4140  factory.updateSponsorsProgress */\n      0xf34355a9\n      swap2\n      pop\n        /* \"CourseContract.sol\":4110:4150  factory.updateSponsorsProgress(sponsors) */\n      tag_446\n      swap1\n        /* \"CourseContract.sol\":4141:4149  sponsors */\n      0x08\n      swap1\n        /* \"CourseContract.sol\":4110:4150  factory.updateSponsorsProgress(sponsors) */\n      0x04\n      add\n      tag_447\n      jump\t// in\n    tag_446:\n      0x00\n      mload(0x40)\n      dup1\n      dup4\n      sub\n      dup2\n      0x00\n      dup8\n      dup1\n      extcodesize\n      iszero\n      dup1\n      iszero\n      tag_448\n      jumpi\n      0x00\n      dup1\n      revert\n    tag_448:\n      pop\n      gas\n      call\n      iszero\n      dup1\n      iszero\n      tag_450\n      jumpi\n      returndatasize\n      0x00\n      dup1\n      returndatacopy\n      revert(0x00, returndatasize)\n    tag_450:\n      pop\n      pop\n        /* \"CourseContract.sol\":4165:4183  CourseStatus(true) */\n      mload(0x40)\n        /* \"CourseContract.sol\":4178:4182  true */\n      0x01\n        /* \"#utility.yul\":445:486   */\n      dup2\n      mstore\n        /* \"CourseContract.sol\":4165:4183  CourseStatus(true) */\n      0x892b130b262705d95cf1801b6fbf10c8b36dbdb5a00b82185a0f194495805023\n      swap3\n      pop\n        /* \"#utility.yul\":433:435   */\n      0x20\n        /* \"#utility.yul\":418:436   */\n      add\n      swap1\n      pop\n        /* \"CourseContract.sol\":4165:4183  CourseStatus(true) */\n      mload(0x40)\n      dup1\n      swap2\n      sub\n      swap1\n      log1\n        /* \"CourseContract.sol\":4198:4218  PaymentStatus(false) */\n      mload(0x40)\n        /* \"CourseContract.sol\":4212:4217  false */\n      0x00\n        /* \"#utility.yul\":445:486   */\n      dup2\n      mstore\n        /* \"CourseContract.sol\":4198:4218  PaymentStatus(false) */\n      0x0e5fda8e788ab9be7c3068babfffe1846f9ad5fcfe7a684af4a7ae7842a47a4a\n      swap1\n        /* \"#utility.yul\":433:435   */\n      0x20\n        /* \"#utility.yul\":418:436   */\n      add\n        /* \"CourseContract.sol\":4198:4218  PaymentStatus(false) */\n      mload(0x40)\n      dup1\n      swap2\n      sub\n      swap1\n      log1\n        /* \"CourseContract.sol\":3623:4225  {... */\n      pop\n        /* \"CourseContract.sol\":3567:4225  function updateCourseStatus() external onlyRole(TEACHER){... */\n      pop\n      jump\t// out\n        /* \"CourseContract.sol\":6022:6664  function claimPayment() external onlyRole(TEACHER){... */\n    tag_187:\n        /* \"CourseContract.sol\":2497:2517  keccak256(\"TEACHER\") */\n      0x534b5b9fe29299d99ea2855da6940643d68ed225db268dc8d86c1f38df5de794\n        /* \"@openzeppelin/contracts/access/AccessControl.sol\":2505:2521   */\n      tag_454\n        /* \"@openzeppelin/contracts/access/AccessControl.sol\":2516:2520   */\n      dup2\n        /* \"@openzeppelin/contracts/access/AccessControl.sol\":2505:2515   */\n      tag_217\n        /* \"@openzeppelin/contracts/access/AccessControl.sol\":2505:2521   */\n      jump\t// in\n    tag_454:\n        /* \"CourseContract.sol\":6090:6102  courseStatus */\n      0x01\n      dup1\n      sload\n      0x010000\n      swap1\n      div\n      0xff\n      and\n        /* \"CourseContract.sol\":6090:6110  courseStatus == true */\n      iszero\n      iszero\n      eq\n        /* \"CourseContract.sol\":6082:6183  require(courseStatus == true,\"You have to start and complete the course to collect sponsor payment.\") */\n      tag_456\n      jumpi\n      mload(0x40)\n      shl(0xe5, 0x461bcd)\n      dup2\n      mstore\n        /* \"#utility.yul\":20766:20768   */\n      0x20\n        /* \"CourseContract.sol\":6082:6183  require(courseStatus == true,\"You have to start and complete the course to collect sponsor payment.\") */\n      0x04\n      dup3\n      add\n        /* \"#utility.yul\":20748:20769   */\n      mstore\n        /* \"#utility.yul\":20805:20807   */\n      0x45\n        /* \"#utility.yul\":20785:20803   */\n      0x24\n      dup3\n      add\n        /* \"#utility.yul\":20778:20808   */\n      mstore\n        /* \"#utility.yul\":20844:20878   */\n      0x596f75206861766520746f20737461727420616e6420636f6d706c6574652074\n        /* \"#utility.yul\":20824:20842   */\n      0x44\n      dup3\n      add\n        /* \"#utility.yul\":20817:20879   */\n      mstore\n        /* \"#utility.yul\":20915:20949   */\n      0x686520636f7572736520746f20636f6c6c6563742073706f6e736f7220706179\n        /* \"#utility.yul\":20895:20913   */\n      0x64\n      dup3\n      add\n        /* \"#utility.yul\":20888:20950   */\n      mstore\n        /* \"#utility.yul\":20987:20994   */\n      0x6d656e742e000000000000000000000000000000000000000000000000000000\n        /* \"#utility.yul\":20966:20985   */\n      0x84\n      dup3\n      add\n        /* \"#utility.yul\":20959:20995   */\n      mstore\n        /* \"#utility.yul\":21012:21031   */\n      0xa4\n      add\n        /* \"CourseContract.sol\":6082:6183  require(courseStatus == true,\"You have to start and complete the course to collect sponsor payment.\") */\n      tag_220\n        /* \"#utility.yul\":20564:21037   */\n      jump\n        /* \"CourseContract.sol\":6082:6183  require(courseStatus == true,\"You have to start and complete the course to collect sponsor payment.\") */\n    tag_456:\n        /* \"CourseContract.sol\":6201:6214  paymentStatus */\n      0x01\n      dup1\n      sload\n      0x01000000\n      swap1\n      div\n      0xff\n      and\n        /* \"CourseContract.sol\":6201:6222  paymentStatus == true */\n      iszero\n      iszero\n      eq\n        /* \"CourseContract.sol\":6193:6271  require(paymentStatus == true,\"Please pass a student to complete the course.\") */\n      tag_459\n      jumpi\n      mload(0x40)\n      shl(0xe5, 0x461bcd)\n      dup2\n      mstore\n        /* \"#utility.yul\":21244:21246   */\n      0x20\n        /* \"CourseContract.sol\":6193:6271  require(paymentStatus == true,\"Please pass a student to complete the course.\") */\n      0x04\n      dup3\n      add\n        /* \"#utility.yul\":21226:21247   */\n      mstore\n        /* \"#utility.yul\":21283:21285   */\n      0x2d\n        /* \"#utility.yul\":21263:21281   */\n      0x24\n      dup3\n      add\n        /* \"#utility.yul\":21256:21286   */\n      mstore\n        /* \"#utility.yul\":21322:21356   */\n      0x506c65617365207061737320612073747564656e7420746f20636f6d706c6574\n        /* \"#utility.yul\":21302:21320   */\n      0x44\n      dup3\n      add\n        /* \"#utility.yul\":21295:21357   */\n      mstore\n        /* \"#utility.yul\":21393:21408   */\n      0x652074686520636f757273652e00000000000000000000000000000000000000\n        /* \"#utility.yul\":21373:21391   */\n      0x64\n      dup3\n      add\n        /* \"#utility.yul\":21366:21409   */\n      mstore\n        /* \"#utility.yul\":21426:21445   */\n      0x84\n      add\n        /* \"CourseContract.sol\":6193:6271  require(paymentStatus == true,\"Please pass a student to complete the course.\") */\n      tag_220\n        /* \"#utility.yul\":21042:21451   */\n      jump\n        /* \"CourseContract.sol\":6193:6271  require(paymentStatus == true,\"Please pass a student to complete the course.\") */\n    tag_459:\n        /* \"CourseContract.sol\":6476:6483  payment */\n      sload(0x02)\n        /* \"CourseContract.sol\":6461:6484  recipient.send(payment) */\n      mload(0x40)\n        /* \"CourseContract.sol\":6364:6374  msg.sender */\n      caller\n      swap2\n        /* \"CourseContract.sol\":6328:6353  address payable recipient */\n      0x00\n      swap2\n        /* \"CourseContract.sol\":6364:6374  msg.sender */\n      dup4\n      swap2\n        /* \"CourseContract.sol\":6461:6484  recipient.send(payment) */\n      dup1\n      iszero\n      0x08fc\n      mul\n      swap2\n        /* \"CourseContract.sol\":6328:6353  address payable recipient */\n      dup5\n        /* \"CourseContract.sol\":6461:6484  recipient.send(payment) */\n      dup2\n        /* \"CourseContract.sol\":6328:6353  address payable recipient */\n      dup2\n        /* \"CourseContract.sol\":6461:6484  recipient.send(payment) */\n      dup2\n        /* \"CourseContract.sol\":6476:6483  payment */\n      dup6\n        /* \"CourseContract.sol\":6364:6374  msg.sender */\n      dup9\n        /* \"CourseContract.sol\":6461:6484  recipient.send(payment) */\n      dup9\n      call\n      swap4\n      pop\n      pop\n      pop\n      pop\n        /* \"CourseContract.sol\":6446:6484  bool success = recipient.send(payment) */\n      swap1\n      pop\n        /* \"CourseContract.sol\":6502:6509  success */\n      dup1\n        /* \"CourseContract.sol\":6494:6532  require(success, \"Failed to claim :(\") */\n      tag_463\n      jumpi\n      mload(0x40)\n      shl(0xe5, 0x461bcd)\n      dup2\n      mstore\n        /* \"#utility.yul\":21658:21660   */\n      0x20\n        /* \"CourseContract.sol\":6494:6532  require(success, \"Failed to claim :(\") */\n      0x04\n      dup3\n      add\n        /* \"#utility.yul\":21640:21661   */\n      mstore\n        /* \"#utility.yul\":21697:21699   */\n      0x12\n        /* \"#utility.yul\":21677:21695   */\n      0x24\n      dup3\n      add\n        /* \"#utility.yul\":21670:21700   */\n      mstore\n        /* \"#utility.yul\":21736:21756   */\n      0x4661696c656420746f20636c61696d203a280000000000000000000000000000\n        /* \"#utility.yul\":21716:21734   */\n      0x44\n      dup3\n      add\n        /* \"#utility.yul\":21709:21757   */\n      mstore\n        /* \"#utility.yul\":21774:21792   */\n      0x64\n      add\n        /* \"CourseContract.sol\":6494:6532  require(success, \"Failed to claim :(\") */\n      tag_220\n        /* \"#utility.yul\":21456:21798   */\n      jump\n        /* \"CourseContract.sol\":6494:6532  require(success, \"Failed to claim :(\") */\n    tag_463:\n        /* \"CourseContract.sol\":6542:6549  factory */\n      sload(0x10)\n        /* \"CourseContract.sol\":6605:6612  payment */\n      sload(0x02)\n        /* \"CourseContract.sol\":6542:6613  factory.updatePaymentRank(msg.sender, sponsors, address(this), payment) */\n      mload(0x40)\n      0xff67ebe800000000000000000000000000000000000000000000000000000000\n      dup2\n      mstore\n      sub(shl(0xa0, 0x01), 0x01)\n        /* \"CourseContract.sol\":6542:6549  factory */\n      swap1\n      swap3\n      and\n      swap2\n        /* \"CourseContract.sol\":6542:6567  factory.updatePaymentRank */\n      0xff67ebe8\n      swap2\n        /* \"CourseContract.sol\":6542:6613  factory.updatePaymentRank(msg.sender, sponsors, address(this), payment) */\n      tag_466\n      swap2\n        /* \"CourseContract.sol\":6568:6578  msg.sender */\n      caller\n      swap2\n        /* \"CourseContract.sol\":6580:6588  sponsors */\n      0x08\n      swap2\n        /* \"CourseContract.sol\":6598:6602  this */\n      address\n      swap2\n        /* \"CourseContract.sol\":6605:6612  payment */\n      swap1\n        /* \"CourseContract.sol\":6542:6613  factory.updatePaymentRank(msg.sender, sponsors, address(this), payment) */\n      0x04\n      add\n      tag_467\n      jump\t// in\n    tag_466:\n      0x00\n      mload(0x40)\n      dup1\n      dup4\n      sub\n      dup2\n      0x00\n      dup8\n      dup1\n      extcodesize\n      iszero\n      dup1\n      iszero\n      tag_468\n      jumpi\n      0x00\n      dup1\n      revert\n    tag_468:\n      pop\n      gas\n      call\n      iszero\n      dup1\n      iszero\n      tag_470\n      jumpi\n      returndatasize\n      0x00\n      dup1\n      returndatacopy\n      revert(0x00, returndatasize)\n    tag_470:\n      pop\n      pop\n      pop\n      pop\n        /* \"CourseContract.sol\":6628:6657  ClaimPayment(block.timestamp) */\n      0x3e773b8609d2fd918870802d374f13aa52a750da3359a51338c769b570c14f6c\n        /* \"CourseContract.sol\":6641:6656  block.timestamp */\n      timestamp\n        /* \"CourseContract.sol\":6628:6657  ClaimPayment(block.timestamp) */\n      mload(0x40)\n      tag_230\n      swap2\n        /* \"#utility.yul\":1059:1084   */\n      dup2\n      mstore\n        /* \"#utility.yul\":1047:1049   */\n      0x20\n        /* \"#utility.yul\":1032:1050   */\n      add\n      swap1\n        /* \"#utility.yul\":913:1090   */\n      jump\n        /* \"@openzeppelin/contracts/access/AccessControl.sol\":5241:5388   */\n    tag_201:\n        /* \"@openzeppelin/contracts/access/AccessControl.sol\":4465:4472   */\n      0x00\n        /* \"@openzeppelin/contracts/access/AccessControl.sol\":4491:4503   */\n      dup3\n      dup2\n      mstore\n      0x20\n      dup2\n      swap1\n      mstore\n      0x40\n      swap1\n      keccak256\n        /* \"@openzeppelin/contracts/access/AccessControl.sol\":4491:4513   */\n      0x01\n      add\n      sload\n        /* \"@openzeppelin/contracts/access/AccessControl.sol\":2505:2521   */\n      tag_474\n        /* \"@openzeppelin/contracts/access/AccessControl.sol\":2516:2520   */\n      dup2\n        /* \"@openzeppelin/contracts/access/AccessControl.sol\":2505:2515   */\n      tag_217\n        /* \"@openzeppelin/contracts/access/AccessControl.sol\":2505:2521   */\n      jump\t// in\n    tag_474:\n        /* \"@openzeppelin/contracts/access/AccessControl.sol\":5355:5381   */\n      tag_260\n        /* \"@openzeppelin/contracts/access/AccessControl.sol\":5367:5371   */\n      dup4\n        /* \"@openzeppelin/contracts/access/AccessControl.sol\":5373:5380   */\n      dup4\n        /* \"@openzeppelin/contracts/access/AccessControl.sol\":5355:5366   */\n      tag_250\n        /* \"@openzeppelin/contracts/access/AccessControl.sol\":5355:5381   */\n      jump\t// in\n        /* \"CourseContract.sol\":6824:7513  function enroll()external payable{... */\n    tag_203:\n        /* \"CourseContract.sol\":6893:6903  msg.sender */\n      caller\n        /* \"@openzeppelin/contracts/access/AccessControl.sol\":2981:2985   */\n      0x00\n        /* \"@openzeppelin/contracts/access/AccessControl.sol\":3004:3033   */\n      swap1\n      dup2\n      mstore\n        /* \"@openzeppelin/contracts/access/AccessControl.sol\":3004:3016   */\n      0x5f071dd6fe62dae2e1cc850ef7d27824ae902f16f686d11a704d6b1e7629bdf9\n      0x20\n        /* \"@openzeppelin/contracts/access/AccessControl.sol\":3004:3033   */\n      mstore\n        /* \"@openzeppelin/contracts/access/AccessControl.sol\":3004:3016   */\n      0x40\n        /* \"@openzeppelin/contracts/access/AccessControl.sol\":3004:3033   */\n      swap1\n      keccak256\n      sload\n      0xff\n      and\n        /* \"CourseContract.sol\":6875:6904  !hasRole(TEACHER, msg.sender) */\n      iszero\n        /* \"CourseContract.sol\":6867:6951  require(!hasRole(TEACHER, msg.sender),\"Teachers cannot enroll in their own course!\") */\n      tag_479\n      jumpi\n      mload(0x40)\n      shl(0xe5, 0x461bcd)\n      dup2\n      mstore\n        /* \"#utility.yul\":22570:22572   */\n      0x20\n        /* \"CourseContract.sol\":6867:6951  require(!hasRole(TEACHER, msg.sender),\"Teachers cannot enroll in their own course!\") */\n      0x04\n      dup3\n      add\n        /* \"#utility.yul\":22552:22573   */\n      mstore\n        /* \"#utility.yul\":22609:22611   */\n      0x2b\n        /* \"#utility.yul\":22589:22607   */\n      0x24\n      dup3\n      add\n        /* \"#utility.yul\":22582:22612   */\n      mstore\n        /* \"#utility.yul\":22648:22682   */\n      0x54656163686572732063616e6e6f7420656e726f6c6c20696e20746865697220\n        /* \"#utility.yul\":22628:22646   */\n      0x44\n      dup3\n      add\n        /* \"#utility.yul\":22621:22683   */\n      mstore\n        /* \"#utility.yul\":22719:22732   */\n      0x6f776e20636f7572736521000000000000000000000000000000000000000000\n        /* \"#utility.yul\":22699:22717   */\n      0x64\n      dup3\n      add\n        /* \"#utility.yul\":22692:22733   */\n      mstore\n        /* \"#utility.yul\":22750:22769   */\n      0x84\n      add\n        /* \"CourseContract.sol\":6867:6951  require(!hasRole(TEACHER, msg.sender),\"Teachers cannot enroll in their own course!\") */\n      tag_220\n        /* \"#utility.yul\":22368:22775   */\n      jump\n        /* \"CourseContract.sol\":6867:6951  require(!hasRole(TEACHER, msg.sender),\"Teachers cannot enroll in their own course!\") */\n    tag_479:\n        /* \"CourseContract.sol\":6969:6981  courseStatus */\n      sload(0x01)\n      0x010000\n      swap1\n      div\n      0xff\n      and\n        /* \"CourseContract.sol\":6969:6990  courseStatus == false */\n      iszero\n        /* \"CourseContract.sol\":6961:7024  require(courseStatus == false, \"Course has already started :(\") */\n      tag_482\n      jumpi\n      mload(0x40)\n      shl(0xe5, 0x461bcd)\n      dup2\n      mstore\n        /* \"#utility.yul\":22982:22984   */\n      0x20\n        /* \"CourseContract.sol\":6961:7024  require(courseStatus == false, \"Course has already started :(\") */\n      0x04\n      dup3\n      add\n        /* \"#utility.yul\":22964:22985   */\n      mstore\n        /* \"#utility.yul\":23021:23023   */\n      0x1d\n        /* \"#utility.yul\":23001:23019   */\n      0x24\n      dup3\n      add\n        /* \"#utility.yul\":22994:23024   */\n      mstore\n        /* \"#utility.yul\":23060:23091   */\n      0x436f757273652068617320616c72656164792073746172746564203a28000000\n        /* \"#utility.yul\":23040:23058   */\n      0x44\n      dup3\n      add\n        /* \"#utility.yul\":23033:23092   */\n      mstore\n        /* \"#utility.yul\":23109:23127   */\n      0x64\n      add\n        /* \"CourseContract.sol\":6961:7024  require(courseStatus == false, \"Course has already started :(\") */\n      tag_220\n        /* \"#utility.yul\":22780:23133   */\n      jump\n        /* \"CourseContract.sol\":6961:7024  require(courseStatus == false, \"Course has already started :(\") */\n    tag_482:\n        /* \"CourseContract.sol\":7061:7071  msg.sender */\n      caller\n        /* \"@openzeppelin/contracts/access/AccessControl.sol\":2981:2985   */\n      0x00\n        /* \"@openzeppelin/contracts/access/AccessControl.sol\":3004:3033   */\n      swap1\n      dup2\n      mstore\n        /* \"@openzeppelin/contracts/access/AccessControl.sol\":3004:3016   */\n      0xf53340aa310a9e3c37f9f5b4aadf1810fa110ccc43b59edd5f638eb6c7aabd36\n      0x20\n        /* \"@openzeppelin/contracts/access/AccessControl.sol\":3004:3033   */\n      mstore\n        /* \"@openzeppelin/contracts/access/AccessControl.sol\":3004:3016   */\n      0x40\n        /* \"@openzeppelin/contracts/access/AccessControl.sol\":3004:3033   */\n      swap1\n      keccak256\n      sload\n      0xff\n      and\n        /* \"CourseContract.sol\":7043:7072  !hasRole(STUDENT, msg.sender) */\n      iszero\n        /* \"CourseContract.sol\":7035:7101  require(!hasRole(STUDENT, msg.sender),\"You are enrolled already!\") */\n      tag_486\n      jumpi\n      mload(0x40)\n      shl(0xe5, 0x461bcd)\n      dup2\n      mstore\n        /* \"#utility.yul\":23340:23342   */\n      0x20\n        /* \"CourseContract.sol\":7035:7101  require(!hasRole(STUDENT, msg.sender),\"You are enrolled already!\") */\n      0x04\n      dup3\n      add\n        /* \"#utility.yul\":23322:23343   */\n      mstore\n        /* \"#utility.yul\":23379:23381   */\n      0x19\n        /* \"#utility.yul\":23359:23377   */\n      0x24\n      dup3\n      add\n        /* \"#utility.yul\":23352:23382   */\n      mstore\n        /* \"#utility.yul\":23418:23445   */\n      0x596f752061726520656e726f6c6c656420616c72656164792100000000000000\n        /* \"#utility.yul\":23398:23416   */\n      0x44\n      dup3\n      add\n        /* \"#utility.yul\":23391:23446   */\n      mstore\n        /* \"#utility.yul\":23463:23481   */\n      0x64\n      add\n        /* \"CourseContract.sol\":7035:7101  require(!hasRole(STUDENT, msg.sender),\"You are enrolled already!\") */\n      tag_220\n        /* \"#utility.yul\":23138:23487   */\n      jump\n        /* \"CourseContract.sol\":7035:7101  require(!hasRole(STUDENT, msg.sender),\"You are enrolled already!\") */\n    tag_486:\n        /* \"CourseContract.sol\":7132:7144  studentStake */\n      sload(0x03)\n        /* \"CourseContract.sol\":7119:7128  msg.value */\n      callvalue\n        /* \"CourseContract.sol\":7119:7144  msg.value == studentStake */\n      eq\n        /* \"CourseContract.sol\":7111:7180  require(msg.value == studentStake, \"Please Stake the Correct Amount\") */\n      tag_489\n      jumpi\n      mload(0x40)\n      shl(0xe5, 0x461bcd)\n      dup2\n      mstore\n        /* \"#utility.yul\":23694:23696   */\n      0x20\n        /* \"CourseContract.sol\":7111:7180  require(msg.value == studentStake, \"Please Stake the Correct Amount\") */\n      0x04\n      dup3\n      add\n        /* \"#utility.yul\":23676:23697   */\n      mstore\n        /* \"#utility.yul\":23733:23735   */\n      0x1f\n        /* \"#utility.yul\":23713:23731   */\n      0x24\n      dup3\n      add\n        /* \"#utility.yul\":23706:23736   */\n      mstore\n        /* \"#utility.yul\":23772:23805   */\n      0x506c65617365205374616b652074686520436f727265637420416d6f756e7400\n        /* \"#utility.yul\":23752:23770   */\n      0x44\n      dup3\n      add\n        /* \"#utility.yul\":23745:23806   */\n      mstore\n        /* \"#utility.yul\":23823:23841   */\n      0x64\n      add\n        /* \"CourseContract.sol\":7111:7180  require(msg.value == studentStake, \"Please Stake the Correct Amount\") */\n      tag_220\n        /* \"#utility.yul\":23492:23847   */\n      jump\n        /* \"CourseContract.sol\":7111:7180  require(msg.value == studentStake, \"Please Stake the Correct Amount\") */\n    tag_489:\n        /* \"CourseContract.sol\":7198:7211  paymentStatus */\n      0x01\n      dup1\n      sload\n      0x01000000\n      swap1\n      div\n      0xff\n      and\n        /* \"CourseContract.sol\":7198:7219  paymentStatus == true */\n      iszero\n      iszero\n      eq\n        /* \"CourseContract.sol\":7190:7241  require(paymentStatus == true, \"Enrollment Closed\") */\n      tag_492\n      jumpi\n      mload(0x40)\n      shl(0xe5, 0x461bcd)\n      dup2\n      mstore\n        /* \"#utility.yul\":24054:24056   */\n      0x20\n        /* \"CourseContract.sol\":7190:7241  require(paymentStatus == true, \"Enrollment Closed\") */\n      0x04\n      dup3\n      add\n        /* \"#utility.yul\":24036:24057   */\n      mstore\n        /* \"#utility.yul\":24093:24095   */\n      0x11\n        /* \"#utility.yul\":24073:24091   */\n      0x24\n      dup3\n      add\n        /* \"#utility.yul\":24066:24096   */\n      mstore\n        /* \"#utility.yul\":24132:24151   */\n      0x456e726f6c6c6d656e7420436c6f736564000000000000000000000000000000\n        /* \"#utility.yul\":24112:24130   */\n      0x44\n      dup3\n      add\n        /* \"#utility.yul\":24105:24152   */\n      mstore\n        /* \"#utility.yul\":24169:24187   */\n      0x64\n      add\n        /* \"CourseContract.sol\":7190:7241  require(paymentStatus == true, \"Enrollment Closed\") */\n      tag_220\n        /* \"#utility.yul\":23852:24193   */\n      jump\n        /* \"CourseContract.sol\":7190:7241  require(paymentStatus == true, \"Enrollment Closed\") */\n    tag_492:\n        /* \"CourseContract.sol\":7266:7275  msg.value */\n      callvalue\n        /* \"CourseContract.sol\":7251:7263  studentStake */\n      0x03\n        /* \"CourseContract.sol\":7251:7275  studentStake = msg.value */\n      sstore\n        /* \"CourseContract.sol\":7285:7316  _grantRole(STUDENT, msg.sender) */\n      tag_495\n        /* \"CourseContract.sol\":2630:2650  keccak256(\"STUDENT\") */\n      0xc951d7098b66ba0b8b77265b6e9cf0e187d73125a42bcd0061b09a68be421810\n        /* \"CourseContract.sol\":7305:7315  msg.sender */\n      caller\n        /* \"CourseContract.sol\":7285:7295  _grantRole */\n      tag_261\n        /* \"CourseContract.sol\":7285:7316  _grantRole(STUDENT, msg.sender) */\n      jump\t// in\n    tag_495:\n        /* \"CourseContract.sol\":7326:7334  students */\n      0x09\n        /* \"CourseContract.sol\":7326:7351  students.push(msg.sender) */\n      dup1\n      sload\n      0x01\n      dup2\n      add\n      swap1\n      swap2\n      sstore\n      0x6e1540171b6c0c960b71a7020d9f60077f6af931a8bbf590da0223dacf75c7af\n      add\n      dup1\n      sload\n      not(0xffffffffffffffffffffffffffffffffffffffff)\n      and\n        /* \"CourseContract.sol\":7340:7350  msg.sender */\n      caller\n        /* \"CourseContract.sol\":7326:7351  students.push(msg.sender) */\n      swap1\n      dup2\n      or\n      swap1\n      swap2\n      sstore\n        /* \"CourseContract.sol\":7390:7402  studentStake */\n      sload(0x03)\n      0x00\n        /* \"CourseContract.sol\":7361:7387  studentDeposit[msg.sender] */\n      dup3\n      dup2\n      mstore\n        /* \"CourseContract.sol\":7361:7375  studentDeposit */\n      0x0c\n        /* \"CourseContract.sol\":7326:7351  students.push(msg.sender) */\n      0x20\n        /* \"CourseContract.sol\":7361:7387  studentDeposit[msg.sender] */\n      mstore\n      0x40\n      swap1\n      dup2\n      swap1\n      keccak256\n        /* \"CourseContract.sol\":7361:7402  studentDeposit[msg.sender] = studentStake */\n      dup3\n      swap1\n      sstore\n        /* \"CourseContract.sol\":7412:7419  factory */\n      sload(0x10)\n        /* \"CourseContract.sol\":7412:7464  factory.updateStudentStake(msg.sender, studentStake) */\n      swap1\n      mload\n      shl(0xe0, 0x6e9d3d57)\n      dup2\n      mstore\n      0x04\n      dup2\n      add\n        /* \"#utility.yul\":9843:9917   */\n      swap4\n      swap1\n      swap4\n      mstore\n        /* \"#utility.yul\":9933:9951   */\n      0x24\n      dup4\n      add\n        /* \"#utility.yul\":9926:9960   */\n      swap2\n      swap1\n      swap2\n      mstore\n      sub(shl(0xa0, 0x01), 0x01)\n        /* \"CourseContract.sol\":7412:7419  factory */\n      and\n      swap1\n        /* \"CourseContract.sol\":7412:7438  factory.updateStudentStake */\n      0x6e9d3d57\n      swap1\n        /* \"#utility.yul\":9816:9834   */\n      0x44\n      add\n        /* \"CourseContract.sol\":7412:7464  factory.updateStudentStake(msg.sender, studentStake) */\n      0x00\n      mload(0x40)\n      dup1\n      dup4\n      sub\n      dup2\n      0x00\n      dup8\n      dup1\n      extcodesize\n      iszero\n      dup1\n      iszero\n      tag_498\n      jumpi\n      0x00\n      dup1\n      revert\n    tag_498:\n      pop\n      gas\n      call\n      iszero\n      dup1\n      iszero\n      tag_500\n      jumpi\n      returndatasize\n      0x00\n      dup1\n      returndatacopy\n      revert(0x00, returndatasize)\n    tag_500:\n      pop\n      pop\n        /* \"CourseContract.sol\":7479:7506  StudentEnrolled(msg.sender) */\n      mload(0x40)\n        /* \"CourseContract.sol\":7495:7505  msg.sender */\n      caller\n        /* \"#utility.yul\":828:902   */\n      dup2\n      mstore\n        /* \"CourseContract.sol\":7479:7506  StudentEnrolled(msg.sender) */\n      0xcf2a1c3c7a67eb28c4843f17631ff117d727317fc31e3e6b454c9b83dc789cec\n      swap3\n      pop\n        /* \"#utility.yul\":816:818   */\n      0x20\n        /* \"#utility.yul\":801:819   */\n      add\n      swap1\n      pop\n        /* \"CourseContract.sol\":7479:7506  StudentEnrolled(msg.sender) */\n      mload(0x40)\n      dup1\n      swap2\n      sub\n      swap1\n      log1\n        /* \"CourseContract.sol\":6824:7513  function enroll()external payable{... */\n      jump\t// out\n        /* \"CourseContract.sol\":1313:1330  string public uri */\n    tag_206:\n      0x0b\n      dup1\n      sload\n      tag_502\n      swap1\n      tag_503\n      jump\t// in\n    tag_502:\n      dup1\n      0x1f\n      add\n      0x20\n      dup1\n      swap2\n      div\n      mul\n      0x20\n      add\n      mload(0x40)\n      swap1\n      dup2\n      add\n      0x40\n      mstore\n      dup1\n      swap3\n      swap2\n      swap1\n      dup2\n      dup2\n      mstore\n      0x20\n      add\n      dup3\n      dup1\n      sload\n      tag_504\n      swap1\n      tag_503\n      jump\t// in\n    tag_504:\n      dup1\n      iszero\n      tag_505\n      jumpi\n      dup1\n      0x1f\n      lt\n      tag_506\n      jumpi\n      0x0100\n      dup1\n      dup4\n      sload\n      div\n      mul\n      dup4\n      mstore\n      swap2\n      0x20\n      add\n      swap2\n      jump(tag_505)\n    tag_506:\n      dup3\n      add\n      swap2\n      swap1\n      0x00\n      mstore\n      keccak256(0x00, 0x20)\n      swap1\n    tag_507:\n      dup2\n      sload\n      dup2\n      mstore\n      swap1\n      0x01\n      add\n      swap1\n      0x20\n      add\n      dup1\n      dup4\n      gt\n      tag_507\n      jumpi\n      dup3\n      swap1\n      sub\n      0x1f\n      and\n      dup3\n      add\n      swap2\n    tag_505:\n      pop\n      pop\n      pop\n      pop\n      pop\n      dup2\n      jump\t// out\n        /* \"@openzeppelin/contracts/access/AccessControl.sol\":3334:3437   */\n    tag_217:\n        /* \"@openzeppelin/contracts/access/AccessControl.sol\":3400:3430   */\n      tag_510\n        /* \"@openzeppelin/contracts/access/AccessControl.sol\":3411:3415   */\n      dup2\n        /* \"@openzeppelin/contracts/utils/Context.sol\":719:729   */\n      caller\n        /* \"@openzeppelin/contracts/access/AccessControl.sol\":3400:3410   */\n      tag_512\n        /* \"@openzeppelin/contracts/access/AccessControl.sol\":3400:3430   */\n      jump\t// in\n    tag_510:\n        /* \"@openzeppelin/contracts/access/AccessControl.sol\":3334:3437   */\n      pop\n      jump\t// out\n        /* \"@openzeppelin/contracts/access/AccessControl.sol\":7878:8112   */\n    tag_250:\n        /* \"@openzeppelin/contracts/access/AccessControl.sol\":2981:2985   */\n      0x00\n        /* \"@openzeppelin/contracts/access/AccessControl.sol\":3004:3016   */\n      dup3\n      dup2\n      mstore\n      0x20\n      dup2\n      dup2\n      mstore\n      0x40\n      dup1\n      dup4\n      keccak256\n      sub(shl(0xa0, 0x01), 0x01)\n        /* \"@openzeppelin/contracts/access/AccessControl.sol\":3004:3033   */\n      dup6\n      and\n      dup5\n      mstore\n      swap1\n      swap2\n      mstore\n      swap1\n      keccak256\n      sload\n      0xff\n      and\n        /* \"@openzeppelin/contracts/access/AccessControl.sol\":7957:8106   */\n      iszero\n      tag_268\n      jumpi\n        /* \"@openzeppelin/contracts/access/AccessControl.sol\":8031:8036   */\n      0x00\n        /* \"@openzeppelin/contracts/access/AccessControl.sol\":7999:8011   */\n      dup3\n      dup2\n      mstore\n      0x20\n      dup2\n      dup2\n      mstore\n      0x40\n      dup1\n      dup4\n      keccak256\n      sub(shl(0xa0, 0x01), 0x01)\n        /* \"@openzeppelin/contracts/access/AccessControl.sol\":7999:8028   */\n      dup6\n      and\n      dup1\n      dup6\n      mstore\n      swap3\n      mstore\n      dup1\n      dup4\n      keccak256\n        /* \"@openzeppelin/contracts/access/AccessControl.sol\":7999:8036   */\n      dup1\n      sload\n      not(0xff)\n      and\n      swap1\n      sstore\n        /* \"@openzeppelin/contracts/access/AccessControl.sol\":8055:8095   */\n      mload\n        /* \"@openzeppelin/contracts/utils/Context.sol\":719:729   */\n      caller\n      swap3\n        /* \"@openzeppelin/contracts/access/AccessControl.sol\":7999:8011   */\n      dup6\n      swap2\n        /* \"@openzeppelin/contracts/access/AccessControl.sol\":8055:8095   */\n      0xf6391f5c32d9c69d2a47ea670b442974b53935d1edc7fd64eb21e047a839171b\n      swap2\n        /* \"@openzeppelin/contracts/access/AccessControl.sol\":8031:8036   */\n      swap1\n        /* \"@openzeppelin/contracts/access/AccessControl.sol\":8055:8095   */\n      log4\n        /* \"@openzeppelin/contracts/access/AccessControl.sol\":7878:8112   */\n      pop\n      pop\n      jump\t// out\n        /* \"@openzeppelin/contracts/access/AccessControl.sol\":7474:7707   */\n    tag_261:\n        /* \"@openzeppelin/contracts/access/AccessControl.sol\":2981:2985   */\n      0x00\n        /* \"@openzeppelin/contracts/access/AccessControl.sol\":3004:3016   */\n      dup3\n      dup2\n      mstore\n      0x20\n      dup2\n      dup2\n      mstore\n      0x40\n      dup1\n      dup4\n      keccak256\n      sub(shl(0xa0, 0x01), 0x01)\n        /* \"@openzeppelin/contracts/access/AccessControl.sol\":3004:3033   */\n      dup6\n      and\n      dup5\n      mstore\n      swap1\n      swap2\n      mstore\n      swap1\n      keccak256\n      sload\n      0xff\n      and\n        /* \"@openzeppelin/contracts/access/AccessControl.sol\":7552:7701   */\n      tag_268\n      jumpi\n        /* \"@openzeppelin/contracts/access/AccessControl.sol\":7595:7601   */\n      0x00\n        /* \"@openzeppelin/contracts/access/AccessControl.sol\":7595:7607   */\n      dup3\n      dup2\n      mstore\n      0x20\n      dup2\n      dup2\n      mstore\n      0x40\n      dup1\n      dup4\n      keccak256\n      sub(shl(0xa0, 0x01), 0x01)\n        /* \"@openzeppelin/contracts/access/AccessControl.sol\":7595:7624   */\n      dup6\n      and\n      dup5\n      mstore\n      swap1\n      swap2\n      mstore\n      swap1\n      keccak256\n        /* \"@openzeppelin/contracts/access/AccessControl.sol\":7595:7631   */\n      dup1\n      sload\n      not(0xff)\n      and\n        /* \"@openzeppelin/contracts/access/AccessControl.sol\":7627:7631   */\n      0x01\n        /* \"@openzeppelin/contracts/access/AccessControl.sol\":7595:7631   */\n      or\n      swap1\n      sstore\n        /* \"@openzeppelin/contracts/access/AccessControl.sol\":7677:7689   */\n      tag_520\n        /* \"@openzeppelin/contracts/utils/Context.sol\":719:729   */\n      caller\n      swap1\n        /* \"@openzeppelin/contracts/utils/Context.sol\":640:736   */\n      jump\n        /* \"@openzeppelin/contracts/access/AccessControl.sol\":7677:7689   */\n    tag_520:\n      sub(shl(0xa0, 0x01), 0x01)\n        /* \"@openzeppelin/contracts/access/AccessControl.sol\":7650:7690   */\n      and\n        /* \"@openzeppelin/contracts/access/AccessControl.sol\":7668:7675   */\n      dup2\n      sub(shl(0xa0, 0x01), 0x01)\n        /* \"@openzeppelin/contracts/access/AccessControl.sol\":7650:7690   */\n      and\n        /* \"@openzeppelin/contracts/access/AccessControl.sol\":7662:7666   */\n      dup4\n        /* \"@openzeppelin/contracts/access/AccessControl.sol\":7650:7690   */\n      0x2f8788117e7eff1d82e926ec794901d17c78024a50270940304540a733656f0d\n      mload(0x40)\n      mload(0x40)\n      dup1\n      swap2\n      sub\n      swap1\n      log4\n        /* \"@openzeppelin/contracts/access/AccessControl.sol\":7474:7707   */\n      pop\n      pop\n      jump\t// out\n        /* \"@openzeppelin/contracts/access/AccessControl.sol\":3718:4210   */\n    tag_512:\n        /* \"@openzeppelin/contracts/access/AccessControl.sol\":2981:2985   */\n      0x00\n        /* \"@openzeppelin/contracts/access/AccessControl.sol\":3004:3016   */\n      dup3\n      dup2\n      mstore\n      0x20\n      dup2\n      dup2\n      mstore\n      0x40\n      dup1\n      dup4\n      keccak256\n      sub(shl(0xa0, 0x01), 0x01)\n        /* \"@openzeppelin/contracts/access/AccessControl.sol\":3004:3033   */\n      dup6\n      and\n      dup5\n      mstore\n      swap1\n      swap2\n      mstore\n      swap1\n      keccak256\n      sload\n      0xff\n      and\n        /* \"@openzeppelin/contracts/access/AccessControl.sol\":3801:4204   */\n      tag_268\n      jumpi\n        /* \"@openzeppelin/contracts/access/AccessControl.sol\":3989:4030   */\n      tag_526\n        /* \"@openzeppelin/contracts/access/AccessControl.sol\":4017:4024   */\n      dup2\n      sub(shl(0xa0, 0x01), 0x01)\n        /* \"@openzeppelin/contracts/access/AccessControl.sol\":3989:4030   */\n      and\n        /* \"@openzeppelin/contracts/access/AccessControl.sol\":4027:4029   */\n      0x14\n        /* \"@openzeppelin/contracts/access/AccessControl.sol\":3989:4008   */\n      tag_527\n        /* \"@openzeppelin/contracts/access/AccessControl.sol\":3989:4030   */\n      jump\t// in\n    tag_526:\n        /* \"@openzeppelin/contracts/access/AccessControl.sol\":4101:4139   */\n      tag_528\n        /* \"@openzeppelin/contracts/access/AccessControl.sol\":4129:4133   */\n      dup4\n        /* \"@openzeppelin/contracts/access/AccessControl.sol\":4136:4138   */\n      0x20\n        /* \"@openzeppelin/contracts/access/AccessControl.sol\":4101:4120   */\n      tag_527\n        /* \"@openzeppelin/contracts/access/AccessControl.sol\":4101:4139   */\n      jump\t// in\n    tag_528:\n        /* \"@openzeppelin/contracts/access/AccessControl.sol\":3896:4161   */\n      add(0x20, mload(0x40))\n      tag_529\n      swap3\n      swap2\n      swap1\n      tag_530\n      jump\t// in\n    tag_529:\n      0x40\n      dup1\n      mload\n      not(0x1f)\n      dup2\n      dup5\n      sub\n      add\n      dup2\n      mstore\n      swap1\n      dup3\n      swap1\n      mstore\n      shl(0xe5, 0x461bcd)\n        /* \"@openzeppelin/contracts/access/AccessControl.sol\":3844:4193   */\n      dup3\n      mstore\n      tag_220\n      swap2\n      0x04\n      add\n      tag_208\n      jump\t// in\n        /* \"@openzeppelin/contracts/utils/Strings.sol\":1652:2093   */\n    tag_527:\n        /* \"@openzeppelin/contracts/utils/Strings.sol\":1727:1740   */\n      0x60\n        /* \"@openzeppelin/contracts/utils/Strings.sol\":1752:1771   */\n      0x00\n        /* \"@openzeppelin/contracts/utils/Strings.sol\":1784:1794   */\n      tag_533\n        /* \"@openzeppelin/contracts/utils/Strings.sol\":1788:1794   */\n      dup4\n        /* \"@openzeppelin/contracts/utils/Strings.sol\":1784:1785   */\n      0x02\n        /* \"@openzeppelin/contracts/utils/Strings.sol\":1784:1794   */\n      tag_534\n      jump\t// in\n    tag_533:\n        /* \"@openzeppelin/contracts/utils/Strings.sol\":1784:1798   */\n      tag_535\n      swap1\n        /* \"@openzeppelin/contracts/utils/Strings.sol\":1797:1798   */\n      0x02\n        /* \"@openzeppelin/contracts/utils/Strings.sol\":1784:1798   */\n      tag_383\n      jump\t// in\n    tag_535:\n        /* \"@openzeppelin/contracts/utils/Strings.sol\":1774:1799   */\n      0xffffffffffffffff\n      dup2\n      gt\n      iszero\n      tag_537\n      jumpi\n      tag_537\n      tag_538\n      jump\t// in\n    tag_537:\n      mload(0x40)\n      swap1\n      dup1\n      dup3\n      mstore\n      dup1\n      0x1f\n      add\n      not(0x1f)\n      and\n      0x20\n      add\n      dup3\n      add\n      0x40\n      mstore\n      dup1\n      iszero\n      tag_539\n      jumpi\n      0x20\n      dup3\n      add\n      dup2\n      dup1\n      calldatasize\n      dup4\n      calldatacopy\n      add\n      swap1\n      pop\n    tag_539:\n      pop\n        /* \"@openzeppelin/contracts/utils/Strings.sol\":1752:1799   */\n      swap1\n      pop\n      shl(0xfc, 0x03)\n        /* \"@openzeppelin/contracts/utils/Strings.sol\":1809:1815   */\n      dup2\n        /* \"@openzeppelin/contracts/utils/Strings.sol\":1816:1817   */\n      0x00\n        /* \"@openzeppelin/contracts/utils/Strings.sol\":1809:1818   */\n      dup2\n      mload\n      dup2\n      lt\n      tag_541\n      jumpi\n      tag_541\n      tag_374\n      jump\t// in\n    tag_541:\n      0x20\n      add\n      add\n        /* \"@openzeppelin/contracts/utils/Strings.sol\":1809:1824   */\n      swap1\n      not(sub(shl(0xf8, 0x01), 0x01))\n      and\n      swap1\n      dup2\n      0x00\n      byte\n      swap1\n      mstore8\n      pop\n      shl(0xfb, 0x0f)\n        /* \"@openzeppelin/contracts/utils/Strings.sol\":1834:1840   */\n      dup2\n        /* \"@openzeppelin/contracts/utils/Strings.sol\":1841:1842   */\n      0x01\n        /* \"@openzeppelin/contracts/utils/Strings.sol\":1834:1843   */\n      dup2\n      mload\n      dup2\n      lt\n      tag_543\n      jumpi\n      tag_543\n      tag_374\n      jump\t// in\n    tag_543:\n      0x20\n      add\n      add\n        /* \"@openzeppelin/contracts/utils/Strings.sol\":1834:1849   */\n      swap1\n      not(sub(shl(0xf8, 0x01), 0x01))\n      and\n      swap1\n      dup2\n      0x00\n      byte\n      swap1\n      mstore8\n      pop\n        /* \"@openzeppelin/contracts/utils/Strings.sol\":1864:1873   */\n      0x00\n        /* \"@openzeppelin/contracts/utils/Strings.sol\":1876:1886   */\n      tag_547\n        /* \"@openzeppelin/contracts/utils/Strings.sol\":1880:1886   */\n      dup5\n        /* \"@openzeppelin/contracts/utils/Strings.sol\":1876:1877   */\n      0x02\n        /* \"@openzeppelin/contracts/utils/Strings.sol\":1876:1886   */\n      tag_534\n      jump\t// in\n    tag_547:\n        /* \"@openzeppelin/contracts/utils/Strings.sol\":1876:1890   */\n      tag_548\n      swap1\n        /* \"@openzeppelin/contracts/utils/Strings.sol\":1889:1890   */\n      0x01\n        /* \"@openzeppelin/contracts/utils/Strings.sol\":1876:1890   */\n      tag_383\n      jump\t// in\n    tag_548:\n        /* \"@openzeppelin/contracts/utils/Strings.sol\":1864:1890   */\n      swap1\n      pop\n        /* \"@openzeppelin/contracts/utils/Strings.sol\":1859:1991   */\n    tag_544:\n        /* \"@openzeppelin/contracts/utils/Strings.sol\":1896:1897   */\n      0x01\n        /* \"@openzeppelin/contracts/utils/Strings.sol\":1892:1893   */\n      dup2\n        /* \"@openzeppelin/contracts/utils/Strings.sol\":1892:1897   */\n      gt\n        /* \"@openzeppelin/contracts/utils/Strings.sol\":1859:1991   */\n      iszero\n      tag_545\n      jumpi\n        /* \"@openzeppelin/contracts/utils/Strings.sol\":1930:1942   */\n      0x3031323334353637383961626364656600000000000000000000000000000000\n        /* \"@openzeppelin/contracts/utils/Strings.sol\":1943:1948   */\n      dup6\n        /* \"@openzeppelin/contracts/utils/Strings.sol\":1951:1954   */\n      0x0f\n        /* \"@openzeppelin/contracts/utils/Strings.sol\":1943:1954   */\n      and\n        /* \"@openzeppelin/contracts/utils/Strings.sol\":1930:1955   */\n      0x10\n      dup2\n      lt\n      tag_550\n      jumpi\n      tag_550\n      tag_374\n      jump\t// in\n    tag_550:\n      byte\n      0xf8\n      shl\n        /* \"@openzeppelin/contracts/utils/Strings.sol\":1918:1924   */\n      dup3\n        /* \"@openzeppelin/contracts/utils/Strings.sol\":1925:1926   */\n      dup3\n        /* \"@openzeppelin/contracts/utils/Strings.sol\":1918:1927   */\n      dup2\n      mload\n      dup2\n      lt\n      tag_552\n      jumpi\n      tag_552\n      tag_374\n      jump\t// in\n    tag_552:\n      0x20\n      add\n      add\n        /* \"@openzeppelin/contracts/utils/Strings.sol\":1918:1955   */\n      swap1\n      not(sub(shl(0xf8, 0x01), 0x01))\n      and\n      swap1\n      dup2\n      0x00\n      byte\n      swap1\n      mstore8\n      pop\n        /* \"@openzeppelin/contracts/utils/Strings.sol\":1979:1980   */\n      0x04\n        /* \"@openzeppelin/contracts/utils/Strings.sol\":1969:1980   */\n      swap5\n      swap1\n      swap5\n      shr\n      swap4\n        /* \"@openzeppelin/contracts/utils/Strings.sol\":1899:1902   */\n      tag_553\n      dup2\n      tag_554\n      jump\t// in\n    tag_553:\n      swap1\n      pop\n        /* \"@openzeppelin/contracts/utils/Strings.sol\":1859:1991   */\n      jump(tag_544)\n    tag_545:\n      pop\n        /* \"@openzeppelin/contracts/utils/Strings.sol\":2008:2018   */\n      dup4\n      iszero\n        /* \"@openzeppelin/contracts/utils/Strings.sol\":2000:2055   */\n      tag_555\n      jumpi\n      mload(0x40)\n      shl(0xe5, 0x461bcd)\n      dup2\n      mstore\n        /* \"#utility.yul\":25531:25533   */\n      0x20\n        /* \"@openzeppelin/contracts/utils/Strings.sol\":2000:2055   */\n      0x04\n      dup3\n      add\n        /* \"#utility.yul\":25513:25534   */\n      dup2\n      swap1\n      mstore\n        /* \"#utility.yul\":25550:25568   */\n      0x24\n      dup3\n      add\n        /* \"#utility.yul\":25543:25573   */\n      mstore\n        /* \"#utility.yul\":25609:25643   */\n      0x537472696e67733a20686578206c656e67746820696e73756666696369656e74\n        /* \"#utility.yul\":25589:25607   */\n      0x44\n      dup3\n      add\n        /* \"#utility.yul\":25582:25644   */\n      mstore\n        /* \"#utility.yul\":25661:25679   */\n      0x64\n      add\n        /* \"@openzeppelin/contracts/utils/Strings.sol\":2000:2055   */\n      tag_220\n        /* \"#utility.yul\":25329:25685   */\n      jump\n        /* \"@openzeppelin/contracts/utils/Strings.sol\":2000:2055   */\n    tag_555:\n        /* \"@openzeppelin/contracts/utils/Strings.sol\":2079:2085   */\n      swap4\n        /* \"@openzeppelin/contracts/utils/Strings.sol\":1652:2093   */\n      swap3\n      pop\n      pop\n      pop\n      jump\t// out\n        /* \"#utility.yul\":14:300   */\n    tag_54:\n        /* \"#utility.yul\":72:78   */\n      0x00\n        /* \"#utility.yul\":125:127   */\n      0x20\n        /* \"#utility.yul\":113:122   */\n      dup3\n        /* \"#utility.yul\":104:111   */\n      dup5\n        /* \"#utility.yul\":100:123   */\n      sub\n        /* \"#utility.yul\":96:128   */\n      slt\n        /* \"#utility.yul\":93:145   */\n      iszero\n      tag_567\n      jumpi\n        /* \"#utility.yul\":141:142   */\n      0x00\n        /* \"#utility.yul\":138:139   */\n      dup1\n        /* \"#utility.yul\":131:143   */\n      revert\n        /* \"#utility.yul\":93:145   */\n    tag_567:\n        /* \"#utility.yul\":167:190   */\n      dup2\n      calldataload\n      not(sub(shl(0xe0, 0x01), 0x01))\n        /* \"#utility.yul\":219:251   */\n      dup2\n      and\n        /* \"#utility.yul\":209:252   */\n      dup2\n      eq\n        /* \"#utility.yul\":199:270   */\n      tag_555\n      jumpi\n        /* \"#utility.yul\":266:267   */\n      0x00\n        /* \"#utility.yul\":263:264   */\n      dup1\n        /* \"#utility.yul\":256:268   */\n      revert\n        /* \"#utility.yul\":497:677   */\n    tag_61:\n        /* \"#utility.yul\":556:562   */\n      0x00\n        /* \"#utility.yul\":609:611   */\n      0x20\n        /* \"#utility.yul\":597:606   */\n      dup3\n        /* \"#utility.yul\":588:595   */\n      dup5\n        /* \"#utility.yul\":584:607   */\n      sub\n        /* \"#utility.yul\":580:612   */\n      slt\n        /* \"#utility.yul\":577:629   */\n      iszero\n      tag_571\n      jumpi\n        /* \"#utility.yul\":625:626   */\n      0x00\n        /* \"#utility.yul\":622:623   */\n      dup1\n        /* \"#utility.yul\":615:627   */\n      revert\n        /* \"#utility.yul\":577:629   */\n    tag_571:\n      pop\n        /* \"#utility.yul\":648:671   */\n      calldataload\n      swap2\n        /* \"#utility.yul\":497:677   */\n      swap1\n      pop\n      jump\t// out\n        /* \"#utility.yul\":1277:1404   */\n    tag_538:\n        /* \"#utility.yul\":1338:1348   */\n      0x4e487b71\n        /* \"#utility.yul\":1333:1336   */\n      0xe0\n        /* \"#utility.yul\":1329:1349   */\n      shl\n        /* \"#utility.yul\":1326:1327   */\n      0x00\n        /* \"#utility.yul\":1319:1350   */\n      mstore\n        /* \"#utility.yul\":1369:1373   */\n      0x41\n        /* \"#utility.yul\":1366:1367   */\n      0x04\n        /* \"#utility.yul\":1359:1374   */\n      mstore\n        /* \"#utility.yul\":1393:1397   */\n      0x24\n        /* \"#utility.yul\":1390:1391   */\n      0x00\n        /* \"#utility.yul\":1383:1398   */\n      revert\n        /* \"#utility.yul\":1409:2399   */\n    tag_78:\n        /* \"#utility.yul\":1487:1493   */\n      0x00\n        /* \"#utility.yul\":1495:1501   */\n      dup1\n        /* \"#utility.yul\":1548:1550   */\n      0x40\n        /* \"#utility.yul\":1536:1545   */\n      dup4\n        /* \"#utility.yul\":1527:1534   */\n      dup6\n        /* \"#utility.yul\":1523:1546   */\n      sub\n        /* \"#utility.yul\":1519:1551   */\n      slt\n        /* \"#utility.yul\":1516:1568   */\n      iszero\n      tag_577\n      jumpi\n        /* \"#utility.yul\":1564:1565   */\n      0x00\n        /* \"#utility.yul\":1561:1562   */\n      dup1\n        /* \"#utility.yul\":1554:1566   */\n      revert\n        /* \"#utility.yul\":1516:1568   */\n    tag_577:\n        /* \"#utility.yul\":1600:1609   */\n      dup3\n        /* \"#utility.yul\":1587:1610   */\n      calldataload\n        /* \"#utility.yul\":1577:1610   */\n      swap2\n      pop\n        /* \"#utility.yul\":1661:1663   */\n      0x20\n        /* \"#utility.yul\":1650:1659   */\n      dup4\n        /* \"#utility.yul\":1646:1664   */\n      add\n        /* \"#utility.yul\":1633:1665   */\n      calldataload\n        /* \"#utility.yul\":1684:1702   */\n      0xffffffffffffffff\n        /* \"#utility.yul\":1725:1727   */\n      dup1\n        /* \"#utility.yul\":1717:1723   */\n      dup3\n        /* \"#utility.yul\":1714:1728   */\n      gt\n        /* \"#utility.yul\":1711:1745   */\n      iszero\n      tag_578\n      jumpi\n        /* \"#utility.yul\":1741:1742   */\n      0x00\n        /* \"#utility.yul\":1738:1739   */\n      dup1\n        /* \"#utility.yul\":1731:1743   */\n      revert\n        /* \"#utility.yul\":1711:1745   */\n    tag_578:\n        /* \"#utility.yul\":1779:1785   */\n      dup2\n        /* \"#utility.yul\":1768:1777   */\n      dup6\n        /* \"#utility.yul\":1764:1786   */\n      add\n        /* \"#utility.yul\":1754:1786   */\n      swap2\n      pop\n        /* \"#utility.yul\":1824:1831   */\n      dup6\n        /* \"#utility.yul\":1817:1821   */\n      0x1f\n        /* \"#utility.yul\":1813:1815   */\n      dup4\n        /* \"#utility.yul\":1809:1822   */\n      add\n        /* \"#utility.yul\":1805:1832   */\n      slt\n        /* \"#utility.yul\":1795:1850   */\n      tag_579\n      jumpi\n        /* \"#utility.yul\":1846:1847   */\n      0x00\n        /* \"#utility.yul\":1843:1844   */\n      dup1\n        /* \"#utility.yul\":1836:1848   */\n      revert\n        /* \"#utility.yul\":1795:1850   */\n    tag_579:\n        /* \"#utility.yul\":1882:1884   */\n      dup2\n        /* \"#utility.yul\":1869:1885   */\n      calldataload\n        /* \"#utility.yul\":1904:1906   */\n      dup2\n        /* \"#utility.yul\":1900:1902   */\n      dup2\n        /* \"#utility.yul\":1897:1907   */\n      gt\n        /* \"#utility.yul\":1894:1930   */\n      iszero\n      tag_581\n      jumpi\n        /* \"#utility.yul\":1910:1928   */\n      tag_581\n      tag_538\n      jump\t// in\n    tag_581:\n        /* \"#utility.yul\":1985:1987   */\n      0x40\n        /* \"#utility.yul\":1979:1988   */\n      mload\n        /* \"#utility.yul\":1953:1955   */\n      0x1f\n        /* \"#utility.yul\":2039:2052   */\n      dup3\n      add\n      not(0x1f)\n        /* \"#utility.yul\":2035:2057   */\n      swap1\n      dup2\n      and\n        /* \"#utility.yul\":2059:2061   */\n      0x3f\n        /* \"#utility.yul\":2031:2062   */\n      add\n        /* \"#utility.yul\":2027:2067   */\n      and\n        /* \"#utility.yul\":2015:2068   */\n      dup2\n      add\n      swap1\n        /* \"#utility.yul\":2083:2101   */\n      dup4\n      dup3\n      gt\n        /* \"#utility.yul\":2103:2125   */\n      dup2\n      dup4\n      lt\n        /* \"#utility.yul\":2080:2126   */\n      or\n        /* \"#utility.yul\":2077:2149   */\n      iszero\n      tag_583\n      jumpi\n        /* \"#utility.yul\":2129:2147   */\n      tag_583\n      tag_538\n      jump\t// in\n    tag_583:\n        /* \"#utility.yul\":2169:2179   */\n      dup2\n        /* \"#utility.yul\":2165:2167   */\n      0x40\n        /* \"#utility.yul\":2158:2180   */\n      mstore\n        /* \"#utility.yul\":2204:2206   */\n      dup3\n        /* \"#utility.yul\":2196:2202   */\n      dup2\n        /* \"#utility.yul\":2189:2207   */\n      mstore\n        /* \"#utility.yul\":2244:2251   */\n      dup9\n        /* \"#utility.yul\":2239:2241   */\n      0x20\n        /* \"#utility.yul\":2234:2236   */\n      dup5\n        /* \"#utility.yul\":2230:2232   */\n      dup8\n        /* \"#utility.yul\":2226:2237   */\n      add\n        /* \"#utility.yul\":2222:2242   */\n      add\n        /* \"#utility.yul\":2219:2252   */\n      gt\n        /* \"#utility.yul\":2216:2269   */\n      iszero\n      tag_584\n      jumpi\n        /* \"#utility.yul\":2265:2266   */\n      0x00\n        /* \"#utility.yul\":2262:2263   */\n      dup1\n        /* \"#utility.yul\":2255:2267   */\n      revert\n        /* \"#utility.yul\":2216:2269   */\n    tag_584:\n        /* \"#utility.yul\":2321:2323   */\n      dup3\n        /* \"#utility.yul\":2316:2318   */\n      0x20\n        /* \"#utility.yul\":2312:2314   */\n      dup7\n        /* \"#utility.yul\":2308:2319   */\n      add\n        /* \"#utility.yul\":2303:2305   */\n      0x20\n        /* \"#utility.yul\":2295:2301   */\n      dup4\n        /* \"#utility.yul\":2291:2306   */\n      add\n        /* \"#utility.yul\":2278:2324   */\n      calldatacopy\n        /* \"#utility.yul\":2366:2367   */\n      0x00\n        /* \"#utility.yul\":2361:2363   */\n      0x20\n        /* \"#utility.yul\":2356:2358   */\n      dup5\n        /* \"#utility.yul\":2348:2354   */\n      dup4\n        /* \"#utility.yul\":2344:2359   */\n      add\n        /* \"#utility.yul\":2340:2364   */\n      add\n        /* \"#utility.yul\":2333:2368   */\n      mstore\n        /* \"#utility.yul\":2387:2393   */\n      dup1\n        /* \"#utility.yul\":2377:2393   */\n      swap6\n      pop\n      pop\n      pop\n      pop\n      pop\n      pop\n        /* \"#utility.yul\":1409:2399   */\n      swap3\n      pop\n      swap3\n      swap1\n      pop\n      jump\t// out\n        /* \"#utility.yul\":2589:2743   */\n    tag_558:\n      sub(shl(0xa0, 0x01), 0x01)\n        /* \"#utility.yul\":2668:2673   */\n      dup2\n        /* \"#utility.yul\":2664:2718   */\n      and\n        /* \"#utility.yul\":2657:2662   */\n      dup2\n        /* \"#utility.yul\":2654:2719   */\n      eq\n        /* \"#utility.yul\":2644:2737   */\n      tag_510\n      jumpi\n        /* \"#utility.yul\":2733:2734   */\n      0x00\n        /* \"#utility.yul\":2730:2731   */\n      dup1\n        /* \"#utility.yul\":2723:2735   */\n      revert\n        /* \"#utility.yul\":2748:3063   */\n    tag_99:\n        /* \"#utility.yul\":2816:2822   */\n      0x00\n        /* \"#utility.yul\":2824:2830   */\n      dup1\n        /* \"#utility.yul\":2877:2879   */\n      0x40\n        /* \"#utility.yul\":2865:2874   */\n      dup4\n        /* \"#utility.yul\":2856:2863   */\n      dup6\n        /* \"#utility.yul\":2852:2875   */\n      sub\n        /* \"#utility.yul\":2848:2880   */\n      slt\n        /* \"#utility.yul\":2845:2897   */\n      iszero\n      tag_590\n      jumpi\n        /* \"#utility.yul\":2893:2894   */\n      0x00\n        /* \"#utility.yul\":2890:2891   */\n      dup1\n        /* \"#utility.yul\":2883:2895   */\n      revert\n        /* \"#utility.yul\":2845:2897   */\n    tag_590:\n        /* \"#utility.yul\":2929:2938   */\n      dup3\n        /* \"#utility.yul\":2916:2939   */\n      calldataload\n        /* \"#utility.yul\":2906:2939   */\n      swap2\n      pop\n        /* \"#utility.yul\":2989:2991   */\n      0x20\n        /* \"#utility.yul\":2978:2987   */\n      dup4\n        /* \"#utility.yul\":2974:2992   */\n      add\n        /* \"#utility.yul\":2961:2993   */\n      calldataload\n        /* \"#utility.yul\":3002:3033   */\n      tag_591\n        /* \"#utility.yul\":3027:3032   */\n      dup2\n        /* \"#utility.yul\":3002:3033   */\n      tag_558\n      jump\t// in\n    tag_591:\n        /* \"#utility.yul\":3052:3057   */\n      dup1\n        /* \"#utility.yul\":3042:3057   */\n      swap2\n      pop\n      pop\n        /* \"#utility.yul\":2748:3063   */\n      swap3\n      pop\n      swap3\n      swap1\n      pop\n      jump\t// out\n        /* \"#utility.yul\":3068:3456   */\n    tag_122:\n        /* \"#utility.yul\":3136:3142   */\n      0x00\n        /* \"#utility.yul\":3144:3150   */\n      dup1\n        /* \"#utility.yul\":3197:3199   */\n      0x40\n        /* \"#utility.yul\":3185:3194   */\n      dup4\n        /* \"#utility.yul\":3176:3183   */\n      dup6\n        /* \"#utility.yul\":3172:3195   */\n      sub\n        /* \"#utility.yul\":3168:3200   */\n      slt\n        /* \"#utility.yul\":3165:3217   */\n      iszero\n      tag_593\n      jumpi\n        /* \"#utility.yul\":3213:3214   */\n      0x00\n        /* \"#utility.yul\":3210:3211   */\n      dup1\n        /* \"#utility.yul\":3203:3215   */\n      revert\n        /* \"#utility.yul\":3165:3217   */\n    tag_593:\n        /* \"#utility.yul\":3252:3261   */\n      dup3\n        /* \"#utility.yul\":3239:3262   */\n      calldataload\n        /* \"#utility.yul\":3271:3302   */\n      tag_594\n        /* \"#utility.yul\":3296:3301   */\n      dup2\n        /* \"#utility.yul\":3271:3302   */\n      tag_558\n      jump\t// in\n    tag_594:\n        /* \"#utility.yul\":3321:3326   */\n      swap2\n      pop\n        /* \"#utility.yul\":3378:3380   */\n      0x20\n        /* \"#utility.yul\":3363:3381   */\n      dup4\n      add\n        /* \"#utility.yul\":3350:3382   */\n      calldataload\n        /* \"#utility.yul\":3391:3424   */\n      tag_591\n        /* \"#utility.yul\":3350:3382   */\n      dup2\n        /* \"#utility.yul\":3391:3424   */\n      tag_558\n      jump\t// in\n        /* \"#utility.yul\":3461:3708   */\n    tag_127:\n        /* \"#utility.yul\":3520:3526   */\n      0x00\n        /* \"#utility.yul\":3573:3575   */\n      0x20\n        /* \"#utility.yul\":3561:3570   */\n      dup3\n        /* \"#utility.yul\":3552:3559   */\n      dup5\n        /* \"#utility.yul\":3548:3571   */\n      sub\n        /* \"#utility.yul\":3544:3576   */\n      slt\n        /* \"#utility.yul\":3541:3593   */\n      iszero\n      tag_597\n      jumpi\n        /* \"#utility.yul\":3589:3590   */\n      0x00\n        /* \"#utility.yul\":3586:3587   */\n      dup1\n        /* \"#utility.yul\":3579:3591   */\n      revert\n        /* \"#utility.yul\":3541:3593   */\n    tag_597:\n        /* \"#utility.yul\":3628:3637   */\n      dup2\n        /* \"#utility.yul\":3615:3638   */\n      calldataload\n        /* \"#utility.yul\":3647:3678   */\n      tag_555\n        /* \"#utility.yul\":3672:3677   */\n      dup2\n        /* \"#utility.yul\":3647:3678   */\n      tag_558\n      jump\t// in\n        /* \"#utility.yul\":3713:4036   */\n    tag_146:\n        /* \"#utility.yul\":3789:3795   */\n      0x00\n        /* \"#utility.yul\":3797:3803   */\n      dup1\n        /* \"#utility.yul\":3850:3852   */\n      0x40\n        /* \"#utility.yul\":3838:3847   */\n      dup4\n        /* \"#utility.yul\":3829:3836   */\n      dup6\n        /* \"#utility.yul\":3825:3848   */\n      sub\n        /* \"#utility.yul\":3821:3853   */\n      slt\n        /* \"#utility.yul\":3818:3870   */\n      iszero\n      tag_600\n      jumpi\n        /* \"#utility.yul\":3866:3867   */\n      0x00\n        /* \"#utility.yul\":3863:3864   */\n      dup1\n        /* \"#utility.yul\":3856:3868   */\n      revert\n        /* \"#utility.yul\":3818:3870   */\n    tag_600:\n        /* \"#utility.yul\":3905:3914   */\n      dup3\n        /* \"#utility.yul\":3892:3915   */\n      calldataload\n        /* \"#utility.yul\":3924:3955   */\n      tag_601\n        /* \"#utility.yul\":3949:3954   */\n      dup2\n        /* \"#utility.yul\":3924:3955   */\n      tag_558\n      jump\t// in\n    tag_601:\n        /* \"#utility.yul\":3974:3979   */\n      swap5\n        /* \"#utility.yul\":4026:4028   */\n      0x20\n        /* \"#utility.yul\":4011:4029   */\n      swap4\n      swap1\n      swap4\n      add\n        /* \"#utility.yul\":3998:4030   */\n      calldataload\n      swap4\n      pop\n      pop\n      pop\n        /* \"#utility.yul\":3713:4036   */\n      jump\t// out\n        /* \"#utility.yul\":4041:4291   */\n    tag_559:\n        /* \"#utility.yul\":4126:4127   */\n      0x00\n        /* \"#utility.yul\":4136:4249   */\n    tag_603:\n        /* \"#utility.yul\":4150:4156   */\n      dup4\n        /* \"#utility.yul\":4147:4148   */\n      dup2\n        /* \"#utility.yul\":4144:4157   */\n      lt\n        /* \"#utility.yul\":4136:4249   */\n      iszero\n      tag_605\n      jumpi\n        /* \"#utility.yul\":4226:4237   */\n      dup2\n      dup2\n      add\n        /* \"#utility.yul\":4220:4238   */\n      mload\n        /* \"#utility.yul\":4207:4218   */\n      dup4\n      dup3\n      add\n        /* \"#utility.yul\":4200:4239   */\n      mstore\n        /* \"#utility.yul\":4172:4174   */\n      0x20\n        /* \"#utility.yul\":4165:4175   */\n      add\n        /* \"#utility.yul\":4136:4249   */\n      jump(tag_603)\n    tag_605:\n      pop\n      pop\n        /* \"#utility.yul\":4283:4284   */\n      0x00\n        /* \"#utility.yul\":4265:4281   */\n      swap2\n      add\n        /* \"#utility.yul\":4258:4285   */\n      mstore\n        /* \"#utility.yul\":4041:4291   */\n      jump\t// out\n        /* \"#utility.yul\":4296:4692   */\n    tag_208:\n        /* \"#utility.yul\":4445:4447   */\n      0x20\n        /* \"#utility.yul\":4434:4443   */\n      dup2\n        /* \"#utility.yul\":4427:4448   */\n      mstore\n        /* \"#utility.yul\":4408:4412   */\n      0x00\n        /* \"#utility.yul\":4477:4483   */\n      dup3\n        /* \"#utility.yul\":4471:4484   */\n      mload\n        /* \"#utility.yul\":4520:4526   */\n      dup1\n        /* \"#utility.yul\":4515:4517   */\n      0x20\n        /* \"#utility.yul\":4504:4513   */\n      dup5\n        /* \"#utility.yul\":4500:4518   */\n      add\n        /* \"#utility.yul\":4493:4527   */\n      mstore\n        /* \"#utility.yul\":4536:4615   */\n      tag_607\n        /* \"#utility.yul\":4608:4614   */\n      dup2\n        /* \"#utility.yul\":4603:4605   */\n      0x40\n        /* \"#utility.yul\":4592:4601   */\n      dup6\n        /* \"#utility.yul\":4588:4606   */\n      add\n        /* \"#utility.yul\":4583:4585   */\n      0x20\n        /* \"#utility.yul\":4575:4581   */\n      dup8\n        /* \"#utility.yul\":4571:4586   */\n      add\n        /* \"#utility.yul\":4536:4615   */\n      tag_559\n      jump\t// in\n    tag_607:\n        /* \"#utility.yul\":4676:4678   */\n      0x1f\n        /* \"#utility.yul\":4655:4670   */\n      add\n      not(0x1f)\n        /* \"#utility.yul\":4651:4680   */\n      and\n        /* \"#utility.yul\":4636:4681   */\n      swap2\n      swap1\n      swap2\n      add\n        /* \"#utility.yul\":4683:4685   */\n      0x40\n        /* \"#utility.yul\":4632:4686   */\n      add\n      swap3\n        /* \"#utility.yul\":4296:4692   */\n      swap2\n      pop\n      pop\n      jump\t// out\n        /* \"#utility.yul\":5550:5930   */\n    tag_503:\n        /* \"#utility.yul\":5629:5630   */\n      0x01\n        /* \"#utility.yul\":5625:5637   */\n      dup2\n      dup2\n      shr\n      swap1\n        /* \"#utility.yul\":5672:5684   */\n      dup3\n      and\n      dup1\n        /* \"#utility.yul\":5693:5754   */\n      tag_611\n      jumpi\n        /* \"#utility.yul\":5747:5751   */\n      0x7f\n        /* \"#utility.yul\":5739:5745   */\n      dup3\n        /* \"#utility.yul\":5735:5752   */\n      and\n        /* \"#utility.yul\":5725:5752   */\n      swap2\n      pop\n        /* \"#utility.yul\":5693:5754   */\n    tag_611:\n        /* \"#utility.yul\":5800:5802   */\n      0x20\n        /* \"#utility.yul\":5792:5798   */\n      dup3\n        /* \"#utility.yul\":5789:5803   */\n      lt\n        /* \"#utility.yul\":5769:5787   */\n      dup2\n        /* \"#utility.yul\":5766:5804   */\n      sub\n        /* \"#utility.yul\":5763:5924   */\n      tag_612\n      jumpi\n        /* \"#utility.yul\":5846:5856   */\n      0x4e487b71\n        /* \"#utility.yul\":5841:5844   */\n      0xe0\n        /* \"#utility.yul\":5837:5857   */\n      shl\n        /* \"#utility.yul\":5834:5835   */\n      0x00\n        /* \"#utility.yul\":5827:5858   */\n      mstore\n        /* \"#utility.yul\":5881:5885   */\n      0x22\n        /* \"#utility.yul\":5878:5879   */\n      0x04\n        /* \"#utility.yul\":5871:5886   */\n      mstore\n        /* \"#utility.yul\":5909:5913   */\n      0x24\n        /* \"#utility.yul\":5906:5907   */\n      0x00\n        /* \"#utility.yul\":5899:5914   */\n      revert\n        /* \"#utility.yul\":5763:5924   */\n    tag_612:\n      pop\n        /* \"#utility.yul\":5550:5930   */\n      swap2\n      swap1\n      pop\n      jump\t// out\n        /* \"#utility.yul\":6061:6606   */\n    tag_561:\n        /* \"#utility.yul\":6163:6165   */\n      0x1f\n        /* \"#utility.yul\":6158:6161   */\n      dup3\n        /* \"#utility.yul\":6155:6166   */\n      gt\n        /* \"#utility.yul\":6152:6600   */\n      iszero\n      tag_260\n      jumpi\n        /* \"#utility.yul\":6199:6200   */\n      0x00\n        /* \"#utility.yul\":6224:6229   */\n      dup2\n        /* \"#utility.yul\":6220:6222   */\n      dup2\n        /* \"#utility.yul\":6213:6230   */\n      mstore\n        /* \"#utility.yul\":6269:6273   */\n      0x20\n        /* \"#utility.yul\":6265:6267   */\n      dup2\n        /* \"#utility.yul\":6255:6274   */\n      keccak256\n        /* \"#utility.yul\":6339:6341   */\n      0x1f\n        /* \"#utility.yul\":6327:6337   */\n      dup6\n        /* \"#utility.yul\":6323:6342   */\n      add\n        /* \"#utility.yul\":6320:6321   */\n      0x05\n        /* \"#utility.yul\":6316:6343   */\n      shr\n        /* \"#utility.yul\":6310:6314   */\n      dup2\n        /* \"#utility.yul\":6306:6344   */\n      add\n        /* \"#utility.yul\":6375:6379   */\n      0x20\n        /* \"#utility.yul\":6363:6373   */\n      dup7\n        /* \"#utility.yul\":6360:6380   */\n      lt\n        /* \"#utility.yul\":6357:6404   */\n      iszero\n      tag_616\n      jumpi\n      pop\n        /* \"#utility.yul\":6398:6402   */\n      dup1\n        /* \"#utility.yul\":6357:6404   */\n    tag_616:\n        /* \"#utility.yul\":6453:6455   */\n      0x1f\n        /* \"#utility.yul\":6448:6451   */\n      dup6\n        /* \"#utility.yul\":6444:6456   */\n      add\n        /* \"#utility.yul\":6441:6442   */\n      0x05\n        /* \"#utility.yul\":6437:6457   */\n      shr\n        /* \"#utility.yul\":6431:6435   */\n      dup3\n        /* \"#utility.yul\":6427:6458   */\n      add\n        /* \"#utility.yul\":6417:6458   */\n      swap2\n      pop\n        /* \"#utility.yul\":6508:6590   */\n    tag_617:\n        /* \"#utility.yul\":6526:6528   */\n      dup2\n        /* \"#utility.yul\":6519:6524   */\n      dup2\n        /* \"#utility.yul\":6516:6529   */\n      lt\n        /* \"#utility.yul\":6508:6590   */\n      iszero\n      tag_423\n      jumpi\n        /* \"#utility.yul\":6571:6588   */\n      dup3\n      dup2\n      sstore\n        /* \"#utility.yul\":6552:6553   */\n      0x01\n        /* \"#utility.yul\":6541:6554   */\n      add\n        /* \"#utility.yul\":6508:6590   */\n      jump(tag_617)\n        /* \"#utility.yul\":6782:8134   */\n    tag_226:\n        /* \"#utility.yul\":6908:6911   */\n      dup2\n        /* \"#utility.yul\":6902:6912   */\n      mload\n        /* \"#utility.yul\":6935:6953   */\n      0xffffffffffffffff\n        /* \"#utility.yul\":6927:6933   */\n      dup2\n        /* \"#utility.yul\":6924:6954   */\n      gt\n        /* \"#utility.yul\":6921:6977   */\n      iszero\n      tag_623\n      jumpi\n        /* \"#utility.yul\":6957:6975   */\n      tag_623\n      tag_538\n      jump\t// in\n    tag_623:\n        /* \"#utility.yul\":6986:7083   */\n      tag_624\n        /* \"#utility.yul\":7076:7082   */\n      dup2\n        /* \"#utility.yul\":7036:7074   */\n      tag_625\n        /* \"#utility.yul\":7068:7072   */\n      dup5\n        /* \"#utility.yul\":7062:7073   */\n      sload\n        /* \"#utility.yul\":7036:7074   */\n      tag_503\n      jump\t// in\n    tag_625:\n        /* \"#utility.yul\":7030:7034   */\n      dup5\n        /* \"#utility.yul\":6986:7083   */\n      tag_561\n      jump\t// in\n    tag_624:\n        /* \"#utility.yul\":7138:7142   */\n      0x20\n      dup1\n        /* \"#utility.yul\":7202:7204   */\n      0x1f\n        /* \"#utility.yul\":7191:7205   */\n      dup4\n      gt\n        /* \"#utility.yul\":7219:7220   */\n      0x01\n        /* \"#utility.yul\":7214:7877   */\n      dup2\n      eq\n      tag_627\n      jumpi\n        /* \"#utility.yul\":7921:7922   */\n      0x00\n        /* \"#utility.yul\":7938:7944   */\n      dup5\n        /* \"#utility.yul\":7935:8024   */\n      iszero\n      tag_628\n      jumpi\n      pop\n        /* \"#utility.yul\":7990:8009   */\n      dup6\n      dup4\n      add\n        /* \"#utility.yul\":7984:8010   */\n      mload\n        /* \"#utility.yul\":7935:8024   */\n    tag_628:\n      not(0x00)\n        /* \"#utility.yul\":6739:6740   */\n      0x03\n        /* \"#utility.yul\":6735:6746   */\n      dup7\n      swap1\n      shl\n        /* \"#utility.yul\":6731:6755   */\n      shr\n        /* \"#utility.yul\":6727:6756   */\n      not\n        /* \"#utility.yul\":6717:6757   */\n      and\n        /* \"#utility.yul\":6763:6764   */\n      0x01\n        /* \"#utility.yul\":6759:6770   */\n      dup6\n      swap1\n      shl\n        /* \"#utility.yul\":6714:6771   */\n      or\n        /* \"#utility.yul\":8037:8118   */\n      dup6\n      sstore\n        /* \"#utility.yul\":7184:8128   */\n      jump(tag_423)\n        /* \"#utility.yul\":7214:7877   */\n    tag_627:\n        /* \"#utility.yul\":6008:6009   */\n      0x00\n        /* \"#utility.yul\":6001:6015   */\n      dup6\n      dup2\n      mstore\n        /* \"#utility.yul\":6045:6049   */\n      0x20\n        /* \"#utility.yul\":6032:6050   */\n      dup2\n      keccak256\n      not(0x1f)\n        /* \"#utility.yul\":7250:7270   */\n      dup7\n      and\n      swap2\n        /* \"#utility.yul\":7368:7604   */\n    tag_631:\n        /* \"#utility.yul\":7382:7389   */\n      dup3\n        /* \"#utility.yul\":7379:7380   */\n      dup2\n        /* \"#utility.yul\":7376:7390   */\n      lt\n        /* \"#utility.yul\":7368:7604   */\n      iszero\n      tag_633\n      jumpi\n        /* \"#utility.yul\":7471:7490   */\n      dup9\n      dup7\n      add\n        /* \"#utility.yul\":7465:7491   */\n      mload\n        /* \"#utility.yul\":7450:7492   */\n      dup3\n      sstore\n        /* \"#utility.yul\":7563:7590   */\n      swap5\n      dup5\n      add\n      swap5\n        /* \"#utility.yul\":7531:7532   */\n      0x01\n        /* \"#utility.yul\":7519:7533   */\n      swap1\n      swap2\n      add\n      swap1\n        /* \"#utility.yul\":7398:7417   */\n      dup5\n      add\n        /* \"#utility.yul\":7368:7604   */\n      jump(tag_631)\n    tag_633:\n        /* \"#utility.yul\":7372:7375   */\n      pop\n        /* \"#utility.yul\":7632:7638   */\n      dup6\n        /* \"#utility.yul\":7623:7630   */\n      dup3\n        /* \"#utility.yul\":7620:7639   */\n      lt\n        /* \"#utility.yul\":7617:7818   */\n      iszero\n      tag_634\n      jumpi\n        /* \"#utility.yul\":7693:7712   */\n      dup8\n      dup6\n      add\n        /* \"#utility.yul\":7687:7713   */\n      mload\n      not(0x00)\n        /* \"#utility.yul\":7776:7777   */\n      0x03\n        /* \"#utility.yul\":7772:7786   */\n      dup9\n      swap1\n      shl\n        /* \"#utility.yul\":7788:7791   */\n      0xf8\n        /* \"#utility.yul\":7768:7792   */\n      and\n        /* \"#utility.yul\":7764:7801   */\n      shr\n        /* \"#utility.yul\":7760:7802   */\n      not\n        /* \"#utility.yul\":7745:7803   */\n      and\n        /* \"#utility.yul\":7730:7804   */\n      dup2\n      sstore\n        /* \"#utility.yul\":7617:7818   */\n    tag_634:\n      pop\n      pop\n      pop\n      pop\n      pop\n        /* \"#utility.yul\":7864:7865   */\n      0x01\n        /* \"#utility.yul\":7848:7862   */\n      swap1\n      dup2\n      shl\n        /* \"#utility.yul\":7844:7866   */\n      add\n        /* \"#utility.yul\":7831:7867   */\n      swap1\n      sstore\n      pop\n        /* \"#utility.yul\":6782:8134   */\n      jump\t// out\n        /* \"#utility.yul\":8139:8266   */\n    tag_229:\n        /* \"#utility.yul\":8200:8210   */\n      0x4e487b71\n        /* \"#utility.yul\":8195:8198   */\n      0xe0\n        /* \"#utility.yul\":8191:8211   */\n      shl\n        /* \"#utility.yul\":8188:8189   */\n      0x00\n        /* \"#utility.yul\":8181:8212   */\n      mstore\n        /* \"#utility.yul\":8231:8235   */\n      0x12\n        /* \"#utility.yul\":8228:8229   */\n      0x04\n        /* \"#utility.yul\":8221:8236   */\n      mstore\n        /* \"#utility.yul\":8255:8259   */\n      0x24\n        /* \"#utility.yul\":8252:8253   */\n      0x00\n        /* \"#utility.yul\":8245:8260   */\n      revert\n        /* \"#utility.yul\":16136:16263   */\n    tag_563:\n        /* \"#utility.yul\":16197:16207   */\n      0x4e487b71\n        /* \"#utility.yul\":16192:16195   */\n      0xe0\n        /* \"#utility.yul\":16188:16208   */\n      shl\n        /* \"#utility.yul\":16185:16186   */\n      0x00\n        /* \"#utility.yul\":16178:16209   */\n      mstore\n        /* \"#utility.yul\":16228:16232   */\n      0x11\n        /* \"#utility.yul\":16225:16226   */\n      0x04\n        /* \"#utility.yul\":16218:16233   */\n      mstore\n        /* \"#utility.yul\":16252:16256   */\n      0x24\n        /* \"#utility.yul\":16249:16250   */\n      0x00\n        /* \"#utility.yul\":16242:16257   */\n      revert\n        /* \"#utility.yul\":16268:16396   */\n    tag_365:\n        /* \"#utility.yul\":16335:16344   */\n      dup2\n      dup2\n      sub\n        /* \"#utility.yul\":16356:16367   */\n      dup2\n      dup2\n      gt\n        /* \"#utility.yul\":16353:16390   */\n      iszero\n      tag_211\n      jumpi\n        /* \"#utility.yul\":16370:16388   */\n      tag_211\n      tag_563\n      jump\t// in\n        /* \"#utility.yul\":16820:16947   */\n    tag_374:\n        /* \"#utility.yul\":16881:16891   */\n      0x4e487b71\n        /* \"#utility.yul\":16876:16879   */\n      0xe0\n        /* \"#utility.yul\":16872:16892   */\n      shl\n        /* \"#utility.yul\":16869:16870   */\n      0x00\n        /* \"#utility.yul\":16862:16893   */\n      mstore\n        /* \"#utility.yul\":16912:16916   */\n      0x32\n        /* \"#utility.yul\":16909:16910   */\n      0x04\n        /* \"#utility.yul\":16902:16917   */\n      mstore\n        /* \"#utility.yul\":16936:16940   */\n      0x24\n        /* \"#utility.yul\":16933:16934   */\n      0x00\n        /* \"#utility.yul\":16926:16941   */\n      revert\n        /* \"#utility.yul\":16952:17087   */\n    tag_378:\n        /* \"#utility.yul\":16991:16994   */\n      0x00\n        /* \"#utility.yul\":17012:17029   */\n      0x01\n      dup3\n      add\n        /* \"#utility.yul\":17009:17052   */\n      tag_666\n      jumpi\n        /* \"#utility.yul\":17032:17050   */\n      tag_666\n      tag_563\n      jump\t// in\n    tag_666:\n      pop\n        /* \"#utility.yul\":17079:17080   */\n      0x01\n        /* \"#utility.yul\":17068:17081   */\n      add\n      swap1\n        /* \"#utility.yul\":16952:17087   */\n      jump\t// out\n        /* \"#utility.yul\":17092:17217   */\n    tag_383:\n        /* \"#utility.yul\":17157:17166   */\n      dup1\n      dup3\n      add\n        /* \"#utility.yul\":17178:17188   */\n      dup1\n      dup3\n      gt\n        /* \"#utility.yul\":17175:17211   */\n      iszero\n      tag_211\n      jumpi\n        /* \"#utility.yul\":17191:17209   */\n      tag_211\n      tag_563\n      jump\t// in\n        /* \"#utility.yul\":17222:17349   */\n    tag_387:\n        /* \"#utility.yul\":17283:17293   */\n      0x4e487b71\n        /* \"#utility.yul\":17278:17281   */\n      0xe0\n        /* \"#utility.yul\":17274:17294   */\n      shl\n        /* \"#utility.yul\":17271:17272   */\n      0x00\n        /* \"#utility.yul\":17264:17295   */\n      mstore\n        /* \"#utility.yul\":17314:17318   */\n      0x01\n        /* \"#utility.yul\":17311:17312   */\n      0x04\n        /* \"#utility.yul\":17304:17319   */\n      mstore\n        /* \"#utility.yul\":17338:17342   */\n      0x24\n        /* \"#utility.yul\":17335:17336   */\n      0x00\n        /* \"#utility.yul\":17328:17343   */\n      revert\n        /* \"#utility.yul\":19770:20288   */\n    tag_564:\n        /* \"#utility.yul\":19831:19834   */\n      0x00\n        /* \"#utility.yul\":19869:19874   */\n      dup2\n        /* \"#utility.yul\":19863:19875   */\n      sload\n        /* \"#utility.yul\":19896:19902   */\n      dup1\n        /* \"#utility.yul\":19891:19894   */\n      dup5\n        /* \"#utility.yul\":19884:19903   */\n      mstore\n        /* \"#utility.yul\":19922:19926   */\n      0x20\n        /* \"#utility.yul\":19951:19953   */\n      dup1\n        /* \"#utility.yul\":19946:19949   */\n      dup6\n        /* \"#utility.yul\":19942:19954   */\n      add\n        /* \"#utility.yul\":19935:19954   */\n      swap5\n      pop\n        /* \"#utility.yul\":19973:19978   */\n      dup4\n        /* \"#utility.yul\":19970:19971   */\n      0x00\n        /* \"#utility.yul\":19963:19979   */\n      mstore\n        /* \"#utility.yul\":20015:20017   */\n      dup1\n        /* \"#utility.yul\":20012:20013   */\n      0x00\n        /* \"#utility.yul\":20002:20018   */\n      keccak256\n        /* \"#utility.yul\":20036:20037   */\n      0x00\n        /* \"#utility.yul\":20046:20263   */\n    tag_678:\n        /* \"#utility.yul\":20060:20066   */\n      dup4\n        /* \"#utility.yul\":20057:20058   */\n      dup2\n        /* \"#utility.yul\":20054:20067   */\n      lt\n        /* \"#utility.yul\":20046:20263   */\n      iszero\n      tag_680\n      jumpi\n        /* \"#utility.yul\":20125:20138   */\n      dup2\n      sload\n      sub(shl(0xa0, 0x01), 0x01)\n        /* \"#utility.yul\":20121:20183   */\n      and\n        /* \"#utility.yul\":20109:20184   */\n      dup8\n      mstore\n        /* \"#utility.yul\":20204:20216   */\n      swap6\n      dup3\n      add\n      swap6\n        /* \"#utility.yul\":20251:20252   */\n      0x01\n        /* \"#utility.yul\":20239:20253   */\n      swap2\n      dup3\n      add\n      swap2\n        /* \"#utility.yul\":20075:20084   */\n      add\n        /* \"#utility.yul\":20046:20263   */\n      jump(tag_678)\n    tag_680:\n      pop\n        /* \"#utility.yul\":20279:20282   */\n      swap5\n      swap6\n        /* \"#utility.yul\":19770:20288   */\n      swap5\n      pop\n      pop\n      pop\n      pop\n      pop\n      jump\t// out\n        /* \"#utility.yul\":20293:20559   */\n    tag_447:\n        /* \"#utility.yul\":20469:20471   */\n      0x20\n        /* \"#utility.yul\":20458:20467   */\n      dup2\n        /* \"#utility.yul\":20451:20472   */\n      mstore\n        /* \"#utility.yul\":20432:20436   */\n      0x00\n        /* \"#utility.yul\":20489:20553   */\n      tag_555\n        /* \"#utility.yul\":20549:20551   */\n      0x20\n        /* \"#utility.yul\":20538:20547   */\n      dup4\n        /* \"#utility.yul\":20534:20552   */\n      add\n        /* \"#utility.yul\":20526:20532   */\n      dup5\n        /* \"#utility.yul\":20489:20553   */\n      tag_564\n      jump\t// in\n        /* \"#utility.yul\":21803:22363   */\n    tag_467:\n        /* \"#utility.yul\":22026:22030   */\n      0x00\n      sub(shl(0xa0, 0x01), 0x01)\n        /* \"#utility.yul\":22136:22138   */\n      dup1\n        /* \"#utility.yul\":22128:22134   */\n      dup8\n        /* \"#utility.yul\":22124:22139   */\n      and\n        /* \"#utility.yul\":22113:22122   */\n      dup4\n        /* \"#utility.yul\":22106:22140   */\n      mstore\n        /* \"#utility.yul\":22176:22179   */\n      0x80\n        /* \"#utility.yul\":22171:22173   */\n      0x20\n        /* \"#utility.yul\":22160:22169   */\n      dup5\n        /* \"#utility.yul\":22156:22174   */\n      add\n        /* \"#utility.yul\":22149:22180   */\n      mstore\n        /* \"#utility.yul\":22197:22262   */\n      tag_687\n        /* \"#utility.yul\":22257:22260   */\n      0x80\n        /* \"#utility.yul\":22246:22255   */\n      dup5\n        /* \"#utility.yul\":22242:22261   */\n      add\n        /* \"#utility.yul\":22234:22240   */\n      dup8\n        /* \"#utility.yul\":22197:22262   */\n      tag_564\n      jump\t// in\n    tag_687:\n        /* \"#utility.yul\":22298:22313   */\n      swap5\n      and\n        /* \"#utility.yul\":22293:22295   */\n      0x40\n        /* \"#utility.yul\":22278:22296   */\n      dup4\n      add\n        /* \"#utility.yul\":22271:22314   */\n      mstore\n      pop\n        /* \"#utility.yul\":22345:22347   */\n      0x60\n        /* \"#utility.yul\":22330:22348   */\n      add\n        /* \"#utility.yul\":22323:22357   */\n      mstore\n        /* \"#utility.yul\":22189:22262   */\n      swap3\n        /* \"#utility.yul\":21803:22363   */\n      swap2\n      pop\n      pop\n      jump\t// out\n        /* \"#utility.yul\":24198:25010   */\n    tag_530:\n        /* \"#utility.yul\":24609:24634   */\n      0x416363657373436f6e74726f6c3a206163636f756e7420000000000000000000\n        /* \"#utility.yul\":24604:24607   */\n      dup2\n        /* \"#utility.yul\":24597:24635   */\n      mstore\n        /* \"#utility.yul\":24579:24582   */\n      0x00\n        /* \"#utility.yul\":24664:24670   */\n      dup4\n        /* \"#utility.yul\":24658:24671   */\n      mload\n        /* \"#utility.yul\":24680:24755   */\n      tag_694\n        /* \"#utility.yul\":24748:24754   */\n      dup2\n        /* \"#utility.yul\":24743:24745   */\n      0x17\n        /* \"#utility.yul\":24738:24741   */\n      dup6\n        /* \"#utility.yul\":24734:24746   */\n      add\n        /* \"#utility.yul\":24727:24731   */\n      0x20\n        /* \"#utility.yul\":24719:24725   */\n      dup9\n        /* \"#utility.yul\":24715:24732   */\n      add\n        /* \"#utility.yul\":24680:24755   */\n      tag_559\n      jump\t// in\n    tag_694:\n        /* \"#utility.yul\":24819:24838   */\n      0x206973206d697373696e6720726f6c6520000000000000000000000000000000\n        /* \"#utility.yul\":24814:24816   */\n      0x17\n        /* \"#utility.yul\":24774:24790   */\n      swap2\n      dup5\n      add\n        /* \"#utility.yul\":24806:24817   */\n      swap2\n      dup3\n      add\n        /* \"#utility.yul\":24799:24839   */\n      mstore\n        /* \"#utility.yul\":24864:24877   */\n      dup4\n      mload\n        /* \"#utility.yul\":24886:24962   */\n      tag_695\n        /* \"#utility.yul\":24864:24877   */\n      dup2\n        /* \"#utility.yul\":24948:24950   */\n      0x28\n        /* \"#utility.yul\":24940:24951   */\n      dup5\n      add\n        /* \"#utility.yul\":24933:24937   */\n      0x20\n        /* \"#utility.yul\":24921:24938   */\n      dup9\n      add\n        /* \"#utility.yul\":24886:24962   */\n      tag_559\n      jump\t// in\n    tag_695:\n        /* \"#utility.yul\":24982:24999   */\n      add\n        /* \"#utility.yul\":25001:25003   */\n      0x28\n        /* \"#utility.yul\":24978:25004   */\n      add\n      swap5\n        /* \"#utility.yul\":24198:25010   */\n      swap4\n      pop\n      pop\n      pop\n      pop\n      jump\t// out\n        /* \"#utility.yul\":25015:25183   */\n    tag_534:\n        /* \"#utility.yul\":25088:25097   */\n      dup1\n      dup3\n      mul\n        /* \"#utility.yul\":25119:25128   */\n      dup2\n      iszero\n        /* \"#utility.yul\":25136:25151   */\n      dup3\n      dup3\n      div\n        /* \"#utility.yul\":25130:25152   */\n      dup5\n      eq\n        /* \"#utility.yul\":25116:25153   */\n      or\n        /* \"#utility.yul\":25106:25177   */\n      tag_211\n      jumpi\n        /* \"#utility.yul\":25157:25175   */\n      tag_211\n      tag_563\n      jump\t// in\n        /* \"#utility.yul\":25188:25324   */\n    tag_554:\n        /* \"#utility.yul\":25227:25230   */\n      0x00\n        /* \"#utility.yul\":25255:25260   */\n      dup2\n        /* \"#utility.yul\":25245:25284   */\n      tag_701\n      jumpi\n        /* \"#utility.yul\":25264:25282   */\n      tag_701\n      tag_563\n      jump\t// in\n    tag_701:\n      pop\n      not(0x00)\n        /* \"#utility.yul\":25300:25318   */\n      add\n      swap1\n        /* \"#utility.yul\":25188:25324   */\n      jump\t// out\n\n    auxdata: 0xa264697066735822122083f28c8f256eac6b2c1dc04e79a2ccfae4ed8aa4d50c8fc2b35fad09ac45bcfc64736f6c63430008110033\n}\n",
    "bytecode": {
      "linkReferences": {},
      "object": "6080604052600f600655600a80546001600160a01b031916736be3d955cb6cf9a52bc3c92f453309931012d38617905534801561003b57600080fd5b50612ff78061004b6000396000f3fe60806040526004361061026a5760003560e01c806363fc2f7c11610153578063a217fddf116100cb578063c9e1e6851161007f578063d547741f11610064578063d547741f146106fd578063e65f2a7e1461071d578063eac989f81461072557600080fd5b8063c9e1e685146106a0578063cef9d4cf146106cd57600080fd5b8063aabe0243116100b0578063aabe024314610655578063b46bff891461066b578063c7dea2f21461068b57600080fd5b8063a217fddf1461062b578063a710b6c81461064057600080fd5b806381c477051161012257806391d148541161010757806391d14854146105a757806393066b4c146105eb578063966dae0e1461060b57600080fd5b806381c4770514610552578063900feb3b1461058657600080fd5b806363fc2f7c146104ea57806372e435641461051757806377c93662146105375780637cbdce9b1461053f57600080fd5b80632f2ff15d116101e657806342f6487a116101b5578063485cc9551161019a578063485cc95514610494578063489b0738146104b457806350b9a0e5146104d457600080fd5b806342f6487a1461045e57806347568c581461047457600080fd5b80632f2ff15d146103e257806332865da61461040257806336568abe146104365780633ccfd60b1461045657600080fd5b80631e4641191161023d57806328bfb31d1161022257806328bfb31d146103865780632a0acc6a1461038e5780632c713d97146103c257600080fd5b80631e46411914610334578063248a9ca31461035657600080fd5b806301ffc9a71461026f57806306ead22e146102a4578063085aecef146102dc5780631d073a7a14610300575b600080fd5b34801561027b57600080fd5b5061028f61028a366004612a83565b610747565b60405190151581526020015b60405180910390f35b3480156102b057600080fd5b506102c46102bf366004612aad565b61077e565b6040516001600160a01b03909116815260200161029b565b3480156102e857600080fd5b506102f260035481565b60405190815260200161029b565b34801561030c57600080fd5b506102f27f5f0a5f78118b6e0b700e0357ae3909aaafe8fa706a075935688657cf4135f9a981565b34801561034057600080fd5b5061035461034f366004612adc565b6107a8565b005b34801561036257600080fd5b506102f2610371366004612aad565b60009081526020819052604090206001015490565b610354610949565b34801561039a57600080fd5b506102f27fdf8b4c520ffe197c5343c6f5aec59570151ef9a492f2c624fd45ddde6135ec4281565b3480156103ce57600080fd5b50600a546102c4906001600160a01b031681565b3480156103ee57600080fd5b506103546103fd366004612bac565b610be1565b34801561040e57600080fd5b506102f27fc951d7098b66ba0b8b77265b6e9cf0e187d73125a42bcd0061b09a68be42181081565b34801561044257600080fd5b50610354610451366004612bac565b610c0b565b610354610c97565b34801561046a57600080fd5b506102f260025481565b34801561048057600080fd5b5060015461028f9062010000900460ff1681565b3480156104a057600080fd5b506103546104af366004612bdc565b610fcc565b3480156104c057600080fd5b506103546104cf366004612c0a565b611199565b3480156104e057600080fd5b506102f260055481565b3480156104f657600080fd5b506102f2610505366004612c0a565b600c6020526000908152604090205481565b34801561052357600080fd5b50610354610532366004612c0a565b61141f565b610354611641565b61035461054d366004612c27565b6119cd565b34801561055e57600080fd5b506102f27f534b5b9fe29299d99ea2855da6940643d68ed225db268dc8d86c1f38df5de79481565b34801561059257600080fd5b5060015461028f906301000000900460ff1681565b3480156105b357600080fd5b5061028f6105c2366004612bac565b6000918252602082815260408084206001600160a01b0393909316845291905290205460ff1690565b3480156105f757600080fd5b506102c4610606366004612aad565b611de5565b34801561061757600080fd5b50600f546102c4906001600160a01b031681565b34801561063757600080fd5b506102f2600081565b34801561064c57600080fd5b50610354611df5565b34801561066157600080fd5b506102f260045481565b34801561067757600080fd5b506007546102c4906001600160a01b031681565b34801561069757600080fd5b506103546120a8565b3480156106ac57600080fd5b506102f26106bb366004612c0a565b600d6020526000908152604090205481565b3480156106d957600080fd5b5061028f6106e8366004612c0a565b600e6020526000908152604090205460ff1681565b34801561070957600080fd5b50610354610718366004612bac565b612322565b610354612347565b34801561073157600080fd5b5061073a61269d565b60405161029b9190612c77565b60006001600160e01b03198216637965db0b60e01b148061077857506301ffc9a760e01b6001600160e01b03198316145b92915050565b6009818154811061078e57600080fd5b6000918252602090912001546001600160a01b0316905081565b7f534b5b9fe29299d99ea2855da6940643d68ed225db268dc8d86c1f38df5de7946107d28161272b565b6001546301000000900460ff161561087d5760405162461bcd60e51b815260206004820152605560248201527f596f752063616e6e6f74206368616e6765206368616e6765207061796d656e7460448201527f20616674657220697420686173206265656e207365742c20706c65617365206360648201527f726561746520616e6f7468657220636f757273652e0000000000000000000000608482015260a4015b60405180910390fd5b60015462010000900460ff16156108d65760405162461bcd60e51b815260206004820152601e60248201527f596f752063616e6e6f74206368616e676520746865207061796d656e742e00006044820152606401610874565b6002839055600b6108e78382612d2a565b5060065483816108f9576108f9612dea565b046003556001805463ff000000191663010000001781556040519081527f0e5fda8e788ab9be7c3068babfffe1846f9ad5fcfe7a684af4a7ae7842a47a4a906020015b60405180910390a1505050565b7fc951d7098b66ba0b8b77265b6e9cf0e187d73125a42bcd0061b09a68be4218106109738161272b565b6001805462010000900460ff161515146109f55760405162461bcd60e51b815260206004820152603b60248201527f436f7572736520686173206e6f742073746172746564207965742c206665656c60448201527f206672656520746f2073696d706c79207769746864726177203a2900000000006064820152608401610874565b336000908152600e602052604090205460ff1615610a7b5760405162461bcd60e51b815260206004820152602660248201527f596f75206861766520636f6d706c657465642074686520636f7572736520616c60448201527f72656164792100000000000000000000000000000000000000000000000000006064820152608401610874565b600a546003546040516000926001600160a01b031691908381818185875af1925050503d8060008114610aca576040519150601f19603f3d011682016040523d82523d6000602084013e610acf565b606091505b5050905080610b205760405162461bcd60e51b815260206004820152601860248201527f4661696c656420746f2064726f7020636f75727365203a2800000000000000006044820152606401610874565b610b4a7fc951d7098b66ba0b8b77265b6e9cf0e187d73125a42bcd0061b09a68be42181033612738565b60105460035460405163bba870c360e01b815233600482015260248101919091526001600160a01b039091169063bba870c390604401600060405180830381600087803b158015610b9a57600080fd5b505af1158015610bae573d6000803e3d6000fd5b50506040513392507fe1722977903518c8963f6ab648a2693b25e00e4e3e8ee0a47a8f4319965e7a069150600090a25050565b600082815260208190526040902060010154610bfc8161272b565b610c0683836127b7565b505050565b6001600160a01b0381163314610c895760405162461bcd60e51b815260206004820152602f60248201527f416363657373436f6e74726f6c3a2063616e206f6e6c792072656e6f756e636560448201527f20726f6c657320666f722073656c6600000000000000000000000000000000006064820152608401610874565b610c938282612738565b5050565b3360009081527ff53340aa310a9e3c37f9f5b4aadf1810fa110ccc43b59edd5f638eb6c7aabd36602052604090205460ff16610d155760405162461bcd60e51b815260206004820152601560248201527f596f7520617265206e6f7420656e726f6c6c65642100000000000000000000006044820152606401610874565b600354471015610d675760405162461bcd60e51b815260206004820152601460248201527f4e6f2062616c616e636520617661696c61626c650000000000000000000000006044820152606401610874565b60015462010000900460ff1615610de65760405162461bcd60e51b815260206004820152603360248201527f596f75206861766520746f2064726f706f75742062656361757365207468652060448201527f636f757273652068617320737461727465642e000000000000000000000000006064820152608401610874565b3415610e345760405162461bcd60e51b815260206004820152601260248201527f4c656176652076616c756520656d7074792e00000000000000000000000000006044820152606401610874565b336000818152600c6020526040812055610e6f907fc951d7098b66ba0b8b77265b6e9cf0e187d73125a42bcd0061b09a68be42181090612738565b60035460405160009133918381818185875af1925050503d8060008114610eb2576040519150601f19603f3d011682016040523d82523d6000602084013e610eb7565b606091505b5050905080610f085760405162461bcd60e51b815260206004820152601560248201527f4661696c656420746f207769746864726177203a2800000000000000000000006044820152606401610874565b601054600354604051635dd0701160e01b815233600482015260248101919091526001600160a01b0390911690635dd0701190604401600060405180830381600087803b158015610f5857600080fd5b505af1158015610f6c573d6000803e3d6000fd5b5050604080517fc951d7098b66ba0b8b77265b6e9cf0e187d73125a42bcd0061b09a68be42181081523360208201527f76e6093c136cd7faa5a6d92b2b633f3b4595abd4a529b7a13917398355fea694935001905060405180910390a150565b600154610100900460ff1615808015610fe957506001805460ff16105b806110025750303b15801561100257506001805460ff16145b6110745760405162461bcd60e51b815260206004820152602e60248201527f496e697469616c697a61626c653a20636f6e747261637420697320616c72656160448201527f647920696e697469616c697a65640000000000000000000000000000000000006064820152608401610874565b6001805460ff1916811790558015611096576001805461ff0019166101001790555b600a546110ae906000906001600160a01b03166127b7565b600a546110e5907fdf8b4c520ffe197c5343c6f5aec59570151ef9a492f2c624fd45ddde6135ec42906001600160a01b03166127b7565b61110f7f534b5b9fe29299d99ea2855da6940643d68ed225db268dc8d86c1f38df5de794846127b7565b600f805473ffffffffffffffffffffffffffffffffffffffff199081166001600160a01b038581169182179093556010805483169091179055600780549091169185169190911790558015610c06576001805461ff00191681556040519081527f7f26b83ff96e1f2b6a682f133852f6798a09c465da95921460cefb38474024989060200161093c565b7f534b5b9fe29299d99ea2855da6940643d68ed225db268dc8d86c1f38df5de7946111c38161272b565b6001600160a01b03821660009081527ff53340aa310a9e3c37f9f5b4aadf1810fa110ccc43b59edd5f638eb6c7aabd36602052604090205460ff1661124a5760405162461bcd60e51b815260206004820152600e60248201527f4e6f7420612073747564656e74210000000000000000000000000000000000006044820152606401610874565b6001805462010000900460ff1615151461126357600080fd5b6001600160a01b0382166000818152600e6020526040808220805460ff19166001908117909155805463ff00000019166301000000179055600354905191929160006040518083038185875af1925050503d80600081146112e0576040519150601f19603f3d011682016040523d82523d6000602084013e6112e5565b606091505b50509050806113425760405162461bcd60e51b8152602060048201526024808201527f4661696c656420746f2073656e64207374616b65206261636b20746f2073747560448201526319195b9d60e21b6064820152608401610874565b601054600354604051635c924ba160e11b81523360048201526001600160a01b038681166024830152604482019290925291169063b924974290606401600060405180830381600087803b15801561139957600080fd5b505af11580156113ad573d6000803e3d6000fd5b5050604051600181527f0e5fda8e788ab9be7c3068babfffe1846f9ad5fcfe7a684af4a7ae7842a47a4a9250602001905060405180910390a16040516001600160a01b038416907fe43ca6e7f4a14343afa9e106f02218cd6cbcbfa00762bcec9000291df6a7387c90600090a2505050565b7f534b5b9fe29299d99ea2855da6940643d68ed225db268dc8d86c1f38df5de7946114498161272b565b6001600160a01b03821660009081527ff53340aa310a9e3c37f9f5b4aadf1810fa110ccc43b59edd5f638eb6c7aabd36602052604090205460ff166114d05760405162461bcd60e51b815260206004820152601a60248201527f41646472657373206973206e6f7420656e726f6c6c6564203a2f0000000000006044820152606401610874565b6114fa7fc951d7098b66ba0b8b77265b6e9cf0e187d73125a42bcd0061b09a68be42181083612738565b600a546003546040516000926001600160a01b031691908381818185875af1925050503d8060008114611549576040519150601f19603f3d011682016040523d82523d6000602084013e61154e565b606091505b505090508061159f5760405162461bcd60e51b815260206004820152601260248201527f4661696c656420746f20626f6f74203e3a2800000000000000000000000000006044820152606401610874565b60105460035460405163d5e136f160e01b81526001600160a01b038681166004830152602482019290925291169063d5e136f190604401600060405180830381600087803b1580156115f057600080fd5b505af1158015611604573d6000803e3d6000fd5b50506040516001600160a01b03861692507fe1722977903518c8963f6ab648a2693b25e00e4e3e8ee0a47a8f4319965e7a069150600090a2505050565b60015462010000900460ff161561169a5760405162461bcd60e51b815260206004820152601960248201527f436f757273652068617320616c726561647920626567756e2e000000000000006044820152606401610874565b600454600254116116f75760405162461bcd60e51b815260206004820152602160248201527f5468697320636f757273652069732066756c6c792073706f6e736f726564203a6044820152602960f81b6064820152608401610874565b6000341161176d5760405162461bcd60e51b815260206004820152602760248201527f506c6561736520696e70757420616d6f756e7420796f75207769736820746f2060448201527f73706f6e736f72000000000000000000000000000000000000000000000000006064820152608401610874565b60045460025461177d9190612e16565b3411156117f25760405162461bcd60e51b815260206004820152603260248201527f506c6561736520696e707574207468652053706f6e736f727368697020616d6f60448201527f756e74206e6565646564206f72206c65737300000000000000000000000000006064820152608401610874565b6000805b60085481101561185257336001600160a01b03166008828154811061181d5761181d612e29565b6000918252602090912001546001600160a01b0316036118405760019150611852565b8061184a81612e3f565b9150506117f6565b50806118d2576118827f5f0a5f78118b6e0b700e0357ae3909aaafe8fa706a075935688657cf4135f9a9336127b7565b600880546001810182556000919091527ff3f7a9fe364faab93b216da50a3214154f22a0a2b415b23a84c8169e8b636ee301805473ffffffffffffffffffffffffffffffffffffffff1916331790555b336000908152600d60205260408120546118ed903490612e58565b90506000346004546118ff9190612e58565b905060045481101561191357611913612e6b565b6004818155336000818152600d60205260409081902085905560105490516312bf5ec960e11b8152928301919091523060248301523460448301526001600160a01b03169063257ebd9290606401600060405180830381600087803b15801561197b57600080fd5b505af115801561198f573d6000803e3d6000fd5b50506040513381528492507f55370c12b8f214ca7b1b758b035231bbf6e98114fb08765921705df59b42ae22915060200160405180910390a2505050565b7f5f0a5f78118b6e0b700e0357ae3909aaafe8fa706a075935688657cf4135f9a96119f78161272b565b60015462010000900460ff1615611a505760405162461bcd60e51b815260206004820152601960248201527f436f757273652068617320616c726561647920626567756e2e000000000000006044820152606401610874565b60008211611aac5760405162461bcd60e51b815260206004820152602360248201527f506c6561736520696e70757420616e20616d6f756e7420746f20756e73706f6e60448201526239b7b960e91b6064820152608401610874565b6001600160a01b0383166000908152600d6020526040902054821115611b205760405162461bcd60e51b8152602060048201526024808201527f54686174206973206d6f7265207468616e20796f7520686176652073706f6e736044820152631bdc995960e21b6064820152608401610874565b6001600160a01b0383163314611b9e5760405162461bcd60e51b815260206004820152602660248201527f596f7520617265206e6f7420746865206f776e6572206f66207468697320616460448201527f64726573732e00000000000000000000000000000000000000000000000000006064820152608401610874565b6000836001600160a01b03168360405160006040518083038185875af1925050503d8060008114611beb576040519150601f19603f3d011682016040523d82523d6000602084013e611bf0565b606091505b5050905080611c415760405162461bcd60e51b815260206004820152601560248201527f4661696c656420746f207769746864726177203a2800000000000000000000006044820152606401610874565b6001600160a01b0384166000908152600d6020526040812054611c65908590612e16565b6001600160a01b0386166000908152600d6020526040902054909150811115611c9057611c90612e6b565b600084600454611ca09190612e16565b9050600454811115611cb457611cb4612e6b565b60048181556001600160a01b038781166000908152600d60205260409081902085905560105490516352dbfbab60e11b8152339381019390935260248301889052169063a5b7f75690604401600060405180830381600087803b158015611d1a57600080fd5b505af1158015611d2e573d6000803e3d6000fd5b505050506001600160a01b0386166000908152600d60205260408120549003611ddd57611d7b7f5f0a5f78118b6e0b700e0357ae3909aaafe8fa706a075935688657cf4135f9a987612738565b604080517f5f0a5f78118b6e0b700e0357ae3909aaafe8fa706a075935688657cf4135f9a981526001600160a01b03881660208201527f76e6093c136cd7faa5a6d92b2b633f3b4595abd4a529b7a13917398355fea694910160405180910390a15b505050505050565b6008818154811061078e57600080fd5b7f534b5b9fe29299d99ea2855da6940643d68ed225db268dc8d86c1f38df5de794611e1f8161272b565b60015462010000900460ff1615611e3557600080fd5b600180546301000000900460ff16151514611e4f57600080fd5b60045460025414611ec85760405162461bcd60e51b815260206004820152602d60248201527f436f7572736520697320686173206e6f74206265656e2066756c6c792073706f60448201527f6e736f72656420796574203a28000000000000000000000000000000000000006064820152608401610874565b600060045447611ed89190612e16565b9050600354811015611f5e5760405162461bcd60e51b815260206004820152604360248201527f596f75206e65656420746f2068617665206174206c65617374206f6e6520537460448201527f7564656e7420656e726f6c6c656420746f2073746172742074686520436f757260648201526273652160e81b608482015260a401610874565b6001805463ffff0000191662010000179055601054600254604051632cd35c9960e01b815233600482015260248101919091526001600160a01b0390911690632cd35c9990604401600060405180830381600087803b158015611fc057600080fd5b505af1158015611fd4573d6000803e3d6000fd5b505060105460405163f34355a960e01b81526001600160a01b03909116925063f34355a9915061200990600890600401612eca565b600060405180830381600087803b15801561202357600080fd5b505af1158015612037573d6000803e3d6000fd5b5050604051600181527f892b130b262705d95cf1801b6fbf10c8b36dbdb5a00b82185a0f1944958050239250602001905060405180910390a1604051600081527f0e5fda8e788ab9be7c3068babfffe1846f9ad5fcfe7a684af4a7ae7842a47a4a9060200160405180910390a15050565b7f534b5b9fe29299d99ea2855da6940643d68ed225db268dc8d86c1f38df5de7946120d28161272b565b6001805462010000900460ff1615151461217a5760405162461bcd60e51b815260206004820152604560248201527f596f75206861766520746f20737461727420616e6420636f6d706c657465207460448201527f686520636f7572736520746f20636f6c6c6563742073706f6e736f722070617960648201527f6d656e742e000000000000000000000000000000000000000000000000000000608482015260a401610874565b600180546301000000900460ff161515146121fd5760405162461bcd60e51b815260206004820152602d60248201527f506c65617365207061737320612073747564656e7420746f20636f6d706c657460448201527f652074686520636f757273652e000000000000000000000000000000000000006064820152608401610874565b6002546040513391600091839180156108fc029184818181858888f1935050505090508061226d5760405162461bcd60e51b815260206004820152601260248201527f4661696c656420746f20636c61696d203a2800000000000000000000000000006044820152606401610874565b6010546002546040517fff67ebe80000000000000000000000000000000000000000000000000000000081526001600160a01b039092169163ff67ebe8916122bf913391600891309190600401612edd565b600060405180830381600087803b1580156122d957600080fd5b505af11580156122ed573d6000803e3d6000fd5b505050507f3e773b8609d2fd918870802d374f13aa52a750da3359a51338c769b570c14f6c4260405161093c91815260200190565b60008281526020819052604090206001015461233d8161272b565b610c068383612738565b3360009081527f5f071dd6fe62dae2e1cc850ef7d27824ae902f16f686d11a704d6b1e7629bdf9602052604090205460ff16156123ec5760405162461bcd60e51b815260206004820152602b60248201527f54656163686572732063616e6e6f7420656e726f6c6c20696e2074686569722060448201527f6f776e20636f75727365210000000000000000000000000000000000000000006064820152608401610874565b60015462010000900460ff16156124455760405162461bcd60e51b815260206004820152601d60248201527f436f757273652068617320616c72656164792073746172746564203a280000006044820152606401610874565b3360009081527ff53340aa310a9e3c37f9f5b4aadf1810fa110ccc43b59edd5f638eb6c7aabd36602052604090205460ff16156124c45760405162461bcd60e51b815260206004820152601960248201527f596f752061726520656e726f6c6c656420616c726561647921000000000000006044820152606401610874565b60035434146125155760405162461bcd60e51b815260206004820152601f60248201527f506c65617365205374616b652074686520436f727265637420416d6f756e74006044820152606401610874565b600180546301000000900460ff161515146125725760405162461bcd60e51b815260206004820152601160248201527f456e726f6c6c6d656e7420436c6f7365640000000000000000000000000000006044820152606401610874565b346003556125a07fc951d7098b66ba0b8b77265b6e9cf0e187d73125a42bcd0061b09a68be421810336127b7565b60098054600181019091557f6e1540171b6c0c960b71a7020d9f60077f6af931a8bbf590da0223dacf75c7af01805473ffffffffffffffffffffffffffffffffffffffff1916339081179091556003546000828152600c6020526040908190208290556010549051636e9d3d5760e01b8152600481019390935260248301919091526001600160a01b031690636e9d3d5790604401600060405180830381600087803b15801561264f57600080fd5b505af1158015612663573d6000803e3d6000fd5b50506040513381527fcf2a1c3c7a67eb28c4843f17631ff117d727317fc31e3e6b454c9b83dc789cec9250602001905060405180910390a1565b600b80546126aa90612caa565b80601f01602080910402602001604051908101604052809291908181526020018280546126d690612caa565b80156127235780601f106126f857610100808354040283529160200191612723565b820191906000526020600020905b81548152906001019060200180831161270657829003601f168201915b505050505081565b6127358133612855565b50565b6000828152602081815260408083206001600160a01b038516845290915290205460ff1615610c93576000828152602081815260408083206001600160a01b0385168085529252808320805460ff1916905551339285917ff6391f5c32d9c69d2a47ea670b442974b53935d1edc7fd64eb21e047a839171b9190a45050565b6000828152602081815260408083206001600160a01b038516845290915290205460ff16610c93576000828152602081815260408083206001600160a01b03851684529091529020805460ff191660011790556128113390565b6001600160a01b0316816001600160a01b0316837f2f8788117e7eff1d82e926ec794901d17c78024a50270940304540a733656f0d60405160405180910390a45050565b6000828152602081815260408083206001600160a01b038516845290915290205460ff16610c9357612891816001600160a01b031660146128d3565b61289c8360206128d3565b6040516020016128ad929190612f12565b60408051601f198184030181529082905262461bcd60e51b825261087491600401612c77565b606060006128e2836002612f93565b6128ed906002612e58565b67ffffffffffffffff81111561290557612905612ac6565b6040519080825280601f01601f19166020018201604052801561292f576020820181803683370190505b509050600360fc1b8160008151811061294a5761294a612e29565b60200101906001600160f81b031916908160001a905350600f60fb1b8160018151811061297957612979612e29565b60200101906001600160f81b031916908160001a905350600061299d846002612f93565b6129a8906001612e58565b90505b6001811115612a2d577f303132333435363738396162636465660000000000000000000000000000000085600f16601081106129e9576129e9612e29565b1a60f81b8282815181106129ff576129ff612e29565b60200101906001600160f81b031916908160001a90535060049490941c93612a2681612faa565b90506129ab565b508315612a7c5760405162461bcd60e51b815260206004820181905260248201527f537472696e67733a20686578206c656e67746820696e73756666696369656e746044820152606401610874565b9392505050565b600060208284031215612a9557600080fd5b81356001600160e01b031981168114612a7c57600080fd5b600060208284031215612abf57600080fd5b5035919050565b634e487b7160e01b600052604160045260246000fd5b60008060408385031215612aef57600080fd5b82359150602083013567ffffffffffffffff80821115612b0e57600080fd5b818501915085601f830112612b2257600080fd5b813581811115612b3457612b34612ac6565b604051601f8201601f19908116603f01168101908382118183101715612b5c57612b5c612ac6565b81604052828152886020848701011115612b7557600080fd5b8260208601602083013760006020848301015280955050505050509250929050565b6001600160a01b038116811461273557600080fd5b60008060408385031215612bbf57600080fd5b823591506020830135612bd181612b97565b809150509250929050565b60008060408385031215612bef57600080fd5b8235612bfa81612b97565b91506020830135612bd181612b97565b600060208284031215612c1c57600080fd5b8135612a7c81612b97565b60008060408385031215612c3a57600080fd5b8235612c4581612b97565b946020939093013593505050565b60005b83811015612c6e578181015183820152602001612c56565b50506000910152565b6020815260008251806020840152612c96816040850160208701612c53565b601f01601f19169190910160400192915050565b600181811c90821680612cbe57607f821691505b602082108103612cde57634e487b7160e01b600052602260045260246000fd5b50919050565b601f821115610c0657600081815260208120601f850160051c81016020861015612d0b5750805b601f850160051c820191505b81811015611ddd57828155600101612d17565b815167ffffffffffffffff811115612d4457612d44612ac6565b612d5881612d528454612caa565b84612ce4565b602080601f831160018114612d8d5760008415612d755750858301515b600019600386901b1c1916600185901b178555611ddd565b600085815260208120601f198616915b82811015612dbc57888601518255948401946001909101908401612d9d565b5085821015612dda5787850151600019600388901b60f8161c191681555b5050505050600190811b01905550565b634e487b7160e01b600052601260045260246000fd5b634e487b7160e01b600052601160045260246000fd5b8181038181111561077857610778612e00565b634e487b7160e01b600052603260045260246000fd5b600060018201612e5157612e51612e00565b5060010190565b8082018082111561077857610778612e00565b634e487b7160e01b600052600160045260246000fd5b6000815480845260208085019450836000528060002060005b83811015612ebf5781546001600160a01b031687529582019560019182019101612e9a565b509495945050505050565b602081526000612a7c6020830184612e81565b60006001600160a01b03808716835260806020840152612f006080840187612e81565b94166040830152506060015292915050565b7f416363657373436f6e74726f6c3a206163636f756e7420000000000000000000815260008351612f4a816017850160208801612c53565b7f206973206d697373696e6720726f6c65200000000000000000000000000000006017918401918201528351612f87816028840160208801612c53565b01602801949350505050565b808202811582820484141761077857610778612e00565b600081612fb957612fb9612e00565b50600019019056fea264697066735822122083f28c8f256eac6b2c1dc04e79a2ccfae4ed8aa4d50c8fc2b35fad09ac45bcfc64736f6c63430008110033",
      "opcodes": "PUSH1 0x80 PUSH1 0x40 MSTORE PUSH1 0xF PUSH1 0x6 SSTORE PUSH1 0xA DUP1 SLOAD PUSH1 0x1 PUSH1 0x1 PUSH1 0xA0 SHL SUB NOT AND PUSH20 0x6BE3D955CB6CF9A52BC3C92F453309931012D386 OR SWAP1 SSTORE CALLVALUE DUP1 ISZERO PUSH2 0x3B JUMPI PUSH1 0x0 DUP1 REVERT JUMPDEST POP PUSH2 0x2FF7 DUP1 PUSH2 0x4B PUSH1 0x0 CODECOPY PUSH1 0x0 RETURN INVALID PUSH1 0x80 PUSH1 0x40 MSTORE PUSH1 0x4 CALLDATASIZE LT PUSH2 0x26A JUMPI PUSH1 0x0 CALLDATALOAD PUSH1 0xE0 SHR DUP1 PUSH4 0x63FC2F7C GT PUSH2 0x153 JUMPI DUP1 PUSH4 0xA217FDDF GT PUSH2 0xCB JUMPI DUP1 PUSH4 0xC9E1E685 GT PUSH2 0x7F JUMPI DUP1 PUSH4 0xD547741F GT PUSH2 0x64 JUMPI DUP1 PUSH4 0xD547741F EQ PUSH2 0x6FD JUMPI DUP1 PUSH4 0xE65F2A7E EQ PUSH2 0x71D JUMPI DUP1 PUSH4 0xEAC989F8 EQ PUSH2 0x725 JUMPI PUSH1 0x0 DUP1 REVERT JUMPDEST DUP1 PUSH4 0xC9E1E685 EQ PUSH2 0x6A0 JUMPI DUP1 PUSH4 0xCEF9D4CF EQ PUSH2 0x6CD JUMPI PUSH1 0x0 DUP1 REVERT JUMPDEST DUP1 PUSH4 0xAABE0243 GT PUSH2 0xB0 JUMPI DUP1 PUSH4 0xAABE0243 EQ PUSH2 0x655 JUMPI DUP1 PUSH4 0xB46BFF89 EQ PUSH2 0x66B JUMPI DUP1 PUSH4 0xC7DEA2F2 EQ PUSH2 0x68B JUMPI PUSH1 0x0 DUP1 REVERT JUMPDEST DUP1 PUSH4 0xA217FDDF EQ PUSH2 0x62B JUMPI DUP1 PUSH4 0xA710B6C8 EQ PUSH2 0x640 JUMPI PUSH1 0x0 DUP1 REVERT JUMPDEST DUP1 PUSH4 0x81C47705 GT PUSH2 0x122 JUMPI DUP1 PUSH4 0x91D14854 GT PUSH2 0x107 JUMPI DUP1 PUSH4 0x91D14854 EQ PUSH2 0x5A7 JUMPI DUP1 PUSH4 0x93066B4C EQ PUSH2 0x5EB JUMPI DUP1 PUSH4 0x966DAE0E EQ PUSH2 0x60B JUMPI PUSH1 0x0 DUP1 REVERT JUMPDEST DUP1 PUSH4 0x81C47705 EQ PUSH2 0x552 JUMPI DUP1 PUSH4 0x900FEB3B EQ PUSH2 0x586 JUMPI PUSH1 0x0 DUP1 REVERT JUMPDEST DUP1 PUSH4 0x63FC2F7C EQ PUSH2 0x4EA JUMPI DUP1 PUSH4 0x72E43564 EQ PUSH2 0x517 JUMPI DUP1 PUSH4 0x77C93662 EQ PUSH2 0x537 JUMPI DUP1 PUSH4 0x7CBDCE9B EQ PUSH2 0x53F JUMPI PUSH1 0x0 DUP1 REVERT JUMPDEST DUP1 PUSH4 0x2F2FF15D GT PUSH2 0x1E6 JUMPI DUP1 PUSH4 0x42F6487A GT PUSH2 0x1B5 JUMPI DUP1 PUSH4 0x485CC955 GT PUSH2 0x19A JUMPI DUP1 PUSH4 0x485CC955 EQ PUSH2 0x494 JUMPI DUP1 PUSH4 0x489B0738 EQ PUSH2 0x4B4 JUMPI DUP1 PUSH4 0x50B9A0E5 EQ PUSH2 0x4D4 JUMPI PUSH1 0x0 DUP1 REVERT JUMPDEST DUP1 PUSH4 0x42F6487A EQ PUSH2 0x45E JUMPI DUP1 PUSH4 0x47568C58 EQ PUSH2 0x474 JUMPI PUSH1 0x0 DUP1 REVERT JUMPDEST DUP1 PUSH4 0x2F2FF15D EQ PUSH2 0x3E2 JUMPI DUP1 PUSH4 0x32865DA6 EQ PUSH2 0x402 JUMPI DUP1 PUSH4 0x36568ABE EQ PUSH2 0x436 JUMPI DUP1 PUSH4 0x3CCFD60B EQ PUSH2 0x456 JUMPI PUSH1 0x0 DUP1 REVERT JUMPDEST DUP1 PUSH4 0x1E464119 GT PUSH2 0x23D JUMPI DUP1 PUSH4 0x28BFB31D GT PUSH2 0x222 JUMPI DUP1 PUSH4 0x28BFB31D EQ PUSH2 0x386 JUMPI DUP1 PUSH4 0x2A0ACC6A EQ PUSH2 0x38E JUMPI DUP1 PUSH4 0x2C713D97 EQ PUSH2 0x3C2 JUMPI PUSH1 0x0 DUP1 REVERT JUMPDEST DUP1 PUSH4 0x1E464119 EQ PUSH2 0x334 JUMPI DUP1 PUSH4 0x248A9CA3 EQ PUSH2 0x356 JUMPI PUSH1 0x0 DUP1 REVERT JUMPDEST DUP1 PUSH4 0x1FFC9A7 EQ PUSH2 0x26F JUMPI DUP1 PUSH4 0x6EAD22E EQ PUSH2 0x2A4 JUMPI DUP1 PUSH4 0x85AECEF EQ PUSH2 0x2DC JUMPI DUP1 PUSH4 0x1D073A7A EQ PUSH2 0x300 JUMPI JUMPDEST PUSH1 0x0 DUP1 REVERT JUMPDEST CALLVALUE DUP1 ISZERO PUSH2 0x27B JUMPI PUSH1 0x0 DUP1 REVERT JUMPDEST POP PUSH2 0x28F PUSH2 0x28A CALLDATASIZE PUSH1 0x4 PUSH2 0x2A83 JUMP JUMPDEST PUSH2 0x747 JUMP JUMPDEST PUSH1 0x40 MLOAD SWAP1 ISZERO ISZERO DUP2 MSTORE PUSH1 0x20 ADD JUMPDEST PUSH1 0x40 MLOAD DUP1 SWAP2 SUB SWAP1 RETURN JUMPDEST CALLVALUE DUP1 ISZERO PUSH2 0x2B0 JUMPI PUSH1 0x0 DUP1 REVERT JUMPDEST POP PUSH2 0x2C4 PUSH2 0x2BF CALLDATASIZE PUSH1 0x4 PUSH2 0x2AAD JUMP JUMPDEST PUSH2 0x77E JUMP JUMPDEST PUSH1 0x40 MLOAD PUSH1 0x1 PUSH1 0x1 PUSH1 0xA0 SHL SUB SWAP1 SWAP2 AND DUP2 MSTORE PUSH1 0x20 ADD PUSH2 0x29B JUMP JUMPDEST CALLVALUE DUP1 ISZERO PUSH2 0x2E8 JUMPI PUSH1 0x0 DUP1 REVERT JUMPDEST POP PUSH2 0x2F2 PUSH1 0x3 SLOAD DUP2 JUMP JUMPDEST PUSH1 0x40 MLOAD SWAP1 DUP2 MSTORE PUSH1 0x20 ADD PUSH2 0x29B JUMP JUMPDEST CALLVALUE DUP1 ISZERO PUSH2 0x30C JUMPI PUSH1 0x0 DUP1 REVERT JUMPDEST POP PUSH2 0x2F2 PUSH32 0x5F0A5F78118B6E0B700E0357AE3909AAAFE8FA706A075935688657CF4135F9A9 DUP2 JUMP JUMPDEST CALLVALUE DUP1 ISZERO PUSH2 0x340 JUMPI PUSH1 0x0 DUP1 REVERT JUMPDEST POP PUSH2 0x354 PUSH2 0x34F CALLDATASIZE PUSH1 0x4 PUSH2 0x2ADC JUMP JUMPDEST PUSH2 0x7A8 JUMP JUMPDEST STOP JUMPDEST CALLVALUE DUP1 ISZERO PUSH2 0x362 JUMPI PUSH1 0x0 DUP1 REVERT JUMPDEST POP PUSH2 0x2F2 PUSH2 0x371 CALLDATASIZE PUSH1 0x4 PUSH2 0x2AAD JUMP JUMPDEST PUSH1 0x0 SWAP1 DUP2 MSTORE PUSH1 0x20 DUP2 SWAP1 MSTORE PUSH1 0x40 SWAP1 KECCAK256 PUSH1 0x1 ADD SLOAD SWAP1 JUMP JUMPDEST PUSH2 0x354 PUSH2 0x949 JUMP JUMPDEST CALLVALUE DUP1 ISZERO PUSH2 0x39A JUMPI PUSH1 0x0 DUP1 REVERT JUMPDEST POP PUSH2 0x2F2 PUSH32 0xDF8B4C520FFE197C5343C6F5AEC59570151EF9A492F2C624FD45DDDE6135EC42 DUP2 JUMP JUMPDEST CALLVALUE DUP1 ISZERO PUSH2 0x3CE JUMPI PUSH1 0x0 DUP1 REVERT JUMPDEST POP PUSH1 0xA SLOAD PUSH2 0x2C4 SWAP1 PUSH1 0x1 PUSH1 0x1 PUSH1 0xA0 SHL SUB AND DUP2 JUMP JUMPDEST CALLVALUE DUP1 ISZERO PUSH2 0x3EE JUMPI PUSH1 0x0 DUP1 REVERT JUMPDEST POP PUSH2 0x354 PUSH2 0x3FD CALLDATASIZE PUSH1 0x4 PUSH2 0x2BAC JUMP JUMPDEST PUSH2 0xBE1 JUMP JUMPDEST CALLVALUE DUP1 ISZERO PUSH2 0x40E JUMPI PUSH1 0x0 DUP1 REVERT JUMPDEST POP PUSH2 0x2F2 PUSH32 0xC951D7098B66BA0B8B77265B6E9CF0E187D73125A42BCD0061B09A68BE421810 DUP2 JUMP JUMPDEST CALLVALUE DUP1 ISZERO PUSH2 0x442 JUMPI PUSH1 0x0 DUP1 REVERT JUMPDEST POP PUSH2 0x354 PUSH2 0x451 CALLDATASIZE PUSH1 0x4 PUSH2 0x2BAC JUMP JUMPDEST PUSH2 0xC0B JUMP JUMPDEST PUSH2 0x354 PUSH2 0xC97 JUMP JUMPDEST CALLVALUE DUP1 ISZERO PUSH2 0x46A JUMPI PUSH1 0x0 DUP1 REVERT JUMPDEST POP PUSH2 0x2F2 PUSH1 0x2 SLOAD DUP2 JUMP JUMPDEST CALLVALUE DUP1 ISZERO PUSH2 0x480 JUMPI PUSH1 0x0 DUP1 REVERT JUMPDEST POP PUSH1 0x1 SLOAD PUSH2 0x28F SWAP1 PUSH3 0x10000 SWAP1 DIV PUSH1 0xFF AND DUP2 JUMP JUMPDEST CALLVALUE DUP1 ISZERO PUSH2 0x4A0 JUMPI PUSH1 0x0 DUP1 REVERT JUMPDEST POP PUSH2 0x354 PUSH2 0x4AF CALLDATASIZE PUSH1 0x4 PUSH2 0x2BDC JUMP JUMPDEST PUSH2 0xFCC JUMP JUMPDEST CALLVALUE DUP1 ISZERO PUSH2 0x4C0 JUMPI PUSH1 0x0 DUP1 REVERT JUMPDEST POP PUSH2 0x354 PUSH2 0x4CF CALLDATASIZE PUSH1 0x4 PUSH2 0x2C0A JUMP JUMPDEST PUSH2 0x1199 JUMP JUMPDEST CALLVALUE DUP1 ISZERO PUSH2 0x4E0 JUMPI PUSH1 0x0 DUP1 REVERT JUMPDEST POP PUSH2 0x2F2 PUSH1 0x5 SLOAD DUP2 JUMP JUMPDEST CALLVALUE DUP1 ISZERO PUSH2 0x4F6 JUMPI PUSH1 0x0 DUP1 REVERT JUMPDEST POP PUSH2 0x2F2 PUSH2 0x505 CALLDATASIZE PUSH1 0x4 PUSH2 0x2C0A JUMP JUMPDEST PUSH1 0xC PUSH1 0x20 MSTORE PUSH1 0x0 SWAP1 DUP2 MSTORE PUSH1 0x40 SWAP1 KECCAK256 SLOAD DUP2 JUMP JUMPDEST CALLVALUE DUP1 ISZERO PUSH2 0x523 JUMPI PUSH1 0x0 DUP1 REVERT JUMPDEST POP PUSH2 0x354 PUSH2 0x532 CALLDATASIZE PUSH1 0x4 PUSH2 0x2C0A JUMP JUMPDEST PUSH2 0x141F JUMP JUMPDEST PUSH2 0x354 PUSH2 0x1641 JUMP JUMPDEST PUSH2 0x354 PUSH2 0x54D CALLDATASIZE PUSH1 0x4 PUSH2 0x2C27 JUMP JUMPDEST PUSH2 0x19CD JUMP JUMPDEST CALLVALUE DUP1 ISZERO PUSH2 0x55E JUMPI PUSH1 0x0 DUP1 REVERT JUMPDEST POP PUSH2 0x2F2 PUSH32 0x534B5B9FE29299D99EA2855DA6940643D68ED225DB268DC8D86C1F38DF5DE794 DUP2 JUMP JUMPDEST CALLVALUE DUP1 ISZERO PUSH2 0x592 JUMPI PUSH1 0x0 DUP1 REVERT JUMPDEST POP PUSH1 0x1 SLOAD PUSH2 0x28F SWAP1 PUSH4 0x1000000 SWAP1 DIV PUSH1 0xFF AND DUP2 JUMP JUMPDEST CALLVALUE DUP1 ISZERO PUSH2 0x5B3 JUMPI PUSH1 0x0 DUP1 REVERT JUMPDEST POP PUSH2 0x28F PUSH2 0x5C2 CALLDATASIZE PUSH1 0x4 PUSH2 0x2BAC JUMP JUMPDEST PUSH1 0x0 SWAP2 DUP3 MSTORE PUSH1 0x20 DUP3 DUP2 MSTORE PUSH1 0x40 DUP1 DUP5 KECCAK256 PUSH1 0x1 PUSH1 0x1 PUSH1 0xA0 SHL SUB SWAP4 SWAP1 SWAP4 AND DUP5 MSTORE SWAP2 SWAP1 MSTORE SWAP1 KECCAK256 SLOAD PUSH1 0xFF AND SWAP1 JUMP JUMPDEST CALLVALUE DUP1 ISZERO PUSH2 0x5F7 JUMPI PUSH1 0x0 DUP1 REVERT JUMPDEST POP PUSH2 0x2C4 PUSH2 0x606 CALLDATASIZE PUSH1 0x4 PUSH2 0x2AAD JUMP JUMPDEST PUSH2 0x1DE5 JUMP JUMPDEST CALLVALUE DUP1 ISZERO PUSH2 0x617 JUMPI PUSH1 0x0 DUP1 REVERT JUMPDEST POP PUSH1 0xF SLOAD PUSH2 0x2C4 SWAP1 PUSH1 0x1 PUSH1 0x1 PUSH1 0xA0 SHL SUB AND DUP2 JUMP JUMPDEST CALLVALUE DUP1 ISZERO PUSH2 0x637 JUMPI PUSH1 0x0 DUP1 REVERT JUMPDEST POP PUSH2 0x2F2 PUSH1 0x0 DUP2 JUMP JUMPDEST CALLVALUE DUP1 ISZERO PUSH2 0x64C JUMPI PUSH1 0x0 DUP1 REVERT JUMPDEST POP PUSH2 0x354 PUSH2 0x1DF5 JUMP JUMPDEST CALLVALUE DUP1 ISZERO PUSH2 0x661 JUMPI PUSH1 0x0 DUP1 REVERT JUMPDEST POP PUSH2 0x2F2 PUSH1 0x4 SLOAD DUP2 JUMP JUMPDEST CALLVALUE DUP1 ISZERO PUSH2 0x677 JUMPI PUSH1 0x0 DUP1 REVERT JUMPDEST POP PUSH1 0x7 SLOAD PUSH2 0x2C4 SWAP1 PUSH1 0x1 PUSH1 0x1 PUSH1 0xA0 SHL SUB AND DUP2 JUMP JUMPDEST CALLVALUE DUP1 ISZERO PUSH2 0x697 JUMPI PUSH1 0x0 DUP1 REVERT JUMPDEST POP PUSH2 0x354 PUSH2 0x20A8 JUMP JUMPDEST CALLVALUE DUP1 ISZERO PUSH2 0x6AC JUMPI PUSH1 0x0 DUP1 REVERT JUMPDEST POP PUSH2 0x2F2 PUSH2 0x6BB CALLDATASIZE PUSH1 0x4 PUSH2 0x2C0A JUMP JUMPDEST PUSH1 0xD PUSH1 0x20 MSTORE PUSH1 0x0 SWAP1 DUP2 MSTORE PUSH1 0x40 SWAP1 KECCAK256 SLOAD DUP2 JUMP JUMPDEST CALLVALUE DUP1 ISZERO PUSH2 0x6D9 JUMPI PUSH1 0x0 DUP1 REVERT JUMPDEST POP PUSH2 0x28F PUSH2 0x6E8 CALLDATASIZE PUSH1 0x4 PUSH2 0x2C0A JUMP JUMPDEST PUSH1 0xE PUSH1 0x20 MSTORE PUSH1 0x0 SWAP1 DUP2 MSTORE PUSH1 0x40 SWAP1 KECCAK256 SLOAD PUSH1 0xFF AND DUP2 JUMP JUMPDEST CALLVALUE DUP1 ISZERO PUSH2 0x709 JUMPI PUSH1 0x0 DUP1 REVERT JUMPDEST POP PUSH2 0x354 PUSH2 0x718 CALLDATASIZE PUSH1 0x4 PUSH2 0x2BAC JUMP JUMPDEST PUSH2 0x2322 JUMP JUMPDEST PUSH2 0x354 PUSH2 0x2347 JUMP JUMPDEST CALLVALUE DUP1 ISZERO PUSH2 0x731 JUMPI PUSH1 0x0 DUP1 REVERT JUMPDEST POP PUSH2 0x73A PUSH2 0x269D JUMP JUMPDEST PUSH1 0x40 MLOAD PUSH2 0x29B SWAP2 SWAP1 PUSH2 0x2C77 JUMP JUMPDEST PUSH1 0x0 PUSH1 0x1 PUSH1 0x1 PUSH1 0xE0 SHL SUB NOT DUP3 AND PUSH4 0x7965DB0B PUSH1 0xE0 SHL EQ DUP1 PUSH2 0x778 JUMPI POP PUSH4 0x1FFC9A7 PUSH1 0xE0 SHL PUSH1 0x1 PUSH1 0x1 PUSH1 0xE0 SHL SUB NOT DUP4 AND EQ JUMPDEST SWAP3 SWAP2 POP POP JUMP JUMPDEST PUSH1 0x9 DUP2 DUP2 SLOAD DUP2 LT PUSH2 0x78E JUMPI PUSH1 0x0 DUP1 REVERT JUMPDEST PUSH1 0x0 SWAP2 DUP3 MSTORE PUSH1 0x20 SWAP1 SWAP2 KECCAK256 ADD SLOAD PUSH1 0x1 PUSH1 0x1 PUSH1 0xA0 SHL SUB AND SWAP1 POP DUP2 JUMP JUMPDEST PUSH32 0x534B5B9FE29299D99EA2855DA6940643D68ED225DB268DC8D86C1F38DF5DE794 PUSH2 0x7D2 DUP2 PUSH2 0x272B JUMP JUMPDEST PUSH1 0x1 SLOAD PUSH4 0x1000000 SWAP1 DIV PUSH1 0xFF AND ISZERO PUSH2 0x87D JUMPI PUSH1 0x40 MLOAD PUSH3 0x461BCD PUSH1 0xE5 SHL DUP2 MSTORE PUSH1 0x20 PUSH1 0x4 DUP3 ADD MSTORE PUSH1 0x55 PUSH1 0x24 DUP3 ADD MSTORE PUSH32 0x596F752063616E6E6F74206368616E6765206368616E6765207061796D656E74 PUSH1 0x44 DUP3 ADD MSTORE PUSH32 0x20616674657220697420686173206265656E207365742C20706C656173652063 PUSH1 0x64 DUP3 ADD MSTORE PUSH32 0x726561746520616E6F7468657220636F757273652E0000000000000000000000 PUSH1 0x84 DUP3 ADD MSTORE PUSH1 0xA4 ADD JUMPDEST PUSH1 0x40 MLOAD DUP1 SWAP2 SUB SWAP1 REVERT JUMPDEST PUSH1 0x1 SLOAD PUSH3 0x10000 SWAP1 DIV PUSH1 0xFF AND ISZERO PUSH2 0x8D6 JUMPI PUSH1 0x40 MLOAD PUSH3 0x461BCD PUSH1 0xE5 SHL DUP2 MSTORE PUSH1 0x20 PUSH1 0x4 DUP3 ADD MSTORE PUSH1 0x1E PUSH1 0x24 DUP3 ADD MSTORE PUSH32 0x596F752063616E6E6F74206368616E676520746865207061796D656E742E0000 PUSH1 0x44 DUP3 ADD MSTORE PUSH1 0x64 ADD PUSH2 0x874 JUMP JUMPDEST PUSH1 0x2 DUP4 SWAP1 SSTORE PUSH1 0xB PUSH2 0x8E7 DUP4 DUP3 PUSH2 0x2D2A JUMP JUMPDEST POP PUSH1 0x6 SLOAD DUP4 DUP2 PUSH2 0x8F9 JUMPI PUSH2 0x8F9 PUSH2 0x2DEA JUMP JUMPDEST DIV PUSH1 0x3 SSTORE PUSH1 0x1 DUP1 SLOAD PUSH4 0xFF000000 NOT AND PUSH4 0x1000000 OR DUP2 SSTORE PUSH1 0x40 MLOAD SWAP1 DUP2 MSTORE PUSH32 0xE5FDA8E788AB9BE7C3068BABFFFE1846F9AD5FCFE7A684AF4A7AE7842A47A4A SWAP1 PUSH1 0x20 ADD JUMPDEST PUSH1 0x40 MLOAD DUP1 SWAP2 SUB SWAP1 LOG1 POP POP POP JUMP JUMPDEST PUSH32 0xC951D7098B66BA0B8B77265B6E9CF0E187D73125A42BCD0061B09A68BE421810 PUSH2 0x973 DUP2 PUSH2 0x272B JUMP JUMPDEST PUSH1 0x1 DUP1 SLOAD PUSH3 0x10000 SWAP1 DIV PUSH1 0xFF AND ISZERO ISZERO EQ PUSH2 0x9F5 JUMPI PUSH1 0x40 MLOAD PUSH3 0x461BCD PUSH1 0xE5 SHL DUP2 MSTORE PUSH1 0x20 PUSH1 0x4 DUP3 ADD MSTORE PUSH1 0x3B PUSH1 0x24 DUP3 ADD MSTORE PUSH32 0x436F7572736520686173206E6F742073746172746564207965742C206665656C PUSH1 0x44 DUP3 ADD MSTORE PUSH32 0x206672656520746F2073696D706C79207769746864726177203A290000000000 PUSH1 0x64 DUP3 ADD MSTORE PUSH1 0x84 ADD PUSH2 0x874 JUMP JUMPDEST CALLER PUSH1 0x0 SWAP1 DUP2 MSTORE PUSH1 0xE PUSH1 0x20 MSTORE PUSH1 0x40 SWAP1 KECCAK256 SLOAD PUSH1 0xFF AND ISZERO PUSH2 0xA7B JUMPI PUSH1 0x40 MLOAD PUSH3 0x461BCD PUSH1 0xE5 SHL DUP2 MSTORE PUSH1 0x20 PUSH1 0x4 DUP3 ADD MSTORE PUSH1 0x26 PUSH1 0x24 DUP3 ADD MSTORE PUSH32 0x596F75206861766520636F6D706C657465642074686520636F7572736520616C PUSH1 0x44 DUP3 ADD MSTORE PUSH32 0x7265616479210000000000000000000000000000000000000000000000000000 PUSH1 0x64 DUP3 ADD MSTORE PUSH1 0x84 ADD PUSH2 0x874 JUMP JUMPDEST PUSH1 0xA SLOAD PUSH1 0x3 SLOAD PUSH1 0x40 MLOAD PUSH1 0x0 SWAP3 PUSH1 0x1 PUSH1 0x1 PUSH1 0xA0 SHL SUB AND SWAP2 SWAP1 DUP4 DUP2 DUP2 DUP2 DUP6 DUP8 GAS CALL SWAP3 POP POP POP RETURNDATASIZE DUP1 PUSH1 0x0 DUP2 EQ PUSH2 0xACA JUMPI PUSH1 0x40 MLOAD SWAP2 POP PUSH1 0x1F NOT PUSH1 0x3F RETURNDATASIZE ADD AND DUP3 ADD PUSH1 0x40 MSTORE RETURNDATASIZE DUP3 MSTORE RETURNDATASIZE PUSH1 0x0 PUSH1 0x20 DUP5 ADD RETURNDATACOPY PUSH2 0xACF JUMP JUMPDEST PUSH1 0x60 SWAP2 POP JUMPDEST POP POP SWAP1 POP DUP1 PUSH2 0xB20 JUMPI PUSH1 0x40 MLOAD PUSH3 0x461BCD PUSH1 0xE5 SHL DUP2 MSTORE PUSH1 0x20 PUSH1 0x4 DUP3 ADD MSTORE PUSH1 0x18 PUSH1 0x24 DUP3 ADD MSTORE PUSH32 0x4661696C656420746F2064726F7020636F75727365203A280000000000000000 PUSH1 0x44 DUP3 ADD MSTORE PUSH1 0x64 ADD PUSH2 0x874 JUMP JUMPDEST PUSH2 0xB4A PUSH32 0xC951D7098B66BA0B8B77265B6E9CF0E187D73125A42BCD0061B09A68BE421810 CALLER PUSH2 0x2738 JUMP JUMPDEST PUSH1 0x10 SLOAD PUSH1 0x3 SLOAD PUSH1 0x40 MLOAD PUSH4 0xBBA870C3 PUSH1 0xE0 SHL DUP2 MSTORE CALLER PUSH1 0x4 DUP3 ADD MSTORE PUSH1 0x24 DUP2 ADD SWAP2 SWAP1 SWAP2 MSTORE PUSH1 0x1 PUSH1 0x1 PUSH1 0xA0 SHL SUB SWAP1 SWAP2 AND SWAP1 PUSH4 0xBBA870C3 SWAP1 PUSH1 0x44 ADD PUSH1 0x0 PUSH1 0x40 MLOAD DUP1 DUP4 SUB DUP2 PUSH1 0x0 DUP8 DUP1 EXTCODESIZE ISZERO DUP1 ISZERO PUSH2 0xB9A JUMPI PUSH1 0x0 DUP1 REVERT JUMPDEST POP GAS CALL ISZERO DUP1 ISZERO PUSH2 0xBAE JUMPI RETURNDATASIZE PUSH1 0x0 DUP1 RETURNDATACOPY RETURNDATASIZE PUSH1 0x0 REVERT JUMPDEST POP POP PUSH1 0x40 MLOAD CALLER SWAP3 POP PUSH32 0xE1722977903518C8963F6AB648A2693B25E00E4E3E8EE0A47A8F4319965E7A06 SWAP2 POP PUSH1 0x0 SWAP1 LOG2 POP POP JUMP JUMPDEST PUSH1 0x0 DUP3 DUP2 MSTORE PUSH1 0x20 DUP2 SWAP1 MSTORE PUSH1 0x40 SWAP1 KECCAK256 PUSH1 0x1 ADD SLOAD PUSH2 0xBFC DUP2 PUSH2 0x272B JUMP JUMPDEST PUSH2 0xC06 DUP4 DUP4 PUSH2 0x27B7 JUMP JUMPDEST POP POP POP JUMP JUMPDEST PUSH1 0x1 PUSH1 0x1 PUSH1 0xA0 SHL SUB DUP2 AND CALLER EQ PUSH2 0xC89 JUMPI PUSH1 0x40 MLOAD PUSH3 0x461BCD PUSH1 0xE5 SHL DUP2 MSTORE PUSH1 0x20 PUSH1 0x4 DUP3 ADD MSTORE PUSH1 0x2F PUSH1 0x24 DUP3 ADD MSTORE PUSH32 0x416363657373436F6E74726F6C3A2063616E206F6E6C792072656E6F756E6365 PUSH1 0x44 DUP3 ADD MSTORE PUSH32 0x20726F6C657320666F722073656C660000000000000000000000000000000000 PUSH1 0x64 DUP3 ADD MSTORE PUSH1 0x84 ADD PUSH2 0x874 JUMP JUMPDEST PUSH2 0xC93 DUP3 DUP3 PUSH2 0x2738 JUMP JUMPDEST POP POP JUMP JUMPDEST CALLER PUSH1 0x0 SWAP1 DUP2 MSTORE PUSH32 0xF53340AA310A9E3C37F9F5B4AADF1810FA110CCC43B59EDD5F638EB6C7AABD36 PUSH1 0x20 MSTORE PUSH1 0x40 SWAP1 KECCAK256 SLOAD PUSH1 0xFF AND PUSH2 0xD15 JUMPI PUSH1 0x40 MLOAD PUSH3 0x461BCD PUSH1 0xE5 SHL DUP2 MSTORE PUSH1 0x20 PUSH1 0x4 DUP3 ADD MSTORE PUSH1 0x15 PUSH1 0x24 DUP3 ADD MSTORE PUSH32 0x596F7520617265206E6F7420656E726F6C6C6564210000000000000000000000 PUSH1 0x44 DUP3 ADD MSTORE PUSH1 0x64 ADD PUSH2 0x874 JUMP JUMPDEST PUSH1 0x3 SLOAD SELFBALANCE LT ISZERO PUSH2 0xD67 JUMPI PUSH1 0x40 MLOAD PUSH3 0x461BCD PUSH1 0xE5 SHL DUP2 MSTORE PUSH1 0x20 PUSH1 0x4 DUP3 ADD MSTORE PUSH1 0x14 PUSH1 0x24 DUP3 ADD MSTORE PUSH32 0x4E6F2062616C616E636520617661696C61626C65000000000000000000000000 PUSH1 0x44 DUP3 ADD MSTORE PUSH1 0x64 ADD PUSH2 0x874 JUMP JUMPDEST PUSH1 0x1 SLOAD PUSH3 0x10000 SWAP1 DIV PUSH1 0xFF AND ISZERO PUSH2 0xDE6 JUMPI PUSH1 0x40 MLOAD PUSH3 0x461BCD PUSH1 0xE5 SHL DUP2 MSTORE PUSH1 0x20 PUSH1 0x4 DUP3 ADD MSTORE PUSH1 0x33 PUSH1 0x24 DUP3 ADD MSTORE PUSH32 0x596F75206861766520746F2064726F706F757420626563617573652074686520 PUSH1 0x44 DUP3 ADD MSTORE PUSH32 0x636F757273652068617320737461727465642E00000000000000000000000000 PUSH1 0x64 DUP3 ADD MSTORE PUSH1 0x84 ADD PUSH2 0x874 JUMP JUMPDEST CALLVALUE ISZERO PUSH2 0xE34 JUMPI PUSH1 0x40 MLOAD PUSH3 0x461BCD PUSH1 0xE5 SHL DUP2 MSTORE PUSH1 0x20 PUSH1 0x4 DUP3 ADD MSTORE PUSH1 0x12 PUSH1 0x24 DUP3 ADD MSTORE PUSH32 0x4C656176652076616C756520656D7074792E0000000000000000000000000000 PUSH1 0x44 DUP3 ADD MSTORE PUSH1 0x64 ADD PUSH2 0x874 JUMP JUMPDEST CALLER PUSH1 0x0 DUP2 DUP2 MSTORE PUSH1 0xC PUSH1 0x20 MSTORE PUSH1 0x40 DUP2 KECCAK256 SSTORE PUSH2 0xE6F SWAP1 PUSH32 0xC951D7098B66BA0B8B77265B6E9CF0E187D73125A42BCD0061B09A68BE421810 SWAP1 PUSH2 0x2738 JUMP JUMPDEST PUSH1 0x3 SLOAD PUSH1 0x40 MLOAD PUSH1 0x0 SWAP2 CALLER SWAP2 DUP4 DUP2 DUP2 DUP2 DUP6 DUP8 GAS CALL SWAP3 POP POP POP RETURNDATASIZE DUP1 PUSH1 0x0 DUP2 EQ PUSH2 0xEB2 JUMPI PUSH1 0x40 MLOAD SWAP2 POP PUSH1 0x1F NOT PUSH1 0x3F RETURNDATASIZE ADD AND DUP3 ADD PUSH1 0x40 MSTORE RETURNDATASIZE DUP3 MSTORE RETURNDATASIZE PUSH1 0x0 PUSH1 0x20 DUP5 ADD RETURNDATACOPY PUSH2 0xEB7 JUMP JUMPDEST PUSH1 0x60 SWAP2 POP JUMPDEST POP POP SWAP1 POP DUP1 PUSH2 0xF08 JUMPI PUSH1 0x40 MLOAD PUSH3 0x461BCD PUSH1 0xE5 SHL DUP2 MSTORE PUSH1 0x20 PUSH1 0x4 DUP3 ADD MSTORE PUSH1 0x15 PUSH1 0x24 DUP3 ADD MSTORE PUSH32 0x4661696C656420746F207769746864726177203A280000000000000000000000 PUSH1 0x44 DUP3 ADD MSTORE PUSH1 0x64 ADD PUSH2 0x874 JUMP JUMPDEST PUSH1 0x10 SLOAD PUSH1 0x3 SLOAD PUSH1 0x40 MLOAD PUSH4 0x5DD07011 PUSH1 0xE0 SHL DUP2 MSTORE CALLER PUSH1 0x4 DUP3 ADD MSTORE PUSH1 0x24 DUP2 ADD SWAP2 SWAP1 SWAP2 MSTORE PUSH1 0x1 PUSH1 0x1 PUSH1 0xA0 SHL SUB SWAP1 SWAP2 AND SWAP1 PUSH4 0x5DD07011 SWAP1 PUSH1 0x44 ADD PUSH1 0x0 PUSH1 0x40 MLOAD DUP1 DUP4 SUB DUP2 PUSH1 0x0 DUP8 DUP1 EXTCODESIZE ISZERO DUP1 ISZERO PUSH2 0xF58 JUMPI PUSH1 0x0 DUP1 REVERT JUMPDEST POP GAS CALL ISZERO DUP1 ISZERO PUSH2 0xF6C JUMPI RETURNDATASIZE PUSH1 0x0 DUP1 RETURNDATACOPY RETURNDATASIZE PUSH1 0x0 REVERT JUMPDEST POP POP PUSH1 0x40 DUP1 MLOAD PUSH32 0xC951D7098B66BA0B8B77265B6E9CF0E187D73125A42BCD0061B09A68BE421810 DUP2 MSTORE CALLER PUSH1 0x20 DUP3 ADD MSTORE PUSH32 0x76E6093C136CD7FAA5A6D92B2B633F3B4595ABD4A529B7A13917398355FEA694 SWAP4 POP ADD SWAP1 POP PUSH1 0x40 MLOAD DUP1 SWAP2 SUB SWAP1 LOG1 POP JUMP JUMPDEST PUSH1 0x1 SLOAD PUSH2 0x100 SWAP1 DIV PUSH1 0xFF AND ISZERO DUP1 DUP1 ISZERO PUSH2 0xFE9 JUMPI POP PUSH1 0x1 DUP1 SLOAD PUSH1 0xFF AND LT JUMPDEST DUP1 PUSH2 0x1002 JUMPI POP ADDRESS EXTCODESIZE ISZERO DUP1 ISZERO PUSH2 0x1002 JUMPI POP PUSH1 0x1 DUP1 SLOAD PUSH1 0xFF AND EQ JUMPDEST PUSH2 0x1074 JUMPI PUSH1 0x40 MLOAD PUSH3 0x461BCD PUSH1 0xE5 SHL DUP2 MSTORE PUSH1 0x20 PUSH1 0x4 DUP3 ADD MSTORE PUSH1 0x2E PUSH1 0x24 DUP3 ADD MSTORE PUSH32 0x496E697469616C697A61626C653A20636F6E747261637420697320616C726561 PUSH1 0x44 DUP3 ADD MSTORE PUSH32 0x647920696E697469616C697A6564000000000000000000000000000000000000 PUSH1 0x64 DUP3 ADD MSTORE PUSH1 0x84 ADD PUSH2 0x874 JUMP JUMPDEST PUSH1 0x1 DUP1 SLOAD PUSH1 0xFF NOT AND DUP2 OR SWAP1 SSTORE DUP1 ISZERO PUSH2 0x1096 JUMPI PUSH1 0x1 DUP1 SLOAD PUSH2 0xFF00 NOT AND PUSH2 0x100 OR SWAP1 SSTORE JUMPDEST PUSH1 0xA SLOAD PUSH2 0x10AE SWAP1 PUSH1 0x0 SWAP1 PUSH1 0x1 PUSH1 0x1 PUSH1 0xA0 SHL SUB AND PUSH2 0x27B7 JUMP JUMPDEST PUSH1 0xA SLOAD PUSH2 0x10E5 SWAP1 PUSH32 0xDF8B4C520FFE197C5343C6F5AEC59570151EF9A492F2C624FD45DDDE6135EC42 SWAP1 PUSH1 0x1 PUSH1 0x1 PUSH1 0xA0 SHL SUB AND PUSH2 0x27B7 JUMP JUMPDEST PUSH2 0x110F PUSH32 0x534B5B9FE29299D99EA2855DA6940643D68ED225DB268DC8D86C1F38DF5DE794 DUP5 PUSH2 0x27B7 JUMP JUMPDEST PUSH1 0xF DUP1 SLOAD PUSH20 0xFFFFFFFFFFFFFFFFFFFFFFFFFFFFFFFFFFFFFFFF NOT SWAP1 DUP2 AND PUSH1 0x1 PUSH1 0x1 PUSH1 0xA0 SHL SUB DUP6 DUP2 AND SWAP2 DUP3 OR SWAP1 SWAP4 SSTORE PUSH1 0x10 DUP1 SLOAD DUP4 AND SWAP1 SWAP2 OR SWAP1 SSTORE PUSH1 0x7 DUP1 SLOAD SWAP1 SWAP2 AND SWAP2 DUP6 AND SWAP2 SWAP1 SWAP2 OR SWAP1 SSTORE DUP1 ISZERO PUSH2 0xC06 JUMPI PUSH1 0x1 DUP1 SLOAD PUSH2 0xFF00 NOT AND DUP2 SSTORE PUSH1 0x40 MLOAD SWAP1 DUP2 MSTORE PUSH32 0x7F26B83FF96E1F2B6A682F133852F6798A09C465DA95921460CEFB3847402498 SWAP1 PUSH1 0x20 ADD PUSH2 0x93C JUMP JUMPDEST PUSH32 0x534B5B9FE29299D99EA2855DA6940643D68ED225DB268DC8D86C1F38DF5DE794 PUSH2 0x11C3 DUP2 PUSH2 0x272B JUMP JUMPDEST PUSH1 0x1 PUSH1 0x1 PUSH1 0xA0 SHL SUB DUP3 AND PUSH1 0x0 SWAP1 DUP2 MSTORE PUSH32 0xF53340AA310A9E3C37F9F5B4AADF1810FA110CCC43B59EDD5F638EB6C7AABD36 PUSH1 0x20 MSTORE PUSH1 0x40 SWAP1 KECCAK256 SLOAD PUSH1 0xFF AND PUSH2 0x124A JUMPI PUSH1 0x40 MLOAD PUSH3 0x461BCD PUSH1 0xE5 SHL DUP2 MSTORE PUSH1 0x20 PUSH1 0x4 DUP3 ADD MSTORE PUSH1 0xE PUSH1 0x24 DUP3 ADD MSTORE PUSH32 0x4E6F7420612073747564656E7421000000000000000000000000000000000000 PUSH1 0x44 DUP3 ADD MSTORE PUSH1 0x64 ADD PUSH2 0x874 JUMP JUMPDEST PUSH1 0x1 DUP1 SLOAD PUSH3 0x10000 SWAP1 DIV PUSH1 0xFF AND ISZERO ISZERO EQ PUSH2 0x1263 JUMPI PUSH1 0x0 DUP1 REVERT JUMPDEST PUSH1 0x1 PUSH1 0x1 PUSH1 0xA0 SHL SUB DUP3 AND PUSH1 0x0 DUP2 DUP2 MSTORE PUSH1 0xE PUSH1 0x20 MSTORE PUSH1 0x40 DUP1 DUP3 KECCAK256 DUP1 SLOAD PUSH1 0xFF NOT AND PUSH1 0x1 SWAP1 DUP2 OR SWAP1 SWAP2 SSTORE DUP1 SLOAD PUSH4 0xFF000000 NOT AND PUSH4 0x1000000 OR SWAP1 SSTORE PUSH1 0x3 SLOAD SWAP1 MLOAD SWAP2 SWAP3 SWAP2 PUSH1 0x0 PUSH1 0x40 MLOAD DUP1 DUP4 SUB DUP2 DUP6 DUP8 GAS CALL SWAP3 POP POP POP RETURNDATASIZE DUP1 PUSH1 0x0 DUP2 EQ PUSH2 0x12E0 JUMPI PUSH1 0x40 MLOAD SWAP2 POP PUSH1 0x1F NOT PUSH1 0x3F RETURNDATASIZE ADD AND DUP3 ADD PUSH1 0x40 MSTORE RETURNDATASIZE DUP3 MSTORE RETURNDATASIZE PUSH1 0x0 PUSH1 0x20 DUP5 ADD RETURNDATACOPY PUSH2 0x12E5 JUMP JUMPDEST PUSH1 0x60 SWAP2 POP JUMPDEST POP POP SWAP1 POP DUP1 PUSH2 0x1342 JUMPI PUSH1 0x40 MLOAD PUSH3 0x461BCD PUSH1 0xE5 SHL DUP2 MSTORE PUSH1 0x20 PUSH1 0x4 DUP3 ADD MSTORE PUSH1 0x24 DUP1 DUP3 ADD MSTORE PUSH32 0x4661696C656420746F2073656E64207374616B65206261636B20746F20737475 PUSH1 0x44 DUP3 ADD MSTORE PUSH4 0x19195B9D PUSH1 0xE2 SHL PUSH1 0x64 DUP3 ADD MSTORE PUSH1 0x84 ADD PUSH2 0x874 JUMP JUMPDEST PUSH1 0x10 SLOAD PUSH1 0x3 SLOAD PUSH1 0x40 MLOAD PUSH4 0x5C924BA1 PUSH1 0xE1 SHL DUP2 MSTORE CALLER PUSH1 0x4 DUP3 ADD MSTORE PUSH1 0x1 PUSH1 0x1 PUSH1 0xA0 SHL SUB DUP7 DUP2 AND PUSH1 0x24 DUP4 ADD MSTORE PUSH1 0x44 DUP3 ADD SWAP3 SWAP1 SWAP3 MSTORE SWAP2 AND SWAP1 PUSH4 0xB9249742 SWAP1 PUSH1 0x64 ADD PUSH1 0x0 PUSH1 0x40 MLOAD DUP1 DUP4 SUB DUP2 PUSH1 0x0 DUP8 DUP1 EXTCODESIZE ISZERO DUP1 ISZERO PUSH2 0x1399 JUMPI PUSH1 0x0 DUP1 REVERT JUMPDEST POP GAS CALL ISZERO DUP1 ISZERO PUSH2 0x13AD JUMPI RETURNDATASIZE PUSH1 0x0 DUP1 RETURNDATACOPY RETURNDATASIZE PUSH1 0x0 REVERT JUMPDEST POP POP PUSH1 0x40 MLOAD PUSH1 0x1 DUP2 MSTORE PUSH32 0xE5FDA8E788AB9BE7C3068BABFFFE1846F9AD5FCFE7A684AF4A7AE7842A47A4A SWAP3 POP PUSH1 0x20 ADD SWAP1 POP PUSH1 0x40 MLOAD DUP1 SWAP2 SUB SWAP1 LOG1 PUSH1 0x40 MLOAD PUSH1 0x1 PUSH1 0x1 PUSH1 0xA0 SHL SUB DUP5 AND SWAP1 PUSH32 0xE43CA6E7F4A14343AFA9E106F02218CD6CBCBFA00762BCEC9000291DF6A7387C SWAP1 PUSH1 0x0 SWAP1 LOG2 POP POP POP JUMP JUMPDEST PUSH32 0x534B5B9FE29299D99EA2855DA6940643D68ED225DB268DC8D86C1F38DF5DE794 PUSH2 0x1449 DUP2 PUSH2 0x272B JUMP JUMPDEST PUSH1 0x1 PUSH1 0x1 PUSH1 0xA0 SHL SUB DUP3 AND PUSH1 0x0 SWAP1 DUP2 MSTORE PUSH32 0xF53340AA310A9E3C37F9F5B4AADF1810FA110CCC43B59EDD5F638EB6C7AABD36 PUSH1 0x20 MSTORE PUSH1 0x40 SWAP1 KECCAK256 SLOAD PUSH1 0xFF AND PUSH2 0x14D0 JUMPI PUSH1 0x40 MLOAD PUSH3 0x461BCD PUSH1 0xE5 SHL DUP2 MSTORE PUSH1 0x20 PUSH1 0x4 DUP3 ADD MSTORE PUSH1 0x1A PUSH1 0x24 DUP3 ADD MSTORE PUSH32 0x41646472657373206973206E6F7420656E726F6C6C6564203A2F000000000000 PUSH1 0x44 DUP3 ADD MSTORE PUSH1 0x64 ADD PUSH2 0x874 JUMP JUMPDEST PUSH2 0x14FA PUSH32 0xC951D7098B66BA0B8B77265B6E9CF0E187D73125A42BCD0061B09A68BE421810 DUP4 PUSH2 0x2738 JUMP JUMPDEST PUSH1 0xA SLOAD PUSH1 0x3 SLOAD PUSH1 0x40 MLOAD PUSH1 0x0 SWAP3 PUSH1 0x1 PUSH1 0x1 PUSH1 0xA0 SHL SUB AND SWAP2 SWAP1 DUP4 DUP2 DUP2 DUP2 DUP6 DUP8 GAS CALL SWAP3 POP POP POP RETURNDATASIZE DUP1 PUSH1 0x0 DUP2 EQ PUSH2 0x1549 JUMPI PUSH1 0x40 MLOAD SWAP2 POP PUSH1 0x1F NOT PUSH1 0x3F RETURNDATASIZE ADD AND DUP3 ADD PUSH1 0x40 MSTORE RETURNDATASIZE DUP3 MSTORE RETURNDATASIZE PUSH1 0x0 PUSH1 0x20 DUP5 ADD RETURNDATACOPY PUSH2 0x154E JUMP JUMPDEST PUSH1 0x60 SWAP2 POP JUMPDEST POP POP SWAP1 POP DUP1 PUSH2 0x159F JUMPI PUSH1 0x40 MLOAD PUSH3 0x461BCD PUSH1 0xE5 SHL DUP2 MSTORE PUSH1 0x20 PUSH1 0x4 DUP3 ADD MSTORE PUSH1 0x12 PUSH1 0x24 DUP3 ADD MSTORE PUSH32 0x4661696C656420746F20626F6F74203E3A280000000000000000000000000000 PUSH1 0x44 DUP3 ADD MSTORE PUSH1 0x64 ADD PUSH2 0x874 JUMP JUMPDEST PUSH1 0x10 SLOAD PUSH1 0x3 SLOAD PUSH1 0x40 MLOAD PUSH4 0xD5E136F1 PUSH1 0xE0 SHL DUP2 MSTORE PUSH1 0x1 PUSH1 0x1 PUSH1 0xA0 SHL SUB DUP7 DUP2 AND PUSH1 0x4 DUP4 ADD MSTORE PUSH1 0x24 DUP3 ADD SWAP3 SWAP1 SWAP3 MSTORE SWAP2 AND SWAP1 PUSH4 0xD5E136F1 SWAP1 PUSH1 0x44 ADD PUSH1 0x0 PUSH1 0x40 MLOAD DUP1 DUP4 SUB DUP2 PUSH1 0x0 DUP8 DUP1 EXTCODESIZE ISZERO DUP1 ISZERO PUSH2 0x15F0 JUMPI PUSH1 0x0 DUP1 REVERT JUMPDEST POP GAS CALL ISZERO DUP1 ISZERO PUSH2 0x1604 JUMPI RETURNDATASIZE PUSH1 0x0 DUP1 RETURNDATACOPY RETURNDATASIZE PUSH1 0x0 REVERT JUMPDEST POP POP PUSH1 0x40 MLOAD PUSH1 0x1 PUSH1 0x1 PUSH1 0xA0 SHL SUB DUP7 AND SWAP3 POP PUSH32 0xE1722977903518C8963F6AB648A2693B25E00E4E3E8EE0A47A8F4319965E7A06 SWAP2 POP PUSH1 0x0 SWAP1 LOG2 POP POP POP JUMP JUMPDEST PUSH1 0x1 SLOAD PUSH3 0x10000 SWAP1 DIV PUSH1 0xFF AND ISZERO PUSH2 0x169A JUMPI PUSH1 0x40 MLOAD PUSH3 0x461BCD PUSH1 0xE5 SHL DUP2 MSTORE PUSH1 0x20 PUSH1 0x4 DUP3 ADD MSTORE PUSH1 0x19 PUSH1 0x24 DUP3 ADD MSTORE PUSH32 0x436F757273652068617320616C726561647920626567756E2E00000000000000 PUSH1 0x44 DUP3 ADD MSTORE PUSH1 0x64 ADD PUSH2 0x874 JUMP JUMPDEST PUSH1 0x4 SLOAD PUSH1 0x2 SLOAD GT PUSH2 0x16F7 JUMPI PUSH1 0x40 MLOAD PUSH3 0x461BCD PUSH1 0xE5 SHL DUP2 MSTORE PUSH1 0x20 PUSH1 0x4 DUP3 ADD MSTORE PUSH1 0x21 PUSH1 0x24 DUP3 ADD MSTORE PUSH32 0x5468697320636F757273652069732066756C6C792073706F6E736F726564203A PUSH1 0x44 DUP3 ADD MSTORE PUSH1 0x29 PUSH1 0xF8 SHL PUSH1 0x64 DUP3 ADD MSTORE PUSH1 0x84 ADD PUSH2 0x874 JUMP JUMPDEST PUSH1 0x0 CALLVALUE GT PUSH2 0x176D JUMPI PUSH1 0x40 MLOAD PUSH3 0x461BCD PUSH1 0xE5 SHL DUP2 MSTORE PUSH1 0x20 PUSH1 0x4 DUP3 ADD MSTORE PUSH1 0x27 PUSH1 0x24 DUP3 ADD MSTORE PUSH32 0x506C6561736520696E70757420616D6F756E7420796F75207769736820746F20 PUSH1 0x44 DUP3 ADD MSTORE PUSH32 0x73706F6E736F7200000000000000000000000000000000000000000000000000 PUSH1 0x64 DUP3 ADD MSTORE PUSH1 0x84 ADD PUSH2 0x874 JUMP JUMPDEST PUSH1 0x4 SLOAD PUSH1 0x2 SLOAD PUSH2 0x177D SWAP2 SWAP1 PUSH2 0x2E16 JUMP JUMPDEST CALLVALUE GT ISZERO PUSH2 0x17F2 JUMPI PUSH1 0x40 MLOAD PUSH3 0x461BCD PUSH1 0xE5 SHL DUP2 MSTORE PUSH1 0x20 PUSH1 0x4 DUP3 ADD MSTORE PUSH1 0x32 PUSH1 0x24 DUP3 ADD MSTORE PUSH32 0x506C6561736520696E707574207468652053706F6E736F727368697020616D6F PUSH1 0x44 DUP3 ADD MSTORE PUSH32 0x756E74206E6565646564206F72206C6573730000000000000000000000000000 PUSH1 0x64 DUP3 ADD MSTORE PUSH1 0x84 ADD PUSH2 0x874 JUMP JUMPDEST PUSH1 0x0 DUP1 JUMPDEST PUSH1 0x8 SLOAD DUP2 LT ISZERO PUSH2 0x1852 JUMPI CALLER PUSH1 0x1 PUSH1 0x1 PUSH1 0xA0 SHL SUB AND PUSH1 0x8 DUP3 DUP2 SLOAD DUP2 LT PUSH2 0x181D JUMPI PUSH2 0x181D PUSH2 0x2E29 JUMP JUMPDEST PUSH1 0x0 SWAP2 DUP3 MSTORE PUSH1 0x20 SWAP1 SWAP2 KECCAK256 ADD SLOAD PUSH1 0x1 PUSH1 0x1 PUSH1 0xA0 SHL SUB AND SUB PUSH2 0x1840 JUMPI PUSH1 0x1 SWAP2 POP PUSH2 0x1852 JUMP JUMPDEST DUP1 PUSH2 0x184A DUP2 PUSH2 0x2E3F JUMP JUMPDEST SWAP2 POP POP PUSH2 0x17F6 JUMP JUMPDEST POP DUP1 PUSH2 0x18D2 JUMPI PUSH2 0x1882 PUSH32 0x5F0A5F78118B6E0B700E0357AE3909AAAFE8FA706A075935688657CF4135F9A9 CALLER PUSH2 0x27B7 JUMP JUMPDEST PUSH1 0x8 DUP1 SLOAD PUSH1 0x1 DUP2 ADD DUP3 SSTORE PUSH1 0x0 SWAP2 SWAP1 SWAP2 MSTORE PUSH32 0xF3F7A9FE364FAAB93B216DA50A3214154F22A0A2B415B23A84C8169E8B636EE3 ADD DUP1 SLOAD PUSH20 0xFFFFFFFFFFFFFFFFFFFFFFFFFFFFFFFFFFFFFFFF NOT AND CALLER OR SWAP1 SSTORE JUMPDEST CALLER PUSH1 0x0 SWAP1 DUP2 MSTORE PUSH1 0xD PUSH1 0x20 MSTORE PUSH1 0x40 DUP2 KECCAK256 SLOAD PUSH2 0x18ED SWAP1 CALLVALUE SWAP1 PUSH2 0x2E58 JUMP JUMPDEST SWAP1 POP PUSH1 0x0 CALLVALUE PUSH1 0x4 SLOAD PUSH2 0x18FF SWAP2 SWAP1 PUSH2 0x2E58 JUMP JUMPDEST SWAP1 POP PUSH1 0x4 SLOAD DUP2 LT ISZERO PUSH2 0x1913 JUMPI PUSH2 0x1913 PUSH2 0x2E6B JUMP JUMPDEST PUSH1 0x4 DUP2 DUP2 SSTORE CALLER PUSH1 0x0 DUP2 DUP2 MSTORE PUSH1 0xD PUSH1 0x20 MSTORE PUSH1 0x40 SWAP1 DUP2 SWAP1 KECCAK256 DUP6 SWAP1 SSTORE PUSH1 0x10 SLOAD SWAP1 MLOAD PUSH4 0x12BF5EC9 PUSH1 0xE1 SHL DUP2 MSTORE SWAP3 DUP4 ADD SWAP2 SWAP1 SWAP2 MSTORE ADDRESS PUSH1 0x24 DUP4 ADD MSTORE CALLVALUE PUSH1 0x44 DUP4 ADD MSTORE PUSH1 0x1 PUSH1 0x1 PUSH1 0xA0 SHL SUB AND SWAP1 PUSH4 0x257EBD92 SWAP1 PUSH1 0x64 ADD PUSH1 0x0 PUSH1 0x40 MLOAD DUP1 DUP4 SUB DUP2 PUSH1 0x0 DUP8 DUP1 EXTCODESIZE ISZERO DUP1 ISZERO PUSH2 0x197B JUMPI PUSH1 0x0 DUP1 REVERT JUMPDEST POP GAS CALL ISZERO DUP1 ISZERO PUSH2 0x198F JUMPI RETURNDATASIZE PUSH1 0x0 DUP1 RETURNDATACOPY RETURNDATASIZE PUSH1 0x0 REVERT JUMPDEST POP POP PUSH1 0x40 MLOAD CALLER DUP2 MSTORE DUP5 SWAP3 POP PUSH32 0x55370C12B8F214CA7B1B758B035231BBF6E98114FB08765921705DF59B42AE22 SWAP2 POP PUSH1 0x20 ADD PUSH1 0x40 MLOAD DUP1 SWAP2 SUB SWAP1 LOG2 POP POP POP JUMP JUMPDEST PUSH32 0x5F0A5F78118B6E0B700E0357AE3909AAAFE8FA706A075935688657CF4135F9A9 PUSH2 0x19F7 DUP2 PUSH2 0x272B JUMP JUMPDEST PUSH1 0x1 SLOAD PUSH3 0x10000 SWAP1 DIV PUSH1 0xFF AND ISZERO PUSH2 0x1A50 JUMPI PUSH1 0x40 MLOAD PUSH3 0x461BCD PUSH1 0xE5 SHL DUP2 MSTORE PUSH1 0x20 PUSH1 0x4 DUP3 ADD MSTORE PUSH1 0x19 PUSH1 0x24 DUP3 ADD MSTORE PUSH32 0x436F757273652068617320616C726561647920626567756E2E00000000000000 PUSH1 0x44 DUP3 ADD MSTORE PUSH1 0x64 ADD PUSH2 0x874 JUMP JUMPDEST PUSH1 0x0 DUP3 GT PUSH2 0x1AAC JUMPI PUSH1 0x40 MLOAD PUSH3 0x461BCD PUSH1 0xE5 SHL DUP2 MSTORE PUSH1 0x20 PUSH1 0x4 DUP3 ADD MSTORE PUSH1 0x23 PUSH1 0x24 DUP3 ADD MSTORE PUSH32 0x506C6561736520696E70757420616E20616D6F756E7420746F20756E73706F6E PUSH1 0x44 DUP3 ADD MSTORE PUSH3 0x39B7B9 PUSH1 0xE9 SHL PUSH1 0x64 DUP3 ADD MSTORE PUSH1 0x84 ADD PUSH2 0x874 JUMP JUMPDEST PUSH1 0x1 PUSH1 0x1 PUSH1 0xA0 SHL SUB DUP4 AND PUSH1 0x0 SWAP1 DUP2 MSTORE PUSH1 0xD PUSH1 0x20 MSTORE PUSH1 0x40 SWAP1 KECCAK256 SLOAD DUP3 GT ISZERO PUSH2 0x1B20 JUMPI PUSH1 0x40 MLOAD PUSH3 0x461BCD PUSH1 0xE5 SHL DUP2 MSTORE PUSH1 0x20 PUSH1 0x4 DUP3 ADD MSTORE PUSH1 0x24 DUP1 DUP3 ADD MSTORE PUSH32 0x54686174206973206D6F7265207468616E20796F7520686176652073706F6E73 PUSH1 0x44 DUP3 ADD MSTORE PUSH4 0x1BDC9959 PUSH1 0xE2 SHL PUSH1 0x64 DUP3 ADD MSTORE PUSH1 0x84 ADD PUSH2 0x874 JUMP JUMPDEST PUSH1 0x1 PUSH1 0x1 PUSH1 0xA0 SHL SUB DUP4 AND CALLER EQ PUSH2 0x1B9E JUMPI PUSH1 0x40 MLOAD PUSH3 0x461BCD PUSH1 0xE5 SHL DUP2 MSTORE PUSH1 0x20 PUSH1 0x4 DUP3 ADD MSTORE PUSH1 0x26 PUSH1 0x24 DUP3 ADD MSTORE PUSH32 0x596F7520617265206E6F7420746865206F776E6572206F662074686973206164 PUSH1 0x44 DUP3 ADD MSTORE PUSH32 0x64726573732E0000000000000000000000000000000000000000000000000000 PUSH1 0x64 DUP3 ADD MSTORE PUSH1 0x84 ADD PUSH2 0x874 JUMP JUMPDEST PUSH1 0x0 DUP4 PUSH1 0x1 PUSH1 0x1 PUSH1 0xA0 SHL SUB AND DUP4 PUSH1 0x40 MLOAD PUSH1 0x0 PUSH1 0x40 MLOAD DUP1 DUP4 SUB DUP2 DUP6 DUP8 GAS CALL SWAP3 POP POP POP RETURNDATASIZE DUP1 PUSH1 0x0 DUP2 EQ PUSH2 0x1BEB JUMPI PUSH1 0x40 MLOAD SWAP2 POP PUSH1 0x1F NOT PUSH1 0x3F RETURNDATASIZE ADD AND DUP3 ADD PUSH1 0x40 MSTORE RETURNDATASIZE DUP3 MSTORE RETURNDATASIZE PUSH1 0x0 PUSH1 0x20 DUP5 ADD RETURNDATACOPY PUSH2 0x1BF0 JUMP JUMPDEST PUSH1 0x60 SWAP2 POP JUMPDEST POP POP SWAP1 POP DUP1 PUSH2 0x1C41 JUMPI PUSH1 0x40 MLOAD PUSH3 0x461BCD PUSH1 0xE5 SHL DUP2 MSTORE PUSH1 0x20 PUSH1 0x4 DUP3 ADD MSTORE PUSH1 0x15 PUSH1 0x24 DUP3 ADD MSTORE PUSH32 0x4661696C656420746F207769746864726177203A280000000000000000000000 PUSH1 0x44 DUP3 ADD MSTORE PUSH1 0x64 ADD PUSH2 0x874 JUMP JUMPDEST PUSH1 0x1 PUSH1 0x1 PUSH1 0xA0 SHL SUB DUP5 AND PUSH1 0x0 SWAP1 DUP2 MSTORE PUSH1 0xD PUSH1 0x20 MSTORE PUSH1 0x40 DUP2 KECCAK256 SLOAD PUSH2 0x1C65 SWAP1 DUP6 SWAP1 PUSH2 0x2E16 JUMP JUMPDEST PUSH1 0x1 PUSH1 0x1 PUSH1 0xA0 SHL SUB DUP7 AND PUSH1 0x0 SWAP1 DUP2 MSTORE PUSH1 0xD PUSH1 0x20 MSTORE PUSH1 0x40 SWAP1 KECCAK256 SLOAD SWAP1 SWAP2 POP DUP2 GT ISZERO PUSH2 0x1C90 JUMPI PUSH2 0x1C90 PUSH2 0x2E6B JUMP JUMPDEST PUSH1 0x0 DUP5 PUSH1 0x4 SLOAD PUSH2 0x1CA0 SWAP2 SWAP1 PUSH2 0x2E16 JUMP JUMPDEST SWAP1 POP PUSH1 0x4 SLOAD DUP2 GT ISZERO PUSH2 0x1CB4 JUMPI PUSH2 0x1CB4 PUSH2 0x2E6B JUMP JUMPDEST PUSH1 0x4 DUP2 DUP2 SSTORE PUSH1 0x1 PUSH1 0x1 PUSH1 0xA0 SHL SUB DUP8 DUP2 AND PUSH1 0x0 SWAP1 DUP2 MSTORE PUSH1 0xD PUSH1 0x20 MSTORE PUSH1 0x40 SWAP1 DUP2 SWAP1 KECCAK256 DUP6 SWAP1 SSTORE PUSH1 0x10 SLOAD SWAP1 MLOAD PUSH4 0x52DBFBAB PUSH1 0xE1 SHL DUP2 MSTORE CALLER SWAP4 DUP2 ADD SWAP4 SWAP1 SWAP4 MSTORE PUSH1 0x24 DUP4 ADD DUP9 SWAP1 MSTORE AND SWAP1 PUSH4 0xA5B7F756 SWAP1 PUSH1 0x44 ADD PUSH1 0x0 PUSH1 0x40 MLOAD DUP1 DUP4 SUB DUP2 PUSH1 0x0 DUP8 DUP1 EXTCODESIZE ISZERO DUP1 ISZERO PUSH2 0x1D1A JUMPI PUSH1 0x0 DUP1 REVERT JUMPDEST POP GAS CALL ISZERO DUP1 ISZERO PUSH2 0x1D2E JUMPI RETURNDATASIZE PUSH1 0x0 DUP1 RETURNDATACOPY RETURNDATASIZE PUSH1 0x0 REVERT JUMPDEST POP POP POP POP PUSH1 0x1 PUSH1 0x1 PUSH1 0xA0 SHL SUB DUP7 AND PUSH1 0x0 SWAP1 DUP2 MSTORE PUSH1 0xD PUSH1 0x20 MSTORE PUSH1 0x40 DUP2 KECCAK256 SLOAD SWAP1 SUB PUSH2 0x1DDD JUMPI PUSH2 0x1D7B PUSH32 0x5F0A5F78118B6E0B700E0357AE3909AAAFE8FA706A075935688657CF4135F9A9 DUP8 PUSH2 0x2738 JUMP JUMPDEST PUSH1 0x40 DUP1 MLOAD PUSH32 0x5F0A5F78118B6E0B700E0357AE3909AAAFE8FA706A075935688657CF4135F9A9 DUP2 MSTORE PUSH1 0x1 PUSH1 0x1 PUSH1 0xA0 SHL SUB DUP9 AND PUSH1 0x20 DUP3 ADD MSTORE PUSH32 0x76E6093C136CD7FAA5A6D92B2B633F3B4595ABD4A529B7A13917398355FEA694 SWAP2 ADD PUSH1 0x40 MLOAD DUP1 SWAP2 SUB SWAP1 LOG1 JUMPDEST POP POP POP POP POP POP JUMP JUMPDEST PUSH1 0x8 DUP2 DUP2 SLOAD DUP2 LT PUSH2 0x78E JUMPI PUSH1 0x0 DUP1 REVERT JUMPDEST PUSH32 0x534B5B9FE29299D99EA2855DA6940643D68ED225DB268DC8D86C1F38DF5DE794 PUSH2 0x1E1F DUP2 PUSH2 0x272B JUMP JUMPDEST PUSH1 0x1 SLOAD PUSH3 0x10000 SWAP1 DIV PUSH1 0xFF AND ISZERO PUSH2 0x1E35 JUMPI PUSH1 0x0 DUP1 REVERT JUMPDEST PUSH1 0x1 DUP1 SLOAD PUSH4 0x1000000 SWAP1 DIV PUSH1 0xFF AND ISZERO ISZERO EQ PUSH2 0x1E4F JUMPI PUSH1 0x0 DUP1 REVERT JUMPDEST PUSH1 0x4 SLOAD PUSH1 0x2 SLOAD EQ PUSH2 0x1EC8 JUMPI PUSH1 0x40 MLOAD PUSH3 0x461BCD PUSH1 0xE5 SHL DUP2 MSTORE PUSH1 0x20 PUSH1 0x4 DUP3 ADD MSTORE PUSH1 0x2D PUSH1 0x24 DUP3 ADD MSTORE PUSH32 0x436F7572736520697320686173206E6F74206265656E2066756C6C792073706F PUSH1 0x44 DUP3 ADD MSTORE PUSH32 0x6E736F72656420796574203A2800000000000000000000000000000000000000 PUSH1 0x64 DUP3 ADD MSTORE PUSH1 0x84 ADD PUSH2 0x874 JUMP JUMPDEST PUSH1 0x0 PUSH1 0x4 SLOAD SELFBALANCE PUSH2 0x1ED8 SWAP2 SWAP1 PUSH2 0x2E16 JUMP JUMPDEST SWAP1 POP PUSH1 0x3 SLOAD DUP2 LT ISZERO PUSH2 0x1F5E JUMPI PUSH1 0x40 MLOAD PUSH3 0x461BCD PUSH1 0xE5 SHL DUP2 MSTORE PUSH1 0x20 PUSH1 0x4 DUP3 ADD MSTORE PUSH1 0x43 PUSH1 0x24 DUP3 ADD MSTORE PUSH32 0x596F75206E65656420746F2068617665206174206C65617374206F6E65205374 PUSH1 0x44 DUP3 ADD MSTORE PUSH32 0x7564656E7420656E726F6C6C656420746F2073746172742074686520436F7572 PUSH1 0x64 DUP3 ADD MSTORE PUSH3 0x736521 PUSH1 0xE8 SHL PUSH1 0x84 DUP3 ADD MSTORE PUSH1 0xA4 ADD PUSH2 0x874 JUMP JUMPDEST PUSH1 0x1 DUP1 SLOAD PUSH4 0xFFFF0000 NOT AND PUSH3 0x10000 OR SWAP1 SSTORE PUSH1 0x10 SLOAD PUSH1 0x2 SLOAD PUSH1 0x40 MLOAD PUSH4 0x2CD35C99 PUSH1 0xE0 SHL DUP2 MSTORE CALLER PUSH1 0x4 DUP3 ADD MSTORE PUSH1 0x24 DUP2 ADD SWAP2 SWAP1 SWAP2 MSTORE PUSH1 0x1 PUSH1 0x1 PUSH1 0xA0 SHL SUB SWAP1 SWAP2 AND SWAP1 PUSH4 0x2CD35C99 SWAP1 PUSH1 0x44 ADD PUSH1 0x0 PUSH1 0x40 MLOAD DUP1 DUP4 SUB DUP2 PUSH1 0x0 DUP8 DUP1 EXTCODESIZE ISZERO DUP1 ISZERO PUSH2 0x1FC0 JUMPI PUSH1 0x0 DUP1 REVERT JUMPDEST POP GAS CALL ISZERO DUP1 ISZERO PUSH2 0x1FD4 JUMPI RETURNDATASIZE PUSH1 0x0 DUP1 RETURNDATACOPY RETURNDATASIZE PUSH1 0x0 REVERT JUMPDEST POP POP PUSH1 0x10 SLOAD PUSH1 0x40 MLOAD PUSH4 0xF34355A9 PUSH1 0xE0 SHL DUP2 MSTORE PUSH1 0x1 PUSH1 0x1 PUSH1 0xA0 SHL SUB SWAP1 SWAP2 AND SWAP3 POP PUSH4 0xF34355A9 SWAP2 POP PUSH2 0x2009 SWAP1 PUSH1 0x8 SWAP1 PUSH1 0x4 ADD PUSH2 0x2ECA JUMP JUMPDEST PUSH1 0x0 PUSH1 0x40 MLOAD DUP1 DUP4 SUB DUP2 PUSH1 0x0 DUP8 DUP1 EXTCODESIZE ISZERO DUP1 ISZERO PUSH2 0x2023 JUMPI PUSH1 0x0 DUP1 REVERT JUMPDEST POP GAS CALL ISZERO DUP1 ISZERO PUSH2 0x2037 JUMPI RETURNDATASIZE PUSH1 0x0 DUP1 RETURNDATACOPY RETURNDATASIZE PUSH1 0x0 REVERT JUMPDEST POP POP PUSH1 0x40 MLOAD PUSH1 0x1 DUP2 MSTORE PUSH32 0x892B130B262705D95CF1801B6FBF10C8B36DBDB5A00B82185A0F194495805023 SWAP3 POP PUSH1 0x20 ADD SWAP1 POP PUSH1 0x40 MLOAD DUP1 SWAP2 SUB SWAP1 LOG1 PUSH1 0x40 MLOAD PUSH1 0x0 DUP2 MSTORE PUSH32 0xE5FDA8E788AB9BE7C3068BABFFFE1846F9AD5FCFE7A684AF4A7AE7842A47A4A SWAP1 PUSH1 0x20 ADD PUSH1 0x40 MLOAD DUP1 SWAP2 SUB SWAP1 LOG1 POP POP JUMP JUMPDEST PUSH32 0x534B5B9FE29299D99EA2855DA6940643D68ED225DB268DC8D86C1F38DF5DE794 PUSH2 0x20D2 DUP2 PUSH2 0x272B JUMP JUMPDEST PUSH1 0x1 DUP1 SLOAD PUSH3 0x10000 SWAP1 DIV PUSH1 0xFF AND ISZERO ISZERO EQ PUSH2 0x217A JUMPI PUSH1 0x40 MLOAD PUSH3 0x461BCD PUSH1 0xE5 SHL DUP2 MSTORE PUSH1 0x20 PUSH1 0x4 DUP3 ADD MSTORE PUSH1 0x45 PUSH1 0x24 DUP3 ADD MSTORE PUSH32 0x596F75206861766520746F20737461727420616E6420636F6D706C6574652074 PUSH1 0x44 DUP3 ADD MSTORE PUSH32 0x686520636F7572736520746F20636F6C6C6563742073706F6E736F7220706179 PUSH1 0x64 DUP3 ADD MSTORE PUSH32 0x6D656E742E000000000000000000000000000000000000000000000000000000 PUSH1 0x84 DUP3 ADD MSTORE PUSH1 0xA4 ADD PUSH2 0x874 JUMP JUMPDEST PUSH1 0x1 DUP1 SLOAD PUSH4 0x1000000 SWAP1 DIV PUSH1 0xFF AND ISZERO ISZERO EQ PUSH2 0x21FD JUMPI PUSH1 0x40 MLOAD PUSH3 0x461BCD PUSH1 0xE5 SHL DUP2 MSTORE PUSH1 0x20 PUSH1 0x4 DUP3 ADD MSTORE PUSH1 0x2D PUSH1 0x24 DUP3 ADD MSTORE PUSH32 0x506C65617365207061737320612073747564656E7420746F20636F6D706C6574 PUSH1 0x44 DUP3 ADD MSTORE PUSH32 0x652074686520636F757273652E00000000000000000000000000000000000000 PUSH1 0x64 DUP3 ADD MSTORE PUSH1 0x84 ADD PUSH2 0x874 JUMP JUMPDEST PUSH1 0x2 SLOAD PUSH1 0x40 MLOAD CALLER SWAP2 PUSH1 0x0 SWAP2 DUP4 SWAP2 DUP1 ISZERO PUSH2 0x8FC MUL SWAP2 DUP5 DUP2 DUP2 DUP2 DUP6 DUP9 DUP9 CALL SWAP4 POP POP POP POP SWAP1 POP DUP1 PUSH2 0x226D JUMPI PUSH1 0x40 MLOAD PUSH3 0x461BCD PUSH1 0xE5 SHL DUP2 MSTORE PUSH1 0x20 PUSH1 0x4 DUP3 ADD MSTORE PUSH1 0x12 PUSH1 0x24 DUP3 ADD MSTORE PUSH32 0x4661696C656420746F20636C61696D203A280000000000000000000000000000 PUSH1 0x44 DUP3 ADD MSTORE PUSH1 0x64 ADD PUSH2 0x874 JUMP JUMPDEST PUSH1 0x10 SLOAD PUSH1 0x2 SLOAD PUSH1 0x40 MLOAD PUSH32 0xFF67EBE800000000000000000000000000000000000000000000000000000000 DUP2 MSTORE PUSH1 0x1 PUSH1 0x1 PUSH1 0xA0 SHL SUB SWAP1 SWAP3 AND SWAP2 PUSH4 0xFF67EBE8 SWAP2 PUSH2 0x22BF SWAP2 CALLER SWAP2 PUSH1 0x8 SWAP2 ADDRESS SWAP2 SWAP1 PUSH1 0x4 ADD PUSH2 0x2EDD JUMP JUMPDEST PUSH1 0x0 PUSH1 0x40 MLOAD DUP1 DUP4 SUB DUP2 PUSH1 0x0 DUP8 DUP1 EXTCODESIZE ISZERO DUP1 ISZERO PUSH2 0x22D9 JUMPI PUSH1 0x0 DUP1 REVERT JUMPDEST POP GAS CALL ISZERO DUP1 ISZERO PUSH2 0x22ED JUMPI RETURNDATASIZE PUSH1 0x0 DUP1 RETURNDATACOPY RETURNDATASIZE PUSH1 0x0 REVERT JUMPDEST POP POP POP POP PUSH32 0x3E773B8609D2FD918870802D374F13AA52A750DA3359A51338C769B570C14F6C TIMESTAMP PUSH1 0x40 MLOAD PUSH2 0x93C SWAP2 DUP2 MSTORE PUSH1 0x20 ADD SWAP1 JUMP JUMPDEST PUSH1 0x0 DUP3 DUP2 MSTORE PUSH1 0x20 DUP2 SWAP1 MSTORE PUSH1 0x40 SWAP1 KECCAK256 PUSH1 0x1 ADD SLOAD PUSH2 0x233D DUP2 PUSH2 0x272B JUMP JUMPDEST PUSH2 0xC06 DUP4 DUP4 PUSH2 0x2738 JUMP JUMPDEST CALLER PUSH1 0x0 SWAP1 DUP2 MSTORE PUSH32 0x5F071DD6FE62DAE2E1CC850EF7D27824AE902F16F686D11A704D6B1E7629BDF9 PUSH1 0x20 MSTORE PUSH1 0x40 SWAP1 KECCAK256 SLOAD PUSH1 0xFF AND ISZERO PUSH2 0x23EC JUMPI PUSH1 0x40 MLOAD PUSH3 0x461BCD PUSH1 0xE5 SHL DUP2 MSTORE PUSH1 0x20 PUSH1 0x4 DUP3 ADD MSTORE PUSH1 0x2B PUSH1 0x24 DUP3 ADD MSTORE PUSH32 0x54656163686572732063616E6E6F7420656E726F6C6C20696E20746865697220 PUSH1 0x44 DUP3 ADD MSTORE PUSH32 0x6F776E20636F7572736521000000000000000000000000000000000000000000 PUSH1 0x64 DUP3 ADD MSTORE PUSH1 0x84 ADD PUSH2 0x874 JUMP JUMPDEST PUSH1 0x1 SLOAD PUSH3 0x10000 SWAP1 DIV PUSH1 0xFF AND ISZERO PUSH2 0x2445 JUMPI PUSH1 0x40 MLOAD PUSH3 0x461BCD PUSH1 0xE5 SHL DUP2 MSTORE PUSH1 0x20 PUSH1 0x4 DUP3 ADD MSTORE PUSH1 0x1D PUSH1 0x24 DUP3 ADD MSTORE PUSH32 0x436F757273652068617320616C72656164792073746172746564203A28000000 PUSH1 0x44 DUP3 ADD MSTORE PUSH1 0x64 ADD PUSH2 0x874 JUMP JUMPDEST CALLER PUSH1 0x0 SWAP1 DUP2 MSTORE PUSH32 0xF53340AA310A9E3C37F9F5B4AADF1810FA110CCC43B59EDD5F638EB6C7AABD36 PUSH1 0x20 MSTORE PUSH1 0x40 SWAP1 KECCAK256 SLOAD PUSH1 0xFF AND ISZERO PUSH2 0x24C4 JUMPI PUSH1 0x40 MLOAD PUSH3 0x461BCD PUSH1 0xE5 SHL DUP2 MSTORE PUSH1 0x20 PUSH1 0x4 DUP3 ADD MSTORE PUSH1 0x19 PUSH1 0x24 DUP3 ADD MSTORE PUSH32 0x596F752061726520656E726F6C6C656420616C72656164792100000000000000 PUSH1 0x44 DUP3 ADD MSTORE PUSH1 0x64 ADD PUSH2 0x874 JUMP JUMPDEST PUSH1 0x3 SLOAD CALLVALUE EQ PUSH2 0x2515 JUMPI PUSH1 0x40 MLOAD PUSH3 0x461BCD PUSH1 0xE5 SHL DUP2 MSTORE PUSH1 0x20 PUSH1 0x4 DUP3 ADD MSTORE PUSH1 0x1F PUSH1 0x24 DUP3 ADD MSTORE PUSH32 0x506C65617365205374616B652074686520436F727265637420416D6F756E7400 PUSH1 0x44 DUP3 ADD MSTORE PUSH1 0x64 ADD PUSH2 0x874 JUMP JUMPDEST PUSH1 0x1 DUP1 SLOAD PUSH4 0x1000000 SWAP1 DIV PUSH1 0xFF AND ISZERO ISZERO EQ PUSH2 0x2572 JUMPI PUSH1 0x40 MLOAD PUSH3 0x461BCD PUSH1 0xE5 SHL DUP2 MSTORE PUSH1 0x20 PUSH1 0x4 DUP3 ADD MSTORE PUSH1 0x11 PUSH1 0x24 DUP3 ADD MSTORE PUSH32 0x456E726F6C6C6D656E7420436C6F736564000000000000000000000000000000 PUSH1 0x44 DUP3 ADD MSTORE PUSH1 0x64 ADD PUSH2 0x874 JUMP JUMPDEST CALLVALUE PUSH1 0x3 SSTORE PUSH2 0x25A0 PUSH32 0xC951D7098B66BA0B8B77265B6E9CF0E187D73125A42BCD0061B09A68BE421810 CALLER PUSH2 0x27B7 JUMP JUMPDEST PUSH1 0x9 DUP1 SLOAD PUSH1 0x1 DUP2 ADD SWAP1 SWAP2 SSTORE PUSH32 0x6E1540171B6C0C960B71A7020D9F60077F6AF931A8BBF590DA0223DACF75C7AF ADD DUP1 SLOAD PUSH20 0xFFFFFFFFFFFFFFFFFFFFFFFFFFFFFFFFFFFFFFFF NOT AND CALLER SWAP1 DUP2 OR SWAP1 SWAP2 SSTORE PUSH1 0x3 SLOAD PUSH1 0x0 DUP3 DUP2 MSTORE PUSH1 0xC PUSH1 0x20 MSTORE PUSH1 0x40 SWAP1 DUP2 SWAP1 KECCAK256 DUP3 SWAP1 SSTORE PUSH1 0x10 SLOAD SWAP1 MLOAD PUSH4 0x6E9D3D57 PUSH1 0xE0 SHL DUP2 MSTORE PUSH1 0x4 DUP2 ADD SWAP4 SWAP1 SWAP4 MSTORE PUSH1 0x24 DUP4 ADD SWAP2 SWAP1 SWAP2 MSTORE PUSH1 0x1 PUSH1 0x1 PUSH1 0xA0 SHL SUB AND SWAP1 PUSH4 0x6E9D3D57 SWAP1 PUSH1 0x44 ADD PUSH1 0x0 PUSH1 0x40 MLOAD DUP1 DUP4 SUB DUP2 PUSH1 0x0 DUP8 DUP1 EXTCODESIZE ISZERO DUP1 ISZERO PUSH2 0x264F JUMPI PUSH1 0x0 DUP1 REVERT JUMPDEST POP GAS CALL ISZERO DUP1 ISZERO PUSH2 0x2663 JUMPI RETURNDATASIZE PUSH1 0x0 DUP1 RETURNDATACOPY RETURNDATASIZE PUSH1 0x0 REVERT JUMPDEST POP POP PUSH1 0x40 MLOAD CALLER DUP2 MSTORE PUSH32 0xCF2A1C3C7A67EB28C4843F17631FF117D727317FC31E3E6B454C9B83DC789CEC SWAP3 POP PUSH1 0x20 ADD SWAP1 POP PUSH1 0x40 MLOAD DUP1 SWAP2 SUB SWAP1 LOG1 JUMP JUMPDEST PUSH1 0xB DUP1 SLOAD PUSH2 0x26AA SWAP1 PUSH2 0x2CAA JUMP JUMPDEST DUP1 PUSH1 0x1F ADD PUSH1 0x20 DUP1 SWAP2 DIV MUL PUSH1 0x20 ADD PUSH1 0x40 MLOAD SWAP1 DUP2 ADD PUSH1 0x40 MSTORE DUP1 SWAP3 SWAP2 SWAP1 DUP2 DUP2 MSTORE PUSH1 0x20 ADD DUP3 DUP1 SLOAD PUSH2 0x26D6 SWAP1 PUSH2 0x2CAA JUMP JUMPDEST DUP1 ISZERO PUSH2 0x2723 JUMPI DUP1 PUSH1 0x1F LT PUSH2 0x26F8 JUMPI PUSH2 0x100 DUP1 DUP4 SLOAD DIV MUL DUP4 MSTORE SWAP2 PUSH1 0x20 ADD SWAP2 PUSH2 0x2723 JUMP JUMPDEST DUP3 ADD SWAP2 SWAP1 PUSH1 0x0 MSTORE PUSH1 0x20 PUSH1 0x0 KECCAK256 SWAP1 JUMPDEST DUP2 SLOAD DUP2 MSTORE SWAP1 PUSH1 0x1 ADD SWAP1 PUSH1 0x20 ADD DUP1 DUP4 GT PUSH2 0x2706 JUMPI DUP3 SWAP1 SUB PUSH1 0x1F AND DUP3 ADD SWAP2 JUMPDEST POP POP POP POP POP DUP2 JUMP JUMPDEST PUSH2 0x2735 DUP2 CALLER PUSH2 0x2855 JUMP JUMPDEST POP JUMP JUMPDEST PUSH1 0x0 DUP3 DUP2 MSTORE PUSH1 0x20 DUP2 DUP2 MSTORE PUSH1 0x40 DUP1 DUP4 KECCAK256 PUSH1 0x1 PUSH1 0x1 PUSH1 0xA0 SHL SUB DUP6 AND DUP5 MSTORE SWAP1 SWAP2 MSTORE SWAP1 KECCAK256 SLOAD PUSH1 0xFF AND ISZERO PUSH2 0xC93 JUMPI PUSH1 0x0 DUP3 DUP2 MSTORE PUSH1 0x20 DUP2 DUP2 MSTORE PUSH1 0x40 DUP1 DUP4 KECCAK256 PUSH1 0x1 PUSH1 0x1 PUSH1 0xA0 SHL SUB DUP6 AND DUP1 DUP6 MSTORE SWAP3 MSTORE DUP1 DUP4 KECCAK256 DUP1 SLOAD PUSH1 0xFF NOT AND SWAP1 SSTORE MLOAD CALLER SWAP3 DUP6 SWAP2 PUSH32 0xF6391F5C32D9C69D2A47EA670B442974B53935D1EDC7FD64EB21E047A839171B SWAP2 SWAP1 LOG4 POP POP JUMP JUMPDEST PUSH1 0x0 DUP3 DUP2 MSTORE PUSH1 0x20 DUP2 DUP2 MSTORE PUSH1 0x40 DUP1 DUP4 KECCAK256 PUSH1 0x1 PUSH1 0x1 PUSH1 0xA0 SHL SUB DUP6 AND DUP5 MSTORE SWAP1 SWAP2 MSTORE SWAP1 KECCAK256 SLOAD PUSH1 0xFF AND PUSH2 0xC93 JUMPI PUSH1 0x0 DUP3 DUP2 MSTORE PUSH1 0x20 DUP2 DUP2 MSTORE PUSH1 0x40 DUP1 DUP4 KECCAK256 PUSH1 0x1 PUSH1 0x1 PUSH1 0xA0 SHL SUB DUP6 AND DUP5 MSTORE SWAP1 SWAP2 MSTORE SWAP1 KECCAK256 DUP1 SLOAD PUSH1 0xFF NOT AND PUSH1 0x1 OR SWAP1 SSTORE PUSH2 0x2811 CALLER SWAP1 JUMP JUMPDEST PUSH1 0x1 PUSH1 0x1 PUSH1 0xA0 SHL SUB AND DUP2 PUSH1 0x1 PUSH1 0x1 PUSH1 0xA0 SHL SUB AND DUP4 PUSH32 0x2F8788117E7EFF1D82E926EC794901D17C78024A50270940304540A733656F0D PUSH1 0x40 MLOAD PUSH1 0x40 MLOAD DUP1 SWAP2 SUB SWAP1 LOG4 POP POP JUMP JUMPDEST PUSH1 0x0 DUP3 DUP2 MSTORE PUSH1 0x20 DUP2 DUP2 MSTORE PUSH1 0x40 DUP1 DUP4 KECCAK256 PUSH1 0x1 PUSH1 0x1 PUSH1 0xA0 SHL SUB DUP6 AND DUP5 MSTORE SWAP1 SWAP2 MSTORE SWAP1 KECCAK256 SLOAD PUSH1 0xFF AND PUSH2 0xC93 JUMPI PUSH2 0x2891 DUP2 PUSH1 0x1 PUSH1 0x1 PUSH1 0xA0 SHL SUB AND PUSH1 0x14 PUSH2 0x28D3 JUMP JUMPDEST PUSH2 0x289C DUP4 PUSH1 0x20 PUSH2 0x28D3 JUMP JUMPDEST PUSH1 0x40 MLOAD PUSH1 0x20 ADD PUSH2 0x28AD SWAP3 SWAP2 SWAP1 PUSH2 0x2F12 JUMP JUMPDEST PUSH1 0x40 DUP1 MLOAD PUSH1 0x1F NOT DUP2 DUP5 SUB ADD DUP2 MSTORE SWAP1 DUP3 SWAP1 MSTORE PUSH3 0x461BCD PUSH1 0xE5 SHL DUP3 MSTORE PUSH2 0x874 SWAP2 PUSH1 0x4 ADD PUSH2 0x2C77 JUMP JUMPDEST PUSH1 0x60 PUSH1 0x0 PUSH2 0x28E2 DUP4 PUSH1 0x2 PUSH2 0x2F93 JUMP JUMPDEST PUSH2 0x28ED SWAP1 PUSH1 0x2 PUSH2 0x2E58 JUMP JUMPDEST PUSH8 0xFFFFFFFFFFFFFFFF DUP2 GT ISZERO PUSH2 0x2905 JUMPI PUSH2 0x2905 PUSH2 0x2AC6 JUMP JUMPDEST PUSH1 0x40 MLOAD SWAP1 DUP1 DUP3 MSTORE DUP1 PUSH1 0x1F ADD PUSH1 0x1F NOT AND PUSH1 0x20 ADD DUP3 ADD PUSH1 0x40 MSTORE DUP1 ISZERO PUSH2 0x292F JUMPI PUSH1 0x20 DUP3 ADD DUP2 DUP1 CALLDATASIZE DUP4 CALLDATACOPY ADD SWAP1 POP JUMPDEST POP SWAP1 POP PUSH1 0x3 PUSH1 0xFC SHL DUP2 PUSH1 0x0 DUP2 MLOAD DUP2 LT PUSH2 0x294A JUMPI PUSH2 0x294A PUSH2 0x2E29 JUMP JUMPDEST PUSH1 0x20 ADD ADD SWAP1 PUSH1 0x1 PUSH1 0x1 PUSH1 0xF8 SHL SUB NOT AND SWAP1 DUP2 PUSH1 0x0 BYTE SWAP1 MSTORE8 POP PUSH1 0xF PUSH1 0xFB SHL DUP2 PUSH1 0x1 DUP2 MLOAD DUP2 LT PUSH2 0x2979 JUMPI PUSH2 0x2979 PUSH2 0x2E29 JUMP JUMPDEST PUSH1 0x20 ADD ADD SWAP1 PUSH1 0x1 PUSH1 0x1 PUSH1 0xF8 SHL SUB NOT AND SWAP1 DUP2 PUSH1 0x0 BYTE SWAP1 MSTORE8 POP PUSH1 0x0 PUSH2 0x299D DUP5 PUSH1 0x2 PUSH2 0x2F93 JUMP JUMPDEST PUSH2 0x29A8 SWAP1 PUSH1 0x1 PUSH2 0x2E58 JUMP JUMPDEST SWAP1 POP JUMPDEST PUSH1 0x1 DUP2 GT ISZERO PUSH2 0x2A2D JUMPI PUSH32 0x3031323334353637383961626364656600000000000000000000000000000000 DUP6 PUSH1 0xF AND PUSH1 0x10 DUP2 LT PUSH2 0x29E9 JUMPI PUSH2 0x29E9 PUSH2 0x2E29 JUMP JUMPDEST BYTE PUSH1 0xF8 SHL DUP3 DUP3 DUP2 MLOAD DUP2 LT PUSH2 0x29FF JUMPI PUSH2 0x29FF PUSH2 0x2E29 JUMP JUMPDEST PUSH1 0x20 ADD ADD SWAP1 PUSH1 0x1 PUSH1 0x1 PUSH1 0xF8 SHL SUB NOT AND SWAP1 DUP2 PUSH1 0x0 BYTE SWAP1 MSTORE8 POP PUSH1 0x4 SWAP5 SWAP1 SWAP5 SHR SWAP4 PUSH2 0x2A26 DUP2 PUSH2 0x2FAA JUMP JUMPDEST SWAP1 POP PUSH2 0x29AB JUMP JUMPDEST POP DUP4 ISZERO PUSH2 0x2A7C JUMPI PUSH1 0x40 MLOAD PUSH3 0x461BCD PUSH1 0xE5 SHL DUP2 MSTORE PUSH1 0x20 PUSH1 0x4 DUP3 ADD DUP2 SWAP1 MSTORE PUSH1 0x24 DUP3 ADD MSTORE PUSH32 0x537472696E67733A20686578206C656E67746820696E73756666696369656E74 PUSH1 0x44 DUP3 ADD MSTORE PUSH1 0x64 ADD PUSH2 0x874 JUMP JUMPDEST SWAP4 SWAP3 POP POP POP JUMP JUMPDEST PUSH1 0x0 PUSH1 0x20 DUP3 DUP5 SUB SLT ISZERO PUSH2 0x2A95 JUMPI PUSH1 0x0 DUP1 REVERT JUMPDEST DUP2 CALLDATALOAD PUSH1 0x1 PUSH1 0x1 PUSH1 0xE0 SHL SUB NOT DUP2 AND DUP2 EQ PUSH2 0x2A7C JUMPI PUSH1 0x0 DUP1 REVERT JUMPDEST PUSH1 0x0 PUSH1 0x20 DUP3 DUP5 SUB SLT ISZERO PUSH2 0x2ABF JUMPI PUSH1 0x0 DUP1 REVERT JUMPDEST POP CALLDATALOAD SWAP2 SWAP1 POP JUMP JUMPDEST PUSH4 0x4E487B71 PUSH1 0xE0 SHL PUSH1 0x0 MSTORE PUSH1 0x41 PUSH1 0x4 MSTORE PUSH1 0x24 PUSH1 0x0 REVERT JUMPDEST PUSH1 0x0 DUP1 PUSH1 0x40 DUP4 DUP6 SUB SLT ISZERO PUSH2 0x2AEF JUMPI PUSH1 0x0 DUP1 REVERT JUMPDEST DUP3 CALLDATALOAD SWAP2 POP PUSH1 0x20 DUP4 ADD CALLDATALOAD PUSH8 0xFFFFFFFFFFFFFFFF DUP1 DUP3 GT ISZERO PUSH2 0x2B0E JUMPI PUSH1 0x0 DUP1 REVERT JUMPDEST DUP2 DUP6 ADD SWAP2 POP DUP6 PUSH1 0x1F DUP4 ADD SLT PUSH2 0x2B22 JUMPI PUSH1 0x0 DUP1 REVERT JUMPDEST DUP2 CALLDATALOAD DUP2 DUP2 GT ISZERO PUSH2 0x2B34 JUMPI PUSH2 0x2B34 PUSH2 0x2AC6 JUMP JUMPDEST PUSH1 0x40 MLOAD PUSH1 0x1F DUP3 ADD PUSH1 0x1F NOT SWAP1 DUP2 AND PUSH1 0x3F ADD AND DUP2 ADD SWAP1 DUP4 DUP3 GT DUP2 DUP4 LT OR ISZERO PUSH2 0x2B5C JUMPI PUSH2 0x2B5C PUSH2 0x2AC6 JUMP JUMPDEST DUP2 PUSH1 0x40 MSTORE DUP3 DUP2 MSTORE DUP9 PUSH1 0x20 DUP5 DUP8 ADD ADD GT ISZERO PUSH2 0x2B75 JUMPI PUSH1 0x0 DUP1 REVERT JUMPDEST DUP3 PUSH1 0x20 DUP7 ADD PUSH1 0x20 DUP4 ADD CALLDATACOPY PUSH1 0x0 PUSH1 0x20 DUP5 DUP4 ADD ADD MSTORE DUP1 SWAP6 POP POP POP POP POP POP SWAP3 POP SWAP3 SWAP1 POP JUMP JUMPDEST PUSH1 0x1 PUSH1 0x1 PUSH1 0xA0 SHL SUB DUP2 AND DUP2 EQ PUSH2 0x2735 JUMPI PUSH1 0x0 DUP1 REVERT JUMPDEST PUSH1 0x0 DUP1 PUSH1 0x40 DUP4 DUP6 SUB SLT ISZERO PUSH2 0x2BBF JUMPI PUSH1 0x0 DUP1 REVERT JUMPDEST DUP3 CALLDATALOAD SWAP2 POP PUSH1 0x20 DUP4 ADD CALLDATALOAD PUSH2 0x2BD1 DUP2 PUSH2 0x2B97 JUMP JUMPDEST DUP1 SWAP2 POP POP SWAP3 POP SWAP3 SWAP1 POP JUMP JUMPDEST PUSH1 0x0 DUP1 PUSH1 0x40 DUP4 DUP6 SUB SLT ISZERO PUSH2 0x2BEF JUMPI PUSH1 0x0 DUP1 REVERT JUMPDEST DUP3 CALLDATALOAD PUSH2 0x2BFA DUP2 PUSH2 0x2B97 JUMP JUMPDEST SWAP2 POP PUSH1 0x20 DUP4 ADD CALLDATALOAD PUSH2 0x2BD1 DUP2 PUSH2 0x2B97 JUMP JUMPDEST PUSH1 0x0 PUSH1 0x20 DUP3 DUP5 SUB SLT ISZERO PUSH2 0x2C1C JUMPI PUSH1 0x0 DUP1 REVERT JUMPDEST DUP2 CALLDATALOAD PUSH2 0x2A7C DUP2 PUSH2 0x2B97 JUMP JUMPDEST PUSH1 0x0 DUP1 PUSH1 0x40 DUP4 DUP6 SUB SLT ISZERO PUSH2 0x2C3A JUMPI PUSH1 0x0 DUP1 REVERT JUMPDEST DUP3 CALLDATALOAD PUSH2 0x2C45 DUP2 PUSH2 0x2B97 JUMP JUMPDEST SWAP5 PUSH1 0x20 SWAP4 SWAP1 SWAP4 ADD CALLDATALOAD SWAP4 POP POP POP JUMP JUMPDEST PUSH1 0x0 JUMPDEST DUP4 DUP2 LT ISZERO PUSH2 0x2C6E JUMPI DUP2 DUP2 ADD MLOAD DUP4 DUP3 ADD MSTORE PUSH1 0x20 ADD PUSH2 0x2C56 JUMP JUMPDEST POP POP PUSH1 0x0 SWAP2 ADD MSTORE JUMP JUMPDEST PUSH1 0x20 DUP2 MSTORE PUSH1 0x0 DUP3 MLOAD DUP1 PUSH1 0x20 DUP5 ADD MSTORE PUSH2 0x2C96 DUP2 PUSH1 0x40 DUP6 ADD PUSH1 0x20 DUP8 ADD PUSH2 0x2C53 JUMP JUMPDEST PUSH1 0x1F ADD PUSH1 0x1F NOT AND SWAP2 SWAP1 SWAP2 ADD PUSH1 0x40 ADD SWAP3 SWAP2 POP POP JUMP JUMPDEST PUSH1 0x1 DUP2 DUP2 SHR SWAP1 DUP3 AND DUP1 PUSH2 0x2CBE JUMPI PUSH1 0x7F DUP3 AND SWAP2 POP JUMPDEST PUSH1 0x20 DUP3 LT DUP2 SUB PUSH2 0x2CDE JUMPI PUSH4 0x4E487B71 PUSH1 0xE0 SHL PUSH1 0x0 MSTORE PUSH1 0x22 PUSH1 0x4 MSTORE PUSH1 0x24 PUSH1 0x0 REVERT JUMPDEST POP SWAP2 SWAP1 POP JUMP JUMPDEST PUSH1 0x1F DUP3 GT ISZERO PUSH2 0xC06 JUMPI PUSH1 0x0 DUP2 DUP2 MSTORE PUSH1 0x20 DUP2 KECCAK256 PUSH1 0x1F DUP6 ADD PUSH1 0x5 SHR DUP2 ADD PUSH1 0x20 DUP7 LT ISZERO PUSH2 0x2D0B JUMPI POP DUP1 JUMPDEST PUSH1 0x1F DUP6 ADD PUSH1 0x5 SHR DUP3 ADD SWAP2 POP JUMPDEST DUP2 DUP2 LT ISZERO PUSH2 0x1DDD JUMPI DUP3 DUP2 SSTORE PUSH1 0x1 ADD PUSH2 0x2D17 JUMP JUMPDEST DUP2 MLOAD PUSH8 0xFFFFFFFFFFFFFFFF DUP2 GT ISZERO PUSH2 0x2D44 JUMPI PUSH2 0x2D44 PUSH2 0x2AC6 JUMP JUMPDEST PUSH2 0x2D58 DUP2 PUSH2 0x2D52 DUP5 SLOAD PUSH2 0x2CAA JUMP JUMPDEST DUP5 PUSH2 0x2CE4 JUMP JUMPDEST PUSH1 0x20 DUP1 PUSH1 0x1F DUP4 GT PUSH1 0x1 DUP2 EQ PUSH2 0x2D8D JUMPI PUSH1 0x0 DUP5 ISZERO PUSH2 0x2D75 JUMPI POP DUP6 DUP4 ADD MLOAD JUMPDEST PUSH1 0x0 NOT PUSH1 0x3 DUP7 SWAP1 SHL SHR NOT AND PUSH1 0x1 DUP6 SWAP1 SHL OR DUP6 SSTORE PUSH2 0x1DDD JUMP JUMPDEST PUSH1 0x0 DUP6 DUP2 MSTORE PUSH1 0x20 DUP2 KECCAK256 PUSH1 0x1F NOT DUP7 AND SWAP2 JUMPDEST DUP3 DUP2 LT ISZERO PUSH2 0x2DBC JUMPI DUP9 DUP7 ADD MLOAD DUP3 SSTORE SWAP5 DUP5 ADD SWAP5 PUSH1 0x1 SWAP1 SWAP2 ADD SWAP1 DUP5 ADD PUSH2 0x2D9D JUMP JUMPDEST POP DUP6 DUP3 LT ISZERO PUSH2 0x2DDA JUMPI DUP8 DUP6 ADD MLOAD PUSH1 0x0 NOT PUSH1 0x3 DUP9 SWAP1 SHL PUSH1 0xF8 AND SHR NOT AND DUP2 SSTORE JUMPDEST POP POP POP POP POP PUSH1 0x1 SWAP1 DUP2 SHL ADD SWAP1 SSTORE POP JUMP JUMPDEST PUSH4 0x4E487B71 PUSH1 0xE0 SHL PUSH1 0x0 MSTORE PUSH1 0x12 PUSH1 0x4 MSTORE PUSH1 0x24 PUSH1 0x0 REVERT JUMPDEST PUSH4 0x4E487B71 PUSH1 0xE0 SHL PUSH1 0x0 MSTORE PUSH1 0x11 PUSH1 0x4 MSTORE PUSH1 0x24 PUSH1 0x0 REVERT JUMPDEST DUP2 DUP2 SUB DUP2 DUP2 GT ISZERO PUSH2 0x778 JUMPI PUSH2 0x778 PUSH2 0x2E00 JUMP JUMPDEST PUSH4 0x4E487B71 PUSH1 0xE0 SHL PUSH1 0x0 MSTORE PUSH1 0x32 PUSH1 0x4 MSTORE PUSH1 0x24 PUSH1 0x0 REVERT JUMPDEST PUSH1 0x0 PUSH1 0x1 DUP3 ADD PUSH2 0x2E51 JUMPI PUSH2 0x2E51 PUSH2 0x2E00 JUMP JUMPDEST POP PUSH1 0x1 ADD SWAP1 JUMP JUMPDEST DUP1 DUP3 ADD DUP1 DUP3 GT ISZERO PUSH2 0x778 JUMPI PUSH2 0x778 PUSH2 0x2E00 JUMP JUMPDEST PUSH4 0x4E487B71 PUSH1 0xE0 SHL PUSH1 0x0 MSTORE PUSH1 0x1 PUSH1 0x4 MSTORE PUSH1 0x24 PUSH1 0x0 REVERT JUMPDEST PUSH1 0x0 DUP2 SLOAD DUP1 DUP5 MSTORE PUSH1 0x20 DUP1 DUP6 ADD SWAP5 POP DUP4 PUSH1 0x0 MSTORE DUP1 PUSH1 0x0 KECCAK256 PUSH1 0x0 JUMPDEST DUP4 DUP2 LT ISZERO PUSH2 0x2EBF JUMPI DUP2 SLOAD PUSH1 0x1 PUSH1 0x1 PUSH1 0xA0 SHL SUB AND DUP8 MSTORE SWAP6 DUP3 ADD SWAP6 PUSH1 0x1 SWAP2 DUP3 ADD SWAP2 ADD PUSH2 0x2E9A JUMP JUMPDEST POP SWAP5 SWAP6 SWAP5 POP POP POP POP POP JUMP JUMPDEST PUSH1 0x20 DUP2 MSTORE PUSH1 0x0 PUSH2 0x2A7C PUSH1 0x20 DUP4 ADD DUP5 PUSH2 0x2E81 JUMP JUMPDEST PUSH1 0x0 PUSH1 0x1 PUSH1 0x1 PUSH1 0xA0 SHL SUB DUP1 DUP8 AND DUP4 MSTORE PUSH1 0x80 PUSH1 0x20 DUP5 ADD MSTORE PUSH2 0x2F00 PUSH1 0x80 DUP5 ADD DUP8 PUSH2 0x2E81 JUMP JUMPDEST SWAP5 AND PUSH1 0x40 DUP4 ADD MSTORE POP PUSH1 0x60 ADD MSTORE SWAP3 SWAP2 POP POP JUMP JUMPDEST PUSH32 0x416363657373436F6E74726F6C3A206163636F756E7420000000000000000000 DUP2 MSTORE PUSH1 0x0 DUP4 MLOAD PUSH2 0x2F4A DUP2 PUSH1 0x17 DUP6 ADD PUSH1 0x20 DUP9 ADD PUSH2 0x2C53 JUMP JUMPDEST PUSH32 0x206973206D697373696E6720726F6C6520000000000000000000000000000000 PUSH1 0x17 SWAP2 DUP5 ADD SWAP2 DUP3 ADD MSTORE DUP4 MLOAD PUSH2 0x2F87 DUP2 PUSH1 0x28 DUP5 ADD PUSH1 0x20 DUP9 ADD PUSH2 0x2C53 JUMP JUMPDEST ADD PUSH1 0x28 ADD SWAP5 SWAP4 POP POP POP POP JUMP JUMPDEST DUP1 DUP3 MUL DUP2 ISZERO DUP3 DUP3 DIV DUP5 EQ OR PUSH2 0x778 JUMPI PUSH2 0x778 PUSH2 0x2E00 JUMP JUMPDEST PUSH1 0x0 DUP2 PUSH2 0x2FB9 JUMPI PUSH2 0x2FB9 PUSH2 0x2E00 JUMP JUMPDEST POP PUSH1 0x0 NOT ADD SWAP1 JUMP INVALID LOG2 PUSH5 0x6970667358 0x22 SLT KECCAK256 DUP4 CALLCODE DUP13 DUP16 0x25 PUSH15 0xAC6B2C1DC04E79A2CCFAE4ED8AA4D5 0xC DUP16 0xC2 0xB3 0x5F 0xAD MULMOD 0xAC GASLIMIT 0xBC 0xFC PUSH5 0x736F6C6343 STOP ADDMOD GT STOP CALLER "
    },
    "gasEstimates": {
      "creation": {
        "codeDepositCost": "2455800",
        "executionCost": "48985",
        "totalCost": "2504785"
      },
      "external": {
        "ADMIN()": "285",
        "DEFAULT_ADMIN_ROLE()": "263",
        "SPONSOR()": "308",
        "STUDENT()": "263",
        "TEACHER()": "263",
        "bootStudent(address)": "infinite",
        "claimPayment()": "infinite",
        "courseCompleted(address)": "2603",
        "courseStatus()": "2400",
        "dropOut()": "infinite",
        "enroll()": "infinite",
        "factoryAddress()": "2448",
        "getRoleAdmin(bytes32)": "2538",
        "grantRole(bytes32,address)": "infinite",
        "hasRole(bytes32,address)": "2705",
        "initialize(address,address)": "infinite",
        "passStudent(address)": "infinite",
        "payment()": "2363",
        "paymentStatus()": "2400",
        "paymentTimestamp()": "2406",
        "peaceAntzCouncil()": "2449",
        "renounceRole(bytes32,address)": "29045",
        "revokeRole(bytes32,address)": "infinite",
        "setAmount(uint256,string)": "infinite",
        "sponsor()": "infinite",
        "sponsorDeposit(address)": "2580",
        "sponsors(uint256)": "4703",
        "sponsorshipTotal()": "2362",
        "studentDeposit(address)": "2559",
        "studentStake()": "2386",
        "students(uint256)": "4683",
        "supportsInterface(bytes4)": "473",
        "teacher()": "2426",
        "unsponsor(address,uint256)": "infinite",
        "updateCourseStatus()": "infinite",
        "uri()": "infinite",
        "withdraw()": "infinite"
      }
    },
    "methodIdentifiers": {
      "ADMIN()": "2a0acc6a",
      "DEFAULT_ADMIN_ROLE()": "a217fddf",
      "SPONSOR()": "1d073a7a",
      "STUDENT()": "32865da6",
      "TEACHER()": "81c47705",
      "bootStudent(address)": "72e43564",
      "claimPayment()": "c7dea2f2",
      "courseCompleted(address)": "cef9d4cf",
      "courseStatus()": "47568c58",
      "dropOut()": "28bfb31d",
      "enroll()": "e65f2a7e",
      "factoryAddress()": "966dae0e",
      "getRoleAdmin(bytes32)": "248a9ca3",
      "grantRole(bytes32,address)": "2f2ff15d",
      "hasRole(bytes32,address)": "91d14854",
      "initialize(address,address)": "485cc955",
      "passStudent(address)": "489b0738",
      "payment()": "42f6487a",
      "paymentStatus()": "900feb3b",
      "paymentTimestamp()": "50b9a0e5",
      "peaceAntzCouncil()": "2c713d97",
      "renounceRole(bytes32,address)": "36568abe",
      "revokeRole(bytes32,address)": "d547741f",
      "setAmount(uint256,string)": "1e464119",
      "sponsor()": "77c93662",
      "sponsorDeposit(address)": "c9e1e685",
      "sponsors(uint256)": "93066b4c",
      "sponsorshipTotal()": "aabe0243",
      "studentDeposit(address)": "63fc2f7c",
      "studentStake()": "085aecef",
      "students(uint256)": "06ead22e",
      "supportsInterface(bytes4)": "01ffc9a7",
      "teacher()": "b46bff89",
      "unsponsor(address,uint256)": "7cbdce9b",
      "updateCourseStatus()": "a710b6c8",
      "uri()": "eac989f8",
      "withdraw()": "3ccfd60b"
    }
  },
  "storageLayout": {
    "storage": [
      {
        "astId": 2017,
        "contract": "CourseContract.sol:CourseContract",
        "label": "_roles",
        "offset": 0,
        "slot": "0",
        "type": "t_mapping(t_bytes32,t_struct(RoleData)2012_storage)"
      },
      {
        "astId": 1830,
        "contract": "CourseContract.sol:CourseContract",
        "label": "_initialized",
        "offset": 0,
        "slot": "1",
        "type": "t_uint8"
      },
      {
        "astId": 1833,
        "contract": "CourseContract.sol:CourseContract",
        "label": "_initializing",
        "offset": 1,
        "slot": "1",
        "type": "t_bool"
      },
      {
        "astId": 10,
        "contract": "CourseContract.sol:CourseContract",
        "label": "courseStatus",
        "offset": 2,
        "slot": "1",
        "type": "t_bool"
      },
      {
        "astId": 12,
        "contract": "CourseContract.sol:CourseContract",
        "label": "paymentStatus",
        "offset": 3,
        "slot": "1",
        "type": "t_bool"
      },
      {
        "astId": 14,
        "contract": "CourseContract.sol:CourseContract",
        "label": "payment",
        "offset": 0,
        "slot": "2",
        "type": "t_uint256"
      },
      {
        "astId": 16,
        "contract": "CourseContract.sol:CourseContract",
        "label": "studentStake",
        "offset": 0,
        "slot": "3",
        "type": "t_uint256"
      },
      {
        "astId": 18,
        "contract": "CourseContract.sol:CourseContract",
        "label": "sponsorshipTotal",
        "offset": 0,
        "slot": "4",
        "type": "t_uint256"
      },
      {
        "astId": 20,
        "contract": "CourseContract.sol:CourseContract",
        "label": "paymentTimestamp",
        "offset": 0,
        "slot": "5",
        "type": "t_uint256"
      },
      {
        "astId": 23,
        "contract": "CourseContract.sol:CourseContract",
        "label": "div",
        "offset": 0,
        "slot": "6",
        "type": "t_uint256"
      },
      {
        "astId": 25,
        "contract": "CourseContract.sol:CourseContract",
        "label": "teacher",
        "offset": 0,
        "slot": "7",
        "type": "t_address"
      },
      {
        "astId": 28,
        "contract": "CourseContract.sol:CourseContract",
        "label": "sponsors",
        "offset": 0,
        "slot": "8",
        "type": "t_array(t_address)dyn_storage"
      },
      {
        "astId": 31,
        "contract": "CourseContract.sol:CourseContract",
        "label": "students",
        "offset": 0,
        "slot": "9",
        "type": "t_array(t_address)dyn_storage"
      },
      {
        "astId": 34,
        "contract": "CourseContract.sol:CourseContract",
        "label": "peaceAntzCouncil",
        "offset": 0,
        "slot": "10",
        "type": "t_address"
      },
      {
        "astId": 36,
        "contract": "CourseContract.sol:CourseContract",
        "label": "uri",
        "offset": 0,
        "slot": "11",
        "type": "t_string_storage"
      },
      {
        "astId": 82,
        "contract": "CourseContract.sol:CourseContract",
        "label": "studentDeposit",
        "offset": 0,
        "slot": "12",
        "type": "t_mapping(t_address,t_uint256)"
      },
      {
        "astId": 86,
        "contract": "CourseContract.sol:CourseContract",
        "label": "sponsorDeposit",
        "offset": 0,
        "slot": "13",
        "type": "t_mapping(t_address,t_uint256)"
      },
      {
        "astId": 90,
        "contract": "CourseContract.sol:CourseContract",
        "label": "courseCompleted",
        "offset": 0,
        "slot": "14",
        "type": "t_mapping(t_address,t_bool)"
      },
      {
        "astId": 112,
        "contract": "CourseContract.sol:CourseContract",
        "label": "factoryAddress",
        "offset": 0,
        "slot": "15",
        "type": "t_address"
      },
      {
        "astId": 115,
        "contract": "CourseContract.sol:CourseContract",
        "label": "factory",
        "offset": 0,
        "slot": "16",
        "type": "t_contract(CourseFactory)1823"
      }
    ],
    "types": {
      "t_address": {
        "encoding": "inplace",
        "label": "address",
        "numberOfBytes": "20"
      },
      "t_array(t_address)dyn_storage": {
        "base": "t_address",
        "encoding": "dynamic_array",
        "label": "address[]",
        "numberOfBytes": "32"
      },
      "t_bool": {
        "encoding": "inplace",
        "label": "bool",
        "numberOfBytes": "1"
      },
      "t_bytes32": {
        "encoding": "inplace",
        "label": "bytes32",
        "numberOfBytes": "32"
      },
      "t_contract(CourseFactory)1823": {
        "encoding": "inplace",
        "label": "contract CourseFactory",
        "numberOfBytes": "20"
      },
      "t_mapping(t_address,t_bool)": {
        "encoding": "mapping",
        "key": "t_address",
        "label": "mapping(address => bool)",
        "numberOfBytes": "32",
        "value": "t_bool"
      },
      "t_mapping(t_address,t_uint256)": {
        "encoding": "mapping",
        "key": "t_address",
        "label": "mapping(address => uint256)",
        "numberOfBytes": "32",
        "value": "t_uint256"
      },
      "t_mapping(t_bytes32,t_struct(RoleData)2012_storage)": {
        "encoding": "mapping",
        "key": "t_bytes32",
        "label": "mapping(bytes32 => struct AccessControl.RoleData)",
        "numberOfBytes": "32",
        "value": "t_struct(RoleData)2012_storage"
      },
      "t_string_storage": {
        "encoding": "bytes",
        "label": "string",
        "numberOfBytes": "32"
      },
      "t_struct(RoleData)2012_storage": {
        "encoding": "inplace",
        "label": "struct AccessControl.RoleData",
        "members": [
          {
            "astId": 2009,
            "contract": "CourseContract.sol:CourseContract",
            "label": "members",
            "offset": 0,
            "slot": "0",
            "type": "t_mapping(t_address,t_bool)"
          },
          {
            "astId": 2011,
            "contract": "CourseContract.sol:CourseContract",
            "label": "adminRole",
            "offset": 0,
            "slot": "1",
            "type": "t_bytes32"
          }
        ],
        "numberOfBytes": "64"
      },
      "t_uint256": {
        "encoding": "inplace",
        "label": "uint256",
        "numberOfBytes": "32"
      },
      "t_uint8": {
        "encoding": "inplace",
        "label": "uint8",
        "numberOfBytes": "1"
      }
    }
  },
  "userdoc": {
    "kind": "user",
    "methods": {},
    "version": 1
  }
}